:100000000C943C000C9459000C9459000C94590029
:100010000C9459000C9459000C9459000C945900FC
:100020000C9459000C9459000C9459000C945900EC
:100030000C9459000C9459000C9459000C945900DC
:100040000C9459000C9459000C9459000C945900CC
:100050000C9459000C9459000C9459000C945900BC
:100060000C9459000C945900FC0017013E013E010C
:10007000BC01A9013E01B10111241FBECFEFD8E0A0
:10008000DEBFCDBF11E0A0E0B1E0E6EBF3E002C0DF
:1000900005900D92A230B107D9F721E0A2E0B1E0BE
:1000A00001C01D92A838B207E1F70E94A7000C9486
:1000B000D9010C940000459A98E080E0880F319BAC
:1000C0008F5F5C9825E02A95F1F75C9A2AE02A95E3
:1000D000F1F7915099F796B10895459A98E080E02C
:1000E000880F319B8F5F5C9825E02A95F1F75C9A29
:1000F0002AE02A95F1F7915099F7089598E087FD45
:1001000002C0409A01C04098880F25E02A95F1F777
:100110005C9825E02A95F1F75C9A2AE02A95F1F798
:10012000915069F7409A089580E008954298439A63
:100130008FEF809301011092030110920601089540
:100140009091C00095FFFCCF8093C60008955A9A05
:1001500052985B9A5398419A3998409A389A459A9E
:100160003D9A429A3A9A439A3B9A449A3C9A5C9AAC
:10017000549A519A82E08093C00088E18093C10034
:1001800086E08093C2001092C5008FE08093C40087
:100190002FEF8FEF9CE2215080409040E1F700C0AC
:1001A00000004298D2E0C1E014E003E04B99E4C0C3
:1001B000809101018F3F99F483E40E94A000429A4C
:1001C000449A0E945B00982F92959F70909307012C
:1001D0008695877080930101805D0E94A000E09168
:1001E00001018E2F90E08830910508F0C3C0FC011A
:1001F000EC5CFF4F0C94D30180910301811106C088
:1002000000930301459810920601B6C0E0900601E4
:10021000F12C0E946D00F701E85FFE4F8083809112
:1002200006018F5F80930601803871F5A3C080912D
:10023000060187FD21C08091030181110EC010933A
:100240000301439821E32A95F1F70000809108010A
:100250000E947E00C093060117C0459AE0910601F6
:10026000F0E0E85FFE4F80810E947E0080910601F1
:100270008F5F8093060108C0459A7CC0809103017E
:10028000811104C0C0930301459876C0813049F4C0
:100290000E945B00809305018B3160F4D0930301D1
:1002A000F3CF823009F068C00E945B0080930401A4
:1002B0008D3410F044985EC080910101833011F1BB
:1002C000863019F0823009F055C087E50E94A00001
:1002D000809105010E94A000809104010E94A0006D
:1002E00010920601E0910601E7FD1DC0F0E0E85F15
:1002F000FE4F80810E94A000809106018F5F809355
:100300000601F0CF82E50E94A000809105010E94C5
:10031000A000809104010E94A0001092060180912B
:10032000060187FF07C08FEF9FE80197F1F700C034
:10033000000020C09091C00097FFFCCF9091C600B4
:10034000E82FF0E0E85FFE4F90838F5F8093060117
:10035000E6CF439891E39A95F1F700008091000170
:1003600007C0439821E32A95F1F70000809102012C
:100370000E947E000E9496004A9918CF429A8FEF01
:100380009FEF2CE2815090402040E1F700C0000038
:10039000439881E38A95F1F7000084E80E947E008B
:1003A0000E94960003CFEE0FFF1F0590F491E02D01
:0603B0000994F894FFCF50
:0203B60084FFC2
:00000001FF
