:100000000C9434000C9446000C9446000C9446006A
:100010000C9446000C9446000C9446000C94460048
:100020000C9446000C9446000C9446000C94460038
:100030000C9446000C9446000C9446000C94460028
:100040000C9446000C9446000C9446000C94460018
:100050000C9446000C9446000C9446000C94460008
:100060000C9446000C94460011241FBECFEFD8E03C
:10007000DEBFCDBF21E0A0E0B1E001C01D92A238FB
:10008000B207E1F70E944A000C946E000C94000045
:1000900080E008955B9A53985A9A5298419A3998F9
:1000A000409A389A459A3D9A429A3A9A439A3B9A8C
:1000B000449A3C9A5C9A549A42984A99FDCF429A43
:1000C00088E091E39A95F1F700005C9891E39A95A6
:1000D000F1F700005C9A8150A1F7EECFF894FFCFC2
:00000001FF
