:100000000C9434000C9446000C9446000C9446006A
:100010000C9446000C9446000C9446000C94460048
:100020000C9446000C9446000C9446000C94460038
:100030000C9446000C9446000C9446000C94460028
:100040000C9446000C9446000C9446000C94460018
:100050000C9446000C9446000C9446000C94460008
:100060000C9446000C94460011241FBECFEFD8E03C
:10007000DEBFCDBF21E0A0E0B1E001C01D92A438F9
:10008000B207E1F70E944A000C9475000C9400003E
:1000900080E008955A9A52985B9A5398419A3998F9
:1000A000409A389A459A3D9A429A3A9A439A3B9A8C
:1000B000449A3C9A5C9A549A2FEF8FEF9CE221501D
:1000C00080409040E1F700C0000042984B99FECF7D
:1000D000429A88E02FE02A95F1F75C9895E09A958E
:0E00E000F1F75C9A8150B1F7F1CFF894FFCFA1
:00000001FF
