:100000000C943C000C9459000C9459000C94590029
:100010000C9459000C9459000C9459000C945900FC
:100020000C9459000C9459000C9459000C945900EC
:100030000C9459000C9459000C9459000C945900DC
:100040000C9459000C9459000C9459000C945900CC
:100050000C9459000C9459000C9459000C945900BC
:100060000C9459000C945900260441046804680457
:10007000D204BF046804C70411241FBECFEFD8E028
:10008000DEBFCDBF11E0A0E0B1E0E0E0FAE002C0E9
:1000900005900D92A230B107D9F721E0A2E0B1E0BE
:1000A00001C01D92A938B207E1F70E949D030C948C
:1000B000FE040C940000459A98E080E0880F319B84
:1000C0008F5F5C9825E02A95F1F75C9A2AE02A95E3
:1000D000F1F7915099F796B10895459A98E080E02C
:1000E000880F319B8F5F5C9825E02A95F1F75C9A29
:1000F0002AE02A95F1F7915099F7089598E087FD45
:1001000002C0409A01C04098880F25E02A95F1F777
:100110005C9825E02A95F1F75C9A2AE02A95F1F798
:10012000915069F7409A08958EBD0DB407FEFDCF3A
:100130008EB50895CF93C82F2A988AE08A95F1F753
:1001400080E50E9494002A9A8AE08A95F1F72A981D
:100150008AE08A95F1F781E00E9494008C2F0E943A
:1001600094002A9A8AE08A95F1F7CF9108952A9807
:100170008AE08A95F1F785E00E94940080E00E9471
:1001800094002A9A9AE09A95F1F708952A988AE0BD
:100190008A95F1F786E00E9494002A9A8AE08A956F
:1001A000F1F708951F93CF93DF93EB01182F0E946F
:1001B000B70080FDFCCF2A988AE08A95F1F780E2AB
:1001C0000E949400812F0E9494008D2F0E94940021
:1001D0008C2F0E9494002A9A8AE08A95F1F70E9457
:1001E000B70080FDFCCFDF91CF911F910895CF9292
:1001F000DF92EF92FF92CF93DF93299A9AE1699F62
:10020000600111240D2C000CEE08FF08C40ED11C57
:10021000E11CF11CB701A60197E0440F551F661FB2
:10022000771F9A95D1F7C82ED12CE12CF12C23E120
:10023000CC0CDD1CEE1CFF1C2A95D1F7C40ED51E7C
:10024000E61EF71E2A988AE08A95F1F783E00E945D
:1002500094008E2D0E9494008D2D0E9494008C2D70
:100260000E949400C9E0D1E091E0C938D90729F093
:1002700080E00E9494008993F7CF2A9A8AE08A95B9
:10028000F1F7299880E0DF91CF91FF90EF90DF9018
:10029000CF9008952F923F924F925F926F927F92EC
:1002A0008F929F92AF92BF92CF92DF92EF92FF9286
:1002B0000F931F93CF93DF93CDB7DEB7CB58D10900
:1002C0000FB6F894DEBF0FBECDBF299A9AE1699FA1
:1002D000600111240D2C000CEE08FF08C40ED11C87
:1002E000E11CF11CB701A60197E0440F551F661FE2
:1002F000771F9A95D1F7C82ED12CE12CF12C23E150
:10030000CC0CDD1CEE1CFF1C2A95D1F7C40ED51EAB
:10031000E61EF71E260137014424A0EF5A228090E2
:100320000201912CA12CB12C3CE0880C991CAA1C38
:10033000BB1C3A95D1F7B4E0AB0EB11C0E94C600CD
:10034000C501B4010E94D200CD57DF4F8882998247
:10035000AA82BB82C358D040C957DF4F4882598216
:100360006A827B82C758D040212C312CFE01E15893
:10037000FF4FCF57DF4FF983E883C158D0402A9809
:10038000FAE0FA95F1F783E00E949400C757DF4F37
:100390008881C958D0400E949400C857DF4F888197
:1003A000C858D0400E949400C957DF4F8881C75871
:1003B000D0400E9494008E010F5F1F4FC557DF4F42
:1003C0001882CB58D04080E00E949400D8018D93D1
:1003D0008D01C557DF4FB881CB58D040BF5FC5579F
:1003E000DF4FB883CB58D040B03869F72A9AEAE09B
:1003F000EA95F1F70E94C6002A98F5E0FA95F1F720
:100400008DEA0E949400CB57DF4F8881C558D040B9
:100410000E949400CC57DF4F8881C458D0400E947E
:100420009400CD57DF4F8881C358D0400E9494007C
:1004300089810E9494008A810E9494002A9A85E012
:100440008A95F1F70E94B70080FDFCCF8E010F5F07
:100450001F4F2A9895E09A95F1F78DEA0E94940033
:10046000D80112968C910E949400F80183810E9419
:1004700094002A9AF5E0FA95F1F70E94B70080FD02
:10048000FCCF0E5F1F4FCF57DF4F88819981C15836
:10049000D04080179107E9F62A9895E09A95F1F7F0
:1004A00084E00E9494002A9AA5E0AA95F1F7BFEF94
:1004B0002B1A3B0AC957DF4F88819981AA81BB81DA
:1004C000C758D04080589F4FAF4FBF4FC957DF4FDD
:1004D00088839983AA83BB83C758D040CD57DF4F09
:1004E00088819981AA81BB81C358D04080589F4F91
:1004F000AF4FBF4FCD57DF4F88839983AA83BB830C
:10050000C358D04090E22916310409F038CF0E9438
:10051000C600C301B2010E94D200CD57DF4F8882CE
:100520009982AA82BB82C358D040812C912C2A98F0
:10053000AAE0AA95F1F783E00E949400CB57DF4F21
:100540008881C558D0400E949400CC57DF4F8881E5
:10055000C458D0400E949400CD57DF4F8881C358C3
:10056000D0400E9494008E010F5F1F4FB12C80E09D
:100570000E949400F80181938F01B394F0E8BF12B8
:10058000F6CF2A9A8AE08A95F1F70E94C6002A9847
:1005900095E09A95F1F78DEA0E949400862D0E94CD
:1005A0009400852D0E949400842D0E949400C41410
:1005B000D504E604F70439F4809109010E949400FF
:1005C00080910A0104C089810E9494008A810E945E
:1005D00094002A9AA5E0AA95F1F70E94B70080FD41
:1005E000FCCF89E0A82E81E0B82E8E010F5F1F4F4F
:1005F0002A98B5E0BA95F1F78DEA0E949400C414E8
:10060000D504E604F70431F4F50182810E949400D8
:10061000D50105C0F80182810E949400D80113968B
:100620008C910E9494002A9A0E94B70080FDFCCF12
:10063000B2E0AB0EB11C0E5F1F4FCF57DF4FE8810A
:10064000F981C158D040E017F10791F62A98F5E0FA
:10065000FA95F1F784E00E9494002A9A85E08A9541
:10066000F1F79FEF891A990ACD57DF4F8881998159
:10067000AA81BB81C358D04080589F4FAF4FBF4F16
:10068000CD57DF4F88839983AA83BB83C358D0405B
:1006900090E8490E511C611C711CA0E28A1691045D
:1006A00009F045CF809102018F5F80930201803471
:1006B00011F410920201299880E0C557DF4F0FB660
:1006C000F894DEBF0FBECDBFDF91CF911F910F9188
:1006D000FF90EF90DF90CF90BF90AF909F908F9062
:1006E0007F906F905F904F903F902F900895429829
:1006F000439A8FEF80930101109204011092070139
:1007000008959091C00095FFFCCF8093C600089596
:10071000CF93C82F82958F708A3010F0895C01C00A
:10072000805D0E9481038C2F8F708A3010F0895C6D
:1007300001C0805DCF910C9481035A9A52985B9AC4
:100740005398419A3998409A389A459A3D9A429AD4
:100750003A9A439A3B9A449A3C9A5C9A549A519A90
:1007600082E08093C00088E18093C10086E080939E
:10077000C2001092C5008FE08093C4002A9A229A8A
:100780002C9A2498239A259A80E58CBD81E08DBD12
:100790002998219A2FEF8FEF9CE2215080409040C2
:1007A000E1F700C00000429883E50E94810380E2E7
:1007B0000E94810380E00E949A000E94B7000E947C
:1007C00088038AE00E9481038DE00E94810312E089
:1007D000D1E004E083E0F82E4B99E4C08091010160
:1007E0008F3F39F58AE00E9481038DE00E948103EA
:1007F00080E20E94810383E40E948103429A449A2A
:100800000E945B00C82F80E20E9481038C2F0E940F
:10081000880380E20E948103C4FB882780F98093CB
:1008200008018C2F8695877080930101805D0E945E
:100830008103E09101018E2F90E08830910508F04E
:10084000AFC0FC01EC5CFF4F0C94F80480910401F4
:10085000811106C0F0920401459810920701A2C0D0
:10086000C0900701D12C0E946D00F601E75FFE4F9A
:100870008083809107018F5F80930701803871F535
:100880008FC08091070187FD21C0809104018111F3
:100890000EC000930401439821E32A95F1F700006C
:1008A000809109010E947E00D093070117C0459AEC
:1008B000E0910701F0E0E75FFE4F80810E947E003B
:1008C000809107018F5F8093070108C0459A68C037
:1008D00080910401811104C0D0930401459862C045
:1008E000813051F40E945B008150809306018B316E
:1008F00060F410930401F2CF823009F053C00E94DB
:100900005B00809305018D3410F0449849C09091AC
:1009100001019330E9F0963019F0923009F040C0AF
:1009200087E50E948103809105018F70805D0E94A0
:100930008103809106018F70805D0E948103409148
:10094000060160910501809108010E944A0128C0BA
:1009500040910601682F809108010E94F70082E50E
:100960000E948103809105018F70805D0E94810348
:10097000809106018F70805D0E94810311C04398B1
:1009800081E38A95F1F700008091000107C0439848
:1009900091E39A95F1F70000809103010E947E0097
:1009A0000E9477034A9918CF429A2FEF8FE794E07D
:1009B000215080409040E1F700C00000439821E3BF
:1009C0002A95F1F7000084E80E947E000E947703D8
:1009D0008AE00E9481038DE00E94810382E50E94EB
:1009E000810383E50E94810384E50E948103F4CEA4
:1009F000EE0FFF1F0590F491E02D0994F894FFCFBE
:020A000084FF71
:00000001FF
