:100000000C9434000C9451000C9451000C94510049
:100010000C9451000C9451000C9451000C9451001C
:100020000C9451000C9451000C9451000C9451000C
:100030000C9451000C9451000C9451000C945100FC
:100040000C9451000C9451000C9451000C945100EC
:100050000C9451000C9451000C9451000C945100DC
:100060000C9451000C94510011241FBECFEFD8E026
:10007000DEBFCDBF11E0A0E0B1E0EAE3F1E002C0F5
:1000800005900D92A230B107D9F721E0A2E0B1E0CE
:1000900001C01D92A538B207E1F70E946F000C94D1
:1000A0009B000C94000096B1969541E09427292F6F
:1000B000217030E0882371F05C9895E09A95F1F713
:1000C0005C9A9AE09A95F1F7319902C02F5F3F4F01
:1000D0008150F0CFC9010895089580E008955A9A9B
:1000E00052985B9A5398419A3998409A389A459A0F
:1000F0003D9A429A3A9A439A3B9A449A3C9A5C9A1D
:10010000549A2FEF8FEF9CE2215080409040E1F70E
:1001100000C000004298809100014B99FECF8F3FB4
:10012000E1F7429A88E00E94530096958795877080
:0A01300080930001F0CFF894FFCF98
:02013A00FF00C4
:00000001FF
