:100000000C9445000C9462000C9462000C94620005
:100010000C9462000C9462000C9462000C946200D8
:100020000C9462000C9462000C9462000C946509BC
:100030000C9462000C9462000C9462000C946200B8
:100040000C9462000C9462000C9445010C946200C4
:100050000C949E010C9462000C9462000C9462005B
:100060000C9462000C946200AD05CF05DE05ED0531
:100070000B061A06FC0538062906180A330A5A0A1E
:100080005A0AA20A8F0A5A0A970A11241FBECFEFF2
:10009000D8E0DEBFCDBF15E0A0E0B1E0ECE9F5E1CE
:1000A00002C005900D92A633B107D9F727E0A6E369
:1000B000B5E001C01D92A337B207E1F70E948109A4
:1000C0000C94CC0A0C9400009091C00095FFFCCFDA
:1000D0008093C6000895809102014091430550919C
:1000E000440584FD05C0FA01E55BF94F808101C03C
:1000F00080E020910201309103012F7D30930301B4
:10010000209302014B38510529F4109244051092B6
:10011000430506C04F5F5F4F50934405409343052E
:100120006091430570914405409145055091460505
:100130006417750729F420613093030120930201AD
:100140000895F8949091020196FD37C090910201B4
:1001500097FF02C07894FACFF89420914905309126
:100160004A05F901E951F94F80838091020190918C
:1001700003018F7B90930301809302012B3831059B
:1001800029F410924A051092490506C02F5F3F4F8F
:1001900030934A05209349054091490550914A05FD
:1001A00020914705309148054217530761F4806854
:1001B000909303018093020106C09091C00095FFC7
:1001C000C5CF8093C600789480E00895CF93DF93E5
:1001D000EC018991882319F00E94A100FACFDF91E8
:1001E000CF9108958DE00E9464008AE00E9464002F
:1001F0008DE00E9464008AE00E9464008DE20E940B
:1002000064008DE20E9464008DE20E9464008DE231
:100210000E9464008DE20E9464008DE00E946400F0
:100220008AE00E94640085E50E94640081E40E94E7
:10023000640082E50E94640084E50E94640080E21C
:100240000E9464008FE40E9464008BE40E946400BA
:1002500080E20E94640081E30E94640081E30E94C6
:10026000640085E30E94640082E30E94640080E3EE
:100270000E94640080E30E94640084E091E00C949A
:10028000E60080910201807108951F920F920FB6CF
:100290000F9211242F933F934F935F938F939F93CC
:1002A000EF93FF934091C6008091020185FF0AC041
:1002B00080910201909103018860909303018093E3
:1002C000020118952091450530914605F901E55B3D
:1002D000F94F408380910201909103018F7E9093AA
:1002E0000301809302012B38310529F41092460551
:1002F0001092450506C02F5F3F4F3093460520936F
:1003000045054091450550914605209143053091A2
:1003100044054217530729F48062909303018093A8
:100320000201FF91EF919F918F915F914F913F91CA
:100330002F910F900FBE0F901F9018951F920F9244
:100340000FB60F9211242F933F934F935F938F9388
:100350009F93EF93FF938091020186FD34C0E0915B
:100360004705F0914805E951F94F80818093C60017
:1003700080910201909103018F7790930301809304
:10038000020120914705309148052B38310529F4A9
:10039000109248051092470506C02F5F3F4F3093DB
:1003A0004805209347054091470550914805209105
:1003B000490530914A054217530729F48064909308
:1003C000030180930201FF91EF919F918F915F91C3
:1003D0004F913F912F910F900FBE0F901F90189546
:1003E00083E191E00E94E6008DE191E00C94E6004B
:1003F0008DE391E00E94E6008CE291E00E94E6002D
:100400008AE291E00C94E6008DE391E00E94E60020
:1004100080E491E00E94E6008AE291E00C94E6001C
:100420002A9A28E090E080E0880F189902C08F5F38
:100430009F5F5C9835E03A95F1F75C9A3AE03A951F
:10044000F1F7215089F7189B9F5F90FD0AC085E462
:100450000E94640082E50E94640082E50E946400BC
:100460008FEF08952A9A98E080E0880F189B8F5F9D
:100470005C9825E02A95F1F75C9A2AE02A95F1F735
:10048000915099F7089598E087FD02C0299A01C01C
:100490002998880F25E02A95F1F75C9825E02A95A0
:1004A000F1F75C9A2AE02A95F1F7915069F7299AB9
:1004B00008958EBD0DB407FEFDCF8EB50895CF9380
:1004C000C82F41988AE08A95F1F780E50E94590289
:1004D000419A8AE08A95F1F741988AE08A95F1F786
:1004E00081E00E9459028C2F0E945902419A8AE0B1
:1004F0008A95F1F7CF91089541988AE08A95F1F7AE
:1005000085E00E94590280E00E945902419A9AE0D7
:100510009A95F1F7089541988AE08A95F1F786E077
:100520000E945902419A8AE08A95F1F708951F9333
:10053000CF93DF93EB01182F0E948B020E947C0265
:1005400080FDFCCF41988AE08A95F1F780E20E9415
:100550005902812F0E9459028D2F0E9459028C2F1F
:100560000E945902419A8AE08A95F1F70E947C0222
:1005700080FDFCCFDF91CF911F910895CF92DF9244
:10058000EF92FF92CF936B017C01C0E4C701B601EB
:100590000E94970280E1D80EE11CF11CC150B1F716
:1005A000CF91FF90EF90DF90CF900895FF920F933F
:1005B0001F93CF93DF93EB01182FF42E41988AE01D
:1005C0008A95F1F783E00E945902812F0E94590217
:1005D0008D2F0E9459028C2F0E945902CBECD5E03E
:1005E0000BE415E0F6E0CB34DF0779F080E0F110A2
:1005F00004C00E945902888304C00E945902F80175
:10060000808321960F5F1F4FEDCF419A8AE08A9534
:10061000F1F7DF91CF911F910F91FF900895FF9215
:100620000F931F93CF93DF93EB01182FF42E0E94AB
:100630008B02419885E08A95F1F78DEA0E94590274
:10064000812F0E9459028D2F0E9459028C2F0E94E7
:100650005902F11007C08091CB050E945902809188
:10066000CC0506C080914B050E94590280914C0533
:100670000E945902419AE5E0EA95F1F70E947C0256
:1006800080FDFCCFCBECD5E00BE415E04198F5E024
:10069000FA95F1F78DEA0E945902F11005C08A819E
:1006A0000E9459028B8106C0F80182810E94590282
:1006B000F80183810E945902419AF5E0FA95F1F719
:1006C0000E947C0280FDFCCF22960E5F1F4F86E0C9
:1006D000C934D807D9F64198E5E0EA95F1F784E006
:1006E0000E945902419AF5E0FA95F1F7DF91CF9116
:1006F0001F910F91FF9008954F925F926F927F929A
:100700008F929F92AF92BF92CF92DF92EF92FF9221
:10071000CF93DF933B01D82FC92F49015A01CA015A
:10072000B9010E94BE026301ED2EFC2EC0E0D8E0AC
:100730008C189D08AE08BF08240135014C0C5D1CC7
:100740006E1C7F1C40E0C701B6010E94D60240E04B
:10075000C301B2010E940F0380E8C80ED11CE11C46
:10076000F11C219749F7DF91CF91FF90EF90DF9037
:10077000CF90BF90AF909F908F907F906F905F9041
:100780004F9008950F931F93282F811102C0439A11
:1007900001C0429A0AE1609FB0011124CB01770F9A
:1007A000AA0BBB0B840F911DA11DB11DAC01BD0196
:1007B00087E0440F551F661F771F8A95D1F7822F58
:1007C00090E0A0E0B0E023E1880F991FAA1FBB1FB3
:1007D0002A95D1F78C019D01040F151F261F371F85
:1007E000C901B80141E00E94D60288B1837F88B96F
:1007F00080E01F910F910895CF93C82F82958F703D
:100800008A3010F0895C01C0805D0E94A1008C2FAD
:100810008F708A3010F0895C01C0805DCF910C949C
:10082000A1007F928F929F92AF92BF92CF92DF9260
:10083000EF92FF920F931F93CF93DF93C82F8830CF
:1008400009F426C38D3041F0833009F02DC3109296
:1008500036058FE994E009C390913605911103C0E4
:100860008DE391E002C38091D7068835A9F170F439
:10087000843409F488C220F4823409F40CC2B2C270
:10088000823509F441C2863589F0ACC2823709F459
:100890003BC238F4823609F4FEC1843609F473C2CF
:1008A000A1C2863719F08837B9F09CC2913009F09F
:1008B000F4C18DE391E00E94E6008BE591E00E9497
:1008C000E60086E691E00E94E60081E791E00E9462
:1008D000E6008CE791E0C0C2933009F0DEC1809160
:1008E000D806833559F020F4823509F48BC0D5C180
:1008F000823709F487C0833709F0CFC18DE391E0D7
:100900000E94E60086E891E00E94E6008091D90608
:100910000E94A10081E991E00E94E6008091D90641
:10092000C82FC17080FD02C0439A01C0429A8091D5
:100930000201807125E02A95F1F78111F8CF0E941C
:100940006B008531A1F78C2E912CA12CB12CE3E109
:10095000880C991CAA1CBB1CEA95D1F7C1E0D0E019
:10096000FBE4EF2EF6E0FF2E40E0C501B4010E944B
:10097000D60281E00E94A1008C2F0E94A1008C2F42
:1009800080950E94A1000BEC15E0712CE016F10699
:1009900051F06801F80181918F010E94A100F601D8
:1009A0008081780EF3CF872D0E94A10080910201F3
:1009B0008071E6E6FEE03197F1F700008111F6CF95
:1009C0000E946B00863091F7F0E88F0E911CA11CFD
:1009D000B11C2196C33D27E0D20731F684E00E9486
:1009E000A10088B1837F88B98FEF9FEFE9E581503F
:1009F0009040E040E1F700C0000087EA91E00E94EB
:100A0000E60046C18DE391E00E94E6008EEA91E0A7
:100A10000E94E6008091D9060E94A10081E991E040
:100A20000E94E6008091D906F82FF170FF2E80FD1C
:100A300002C0439A01C0429A60E070E08CE090E00E
:100A40000E94BE02109239051092380585E10E947D
:100A5000A100809102018071E6E6FEE03197F1F796
:100A6000000081110BC0D0E0E12CC0E001E010E0FB
:100A7000812C912C7CE0A72EB12C19C080913805D7
:100A8000909139054E9728F3DDCF40E0C501B401C0
:100A90000E940F030F5F1F4F90E8890E911CA11C4D
:100AA000B11C86E00E94A100D0E0E12CC1E0809161
:100AB00002018071F5E0FA95F1F781113FC00E94C3
:100AC0006B00D130D9F060F0D230F9F0D33839F181
:100AD000ED2FF0E0E853FA4F8083E80EDF5F2EC081
:100AE000833009F40AC2843019F0813039F502C22A
:100AF000023D174008F003C2C8E023C090E098010F
:100B000033278217930749F416C090E09801209587
:100B1000309533278217930781F0C4E012C0E812A2
:100B2000F0C1033D87E0180708F4AFCF85E10E94CC
:100B3000A100C7E006C0D2E001C0D3E0C23008F493
:100B4000B6CF8C2F90E0FC013297E930F10508F028
:100B50008FC0EC5CFF4F0C94C60A8F2D90E0A0E094
:100B6000B0E09C01AD0163E1220F331F441F551F0C
:100B70006A95D1F760E070E08CE090E00E947C0321
:100B800086E00E94A100EFEFFFEF2CE2E150F04081
:100B90002040E1F700C0000087EA91E074C086E0E1
:100BA0000E94A1008FEF9FEFECE281509040E04067
:100BB000E1F700C000008BEB91E065C086E00E9489
:100BC000A100FFEF2FEF8CE2F15020408040E1F7D1
:100BD00000C000008DEC91E056C086E00E94A100AC
:100BE0009FEFEFEFFCE29150E040F040E1F700C0F2
:100BF00000008FEE91E047C086E00E94A1002FEF39
:100C00008FEF9CE2215080409040E1F700C000004F
:100C100083E092E038C086E00E94A100EFEFFFEF92
:100C20002CE2E150F0402040E1F700C000008CE1F0
:100C300092E029C085E10E94A1008FEF9FEFECE2D6
:100C400081509040E040E1F700C000008EE392E068
:100C50001AC086E00E94A100FFEF2FEF8CE2F15056
:100C600020408040E1F700C0000086E592E00BC024
:100C700080E20E94A1008C2F0E94FC0380E20E946F
:100C8000A10083E792E00E94E60088B1837F88B9E3
:100C90008DE391E0E1C0923019F00E94F801E2C0CA
:100CA0008091D80680538230B0F58DE391E00E94A8
:100CB000E60089E892E00E94E6008091D8060E9452
:100CC000A10087E992E00E94E6008091D806982F63
:100CD000917080FD02C0439A01C0429AC92ED12C66
:100CE000E12CF12C93E1CC0CDD1CEE1CFF1C9A9541
:100CF000D1F783EA92E00E94E600A7019601405FE7
:100D00005F4FC701B60137C0923039F68091D806DF
:100D10008053823018F00E940402A4C08DE391E059
:100D20000E94E60089EB92E00E94E6008091D806DE
:100D30000E94A10086EC92E00E94E6008091D80615
:100D4000282F217080FD02C0439A01C0429AC22E12
:100D5000D12CE12CF12C83EA92E00E94E600A7015D
:100D6000960183E1220F331F441F551F8A95D1F747
:100D7000CA01B90140960E947C0388B1837F88B97B
:100D800080EB92E069C0923009F087CF8DE391E06B
:100D90000E94E6008091D806813361F0823399F099
:100DA0008033C9F480913B058C7F80933B058EEDA9
:100DB00092E013C080913B058D7F816080933B055D
:100DC0008AEE92E00AC080913B05836080933B05E8
:100DD00085EF92E002C088E093E00E94E60088E29E
:100DE00091E03EC08DE391E00E94E60082E293E054
:100DF0000E94E6008EE293E00E94E60089E393E021
:100E00000E94E6008CE593E00E94E6008FE793E005
:100E10000E94E60085EA93E00E94E6008BEC93E0F6
:100E20000E94E60083EE93E00E94E6008BEF93E0E1
:100E30000E94E60080E294E00E94E60085E494E0EF
:100E40000E94E6008AE594E00E94E6008EE694E0C7
:100E50000E94E6008AE894E00E94E6008AE291E0BF
:100E60000E94E600109236054EC00E94E6008AE21B
:100E700091E0DF91CF911F910F91FF90EF90DF9064
:100E8000CF90BF90AF909F908F907F900C94E60092
:100E900080913605882361F084EA94E00E94E600A0
:100EA00080913605815023C080913605803180F0D5
:100EB00087E0DF91CF911F910F91FF90EF90DF902E
:100EC000CF90BF90AF909F908F907F900C94A10097
:100ED00080EE8C0F8F35B8F48C2F0E94A10080918A
:100EE0003605E82FF0E0E952F94FC0838F5F809319
:100EF000360509C0D1E0C0E0DACDCAE022CEC2E0BA
:100F000020CEC5E01ECEDF91CF911F910F91FF90B3
:100F1000EF90DF90CF90BF90AF909F908F907F9099
:100F200008952F923F924F925F926F927F928F928D
:100F30009F92AF92BF92CF92DF92EF92FF920F9368
:100F40001F93CF93DF93CDB7DEB72C970FB6F894EE
:100F5000DEBF0FBECDBF942F811102C0439A01C0E6
:100F6000429A0AE1609FA0011124052E000C660B35
:100F7000770B490F511D611D711D27E0440F551F4F
:100F8000661F771F2A95D1F790E0A0E0B0E033E12B
:100F9000880F991FAA1FBB1F3A95D1F78C019D019D
:100FA000040F151F261F371F0D831E832F833887BD
:100FB00048015901882410EF9122C0903C05D12CA2
:100FC000E12CF12C4CE0CC0CDD1CEE1CFF1C4A95F6
:100FD000D1F72601370124E0620E711C0E948B02BA
:100FE000C301B2010E94970200E010E0D501C401E4
:100FF0008C199D09AE09BF0989879A87AB87BC8781
:1010000059E4252E56E0352E40E069857A858B859A
:101010009C856C0D7D1D8E1D9F1D0E94D6020E9419
:101020008B02419895E09A95F1F78DEA0E9459025A
:10103000D701C601149689839A83AB83BC838B81C5
:101040000E9459028A810E9459028C2D0E945902E5
:101050008091CB050E9459028091CC050E945902D3
:10106000419A95E09A95F1F70E947C0280FDFCCFB1
:10107000ABECB5E0BA83A9834198B5E0BA95F1F736
:101080008DEA0E945902E981FA8182810E94590207
:10109000A981BA8113968C910E945902419AB5E0B8
:1010A000BA95F1F70E947C0280FDFCCFE981FA81BC
:1010B0003296FA83E9832E163F06F1F64198F5E061
:1010C000FA95F1F784E00E945902419A25E02A95A9
:1010D000F1F70F5F1F4F30E8C30ED11CE11CF11C6C
:1010E0000032110509F090CF0E948B02C501B401B6
:1010F0000E94970273016201612C712C8BE4282EEF
:1011000086E0382E99EC492E95E0592E41988AE0D8
:101110008A95F1F783E00E9459028E2D0E945902B0
:101120008D2D0E9459028C2D0E9459020BEC15E066
:101130001A83098309811A812016310649F080E05B
:101140000E945902A981BA818D93BA83A983F2CFF3
:10115000419A1AE01A95F1F70E948B02419825E016
:101160002A95F1F78DEA0E9459028A2D0E945902B0
:10117000892D0E945902882D0E9459028D819E81DD
:10118000AF81B88588159905AA05BB0539F480910A
:101190004B050E94590280914C0506C08091CB05F9
:1011A0000E9459028091CC050E945902419A95E013
:1011B0009A95F1F70E947C0280FDFCCF0BE415E0CC
:1011C0001A8309830BEC15E0419825E02A95F1F785
:1011D0008DEA0E9459028D819E81AF81B885881564
:1011E0009905AA05BB0549F4A981BA8112968C918B
:1011F0000E945902E981FA8106C0D80112968C91A9
:101200000E945902F80183810E945902419A0E946A
:101210007C0280FDFCCF29813A812E5F3F4F3A83CB
:1012200029830E5F1F4F4216530671F6419835E031
:101230003A95F1F784E00E945902419A85E08A9537
:10124000F1F79FEF691A790AA0E8CA0ED11CE11CD8
:10125000F11CB0E88B0E911CA11CB11CE0E26E16D3
:10126000710409F053CF80913C058F5F80933C055A
:10127000803411F410923C0588B1837F88B980E0F6
:101280002C960FB6F894DEBF0FBECDBFDF91CF9185
:101290001F910F91FF90EF90DF90CF90BF90AF9094
:1012A0009F908F907F906F905F904F903F902F9086
:1012B00008955E985D9A8FEF8093010110923E052C
:1012C00010924105089580E008951F920F920FB685
:1012D0000F9211248F939F9380913A058F5F809393
:1012E0003A0580913805909139050196909339051A
:1012F000809338059F918F910F900FBE0F901F9094
:1013000018955B9A53985A9A5298289A2098299A35
:10131000219A2A9A229A5E9A569A5D9A559A5F9ACB
:10132000579A5C9A549A519A589A509882E08093AE
:10133000C00098ED9093C10096E09093C200109287
:10134000C5009FE09093C400419A399A2C9A249842
:10135000239A259A90E59CBD91E09DBD1092800056
:101360009CE090938100109282002FE736E1309349
:1013700089002093880080936F0078944398429866
:101380003B9A3A9A60E072EC81E090E00E94F200B1
:1013900083E191E00E94E6008BEA94E00E94E6007F
:1013A00082EE94E00E94E60089E095E00E94E6006B
:1013B00083E295E00E94E6002FEF8FE794E0215052
:1013C00080409040E1F700C000000E94F0012FEF44
:1013D0008FEF9CE2215080409040E1F700C0000078
:1013E0005E9880E00E945F02D2E0C1E014E003E07A
:1013F0004A99A8C0809101018F3F69F45E9A5F9A73
:101400000E94100284FB992790F9909342058695DB
:10141000877080930101E09101018E2F90E0883068
:10142000910508F08DC0FC01E35CFF4F0C94C60AE7
:1014300080913E05811106C000933E052A981092C6
:10144000410580C0E0904105F12C0E943202F70175
:10145000E55BFA4F8083809141058F5F8093410562
:10146000803871F56DC08091410587FD21C0809164
:101470003E0581110EC010933E055D9821E32A952B
:10148000F1F7000080914B050E944302C093410593
:1014900017C02A9AE0914105F0E0E55BFA4F8081A0
:1014A0000E944302809141058F5F8093410508C0EF
:1014B0002A9A46C080913E05811104C0C0933E0522
:1014C0002A9840C0813051F40E94100281508093CC
:1014D00040058B3160F4D0933E05F2CF823091F518
:1014E0000E941002682F80933F058D3410F05F98A2
:1014F00027C080910101833059F0863011F082308D
:10150000F9F440914005809142050E94910718C06E
:1015100040914005809142050E94C20311C05D9830
:1015200081E38A95F1F700008091000107C05D9882
:1015300091E39A95F1F7000080913D050E944302E6
:101540000E9459094B9919C040E061E080E00E9477
:10155000C2035E9A2FEF8FE794E0215080409040C5
:10156000E1F700C000005D9821E32A95F1F7000043
:1015700084E80E9443020E9459098091020184FD7F
:1015800037CF0E946B000E94110432CFEE0FFF1F75
:0C1590000590F491E02D0994F894FFCF31
:10159C0084FF50000D0A55415254204649464F20B5
:1015AC004F4B000D0A2D2D2D2D2D0D0A00434C49AE
:1015BC0020737461727465640D0A3E00554E4B4E77
:1015CC004F574E20434F4D4D414E440D0A0D0A00CE
:1015DC00494E434F5252454354204452495645209C
:1015EC004E554D4245520D0A0D0A0050434220768D
:1015FC00312E300D0A00424C442076302E310D0A2B
:10160C00005357202076302E310D0A00534E2020E7
:10161C003330310D0A0053656E64696E6720525881
:10162C000020696D616765206F76657220586D6F5B
:10163C0064656D2E2E2E00446F6E650D0A0052658A
:10164C0063656976696E67205258004552524F5255
:10165C00202D2054494D454F55540D0A00455252EA
:10166C004F52202D20494E434F5252454354205047
:10167C0041434B4554204E554D4245520D0A0045B1
:10168C0052524F52202D20435243204552524F521A
:10169C000D0A004552524F52202D2046494C4520F0
:1016AC00544F4F2053484F52540D0A004552524F3D
:1016BC0052202D20494E434F525245435420504105
:1016CC00434B4554204845414445520D0A00455270
:1016DC00524F52202D2046494C4520544F4F204C00
:1016EC004F4E470D0A005452414E5346455220432B
:1016FC00414E43454C4C454420425920555345528C
:10170C000D0A00534F4D455448494E47204655430A
:10171C004B45442055500D0A004261636B696E675E
:10172C002075702052580020696D6167652E2E2E31
:10173C000D0A00436F7079696E672E2E2E0D0A000C
:10174C00446F6E650D0A0D0A00526573746F7269F1
:10175C006E672052580020696D6167652066726F54
:10176C006D206261636B75702E2E2E0D0A00446520
:10177C00627567206F66660D0A00446562756720A6
:10178C006F6E0D0A00566572626F73652064656238
:10179C007567206F6E0D0A00494E434F52524543F8
:1017AC00542044454255472053455454494E470D07
:1017BC000A00436F6D6D616E64733A0D0A003F2031
:1017CC002D2068656C700D0A00787330202D207305
:1017DC00656E642052583020696D616765206F76A4
:1017EC00657220586D6F64656D0D0A007873312039
:1017FC002D2073656E642052583120696D616765C8
:10180C00206F76657220586D6F64656D0D0A0078D7
:10181C007230202D207265636569766520525830D0
:10182C0020696D616765206F76657220586D6F64F5
:10183C00656D0D0A00787231202D20726563656923
:10184C0076652052583120696D616765206F766529
:10185C007220586D6F64656D0D0A006230202D206A
:10186C006261636B75702052583020696D616765D9
:10187C000D0A006231202D206261636B757020525D
:10188C00583120696D6167650D0A007230202D207A
:10189C00726573746F72652052583020696D616780
:1018AC00652066726F6D206261636B75700D0A0046
:1018BC007231202D20726573746F7265205258310D
:1018CC0020696D6167652066726F6D206261636B64
:1018DC0075700D0A006430202D2064697361626C90
:1018EC00652064656275670D0A006431202D2065E2
:1018FC006E61626C652064656275670D0A00643206
:10190C00202D20656E61626C6520766572626F7346
:10191C00652064656275670D0A0076202D2073685A
:10192C006F772076657273696F6E0D0A0D0A005E13
:10193C00430D0A001B5B441B5B4B0052583031209B
:10194C00647269766520656D756C61746F72206662
:10195C006F72205044502D313120636F6D70617463
:10196C0069626C6520636F6D7075746572732E0D92
:10197C000A005465737465642077697468204D435C
:10198C00313230312E303220616E64204934206285
:10199C006F617264732E0D0A004372656174656425
:1019AC0020627920546563686E6F6D616E63657239
:1019BC000D0A007068616E746F6D2E73616E6E61CE
:0619CC0074612E7275002B
:00000001FF
