:100000000C944E000C946B000C946B000C946B00E1
:100010000C946B000C946B000C946B000C946B00B4
:100020000C946B000C946B000C946B000C94540AB1
:100030000C946B000C946B000C946B000C946B0094
:100040000C946B000C946B000C944E010C946B00A0
:100050000C94A7010C946B000C946B000C946B0037
:100060000C946B000C946B00B005B305B605B90594
:10007000BF05C205BC05C905C5057705E507F40739
:1000800003082108300812084E083F081A0B350BE8
:100090005C0B5C0BA40B910B5C0B990B11241FBE2A
:1000A000CFEFD8E0DEBFCDBF15E0A0E0B1E0E8ECD7
:1000B000F7E102C005900D92A839B107D9F727E002
:1000C000A8E9B5E001C01D92A03EB207E1F70E9489
:1000D000830A0C94E20B0C9400009091C00095FFF1
:1000E000FCCF8093C60008958091020184FD30C04A
:1000F0004091B0055091B105FA01E854F94F808163
:1001000020910201309103012F7D30930301209350
:1001100002014B38510529F41092B1051092B00537
:1001200006C04F5F5F4F5093B1054093B00560919B
:10013000B0057091B1054091B2055091B3056417B7
:10014000750739F42061309303012093020108956B
:1001500080E00895F8949091020196FD37C0909147
:10016000020197FF02C07894FACFF8942091B60567
:100170003091B705F901EC5AF84F80838091020164
:10018000909103018F7B90930301809302012B38A0
:10019000310529F41092B7051092B60506C02F5FFD
:1001A0003F4F3093B7052093B6054091B605509167
:1001B000B7052091B4053091B5054217530761F496
:1001C0008068909303018093020106C09091C00063
:1001D00095FFC5CF8093C600789480E00895CF93B3
:1001E000DF93EC018991882319F00E94AA00FACFCD
:1001F000DF91CF9108958DE00E946D008AE00E940A
:100200006D008DE00E946D008AE00E946D008DE21D
:100210000E946D008DE20E946D008DE20E946D00D3
:100220008DE20E946D008DE20E946D008DE00E94C3
:100230006D008AE00E946D0085E50E946D0081E4FA
:100240000E946D0082E50E946D0084E50E946D00B1
:1002500080E20E946D008FE40E946D008BE40E949A
:100260006D0080E20E946D0081E30E946D0081E3D9
:100270000E946D0085E30E946D0082E30E946D0084
:1002800080E30E946D0080E30E946D0084E091E0B5
:100290000C94EF0080910201807108951F920F92DB
:1002A0000FB60F9211242F933F934F935F938F9329
:1002B0009F93EF93FF934091C6008091020185FFC9
:1002C0000AC080910201909103018860909303011C
:1002D0008093020118952091B2053091B305F90180
:1002E000E854F94F408380910201909103018F7E81
:1002F00090930301809302012B38310529F4109269
:10030000B3051092B20506C02F5F3F4F3093B3057F
:100310002093B2054091B2055091B3052091B005EC
:100320003091B1054217530729F48062909303017D
:1003300080930201FF91EF919F918F915F914F9177
:100340003F912F910F900FBE0F901F9018951F9205
:100350000F920FB60F9211242F933F934F935F93F9
:100360008F939F93EF93FF938091020186FD34C09A
:10037000E091B405F091B505EC5AF84F8081809377
:10038000C60080910201909103018F779093030141
:10039000809302012091B4053091B5052B383105C9
:1003A00029F41092B5051092B40506C02F5F3F4F97
:1003B0003093B5052093B4054091B4055091B5052F
:1003C0002091B6053091B7054217530729F4806490
:1003D0009093030180930201FF91EF919F918F9180
:1003E0005F914F913F912F910F900FBE0F901F90F3
:1003F000189583E191E00E94EF008DE191E00C946B
:10040000EF008DE391E00E94EF008CE291E00E940A
:10041000EF008AE291E00C94EF008DE391E00E94FE
:10042000EF0080E491E00E94EF008AE291E00C94FA
:10043000EF002A9A28E090E080E0880F189902C027
:100440008F5F9F5F5C9835E03A95F1F75C9A3AE0F0
:100450003A95F1F7215089F7189B9F5F90FD0AC0EC
:1004600085E40E946D0082E50E946D0082E50E9495
:100470006D008FEF08952A9A98E080E0880F189B0E
:100480008F5F5C9825E02A95F1F75C9A2AE02A951F
:10049000F1F7915099F7089598E087FD02C0299AE5
:1004A00001C02998880F25E02A95F1F75C9825E08E
:1004B0002A95F1F75C9A2AE02A95F1F7915069F7AD
:1004C000299A08958EBD0DB407FEFDCF8EB508950F
:1004D000CF93C82F41988AE08A95F1F780E50E9472
:1004E0006202419A8AE08A95F1F741988AE08A95FA
:1004F000F1F781E00E9462028C2F0E946202419A11
:100500008AE08A95F1F7CF91089541988AE08A951B
:10051000F1F785E00E94620280E00E946202419A47
:100520009AE09A95F1F7089541988AE08A95F1F753
:1005300086E00E946202419A8AE08A95F1F7089566
:100540001F93CF93DF93EB01182F0E9494020E9418
:10055000850280FDFCCF41988AE08A95F1F780E220
:100560000E946202812F0E9462028D2F0E9462020D
:100570008C2F0E946202419A8AE08A95F1F70E94CC
:10058000850280FDFCCFDF91CF911F910895CF921E
:10059000DF92EF92FF92CF936B017C01C0E4C70121
:1005A000B6010E94A00280E1D80EE11CF11CC150EE
:1005B000B1F7CF91FF90EF90DF90CF900895FF9229
:1005C0000F931F93CF93DF93EB01182FF42E4198D5
:1005D0008AE08A95F1F783E00E946202812F0E94EF
:1005E00062028D2F0E9462028C2F0E946202C8E379
:1005F000D6E008EB15E0F6E0C83BDF0779F080E0D5
:10060000F11004C00E946202888304C00E9462024A
:10061000F801808321960F5F1F4FEDCF419A8AE04A
:100620008A95F1F7DF91CF911F910F91FF90089577
:10063000FF920F931F93CF93DF93EB01182FF42EAC
:100640000E949402419885E08A95F1F78DEA0E9414
:100650006202812F0E9462028D2F0E9462028C2F03
:100660000E946202F11007C0809138060E94620267
:100670008091390606C08091B8050E94620280917F
:10068000B9050E946202419AE5E0EA95F1F70E94FD
:10069000850280FDFCCFC8E3D6E008EB15E0419869
:1006A000F5E0FA95F1F78DEA0E946202F11005C0BB
:1006B0008A810E9462028B8106C0F80182810E94B9
:1006C0006202F80183810E946202419AF5E0FA9584
:1006D000F1F70E94850280FDFCCF22960E5F1F4F2E
:1006E00086E0C63BD807D9F64198E5E0EA95F1F7F0
:1006F00084E00E946202419AF5E0FA95F1F7DF91F9
:10070000CF911F910F91FF9008954F925F926F923A
:100710007F928F929F92AF92BF92CF92DF92EF9291
:10072000FF92CF93DF933B01D82FC92F49015A0184
:10073000CA01B9010E94C7026301ED2EFC2EC0E080
:10074000D8E08C189D08AE08BF08240135014C0C78
:100750005D1C6E1C7F1C40E0C701B6010E94DF02D9
:1007600040E0C301B2010E94180380E8C80ED11C0A
:10077000E11CF11C219749F7DF91CF91FF90EF9099
:10078000DF90CF90BF90AF909F908F907F906F90B1
:100790005F904F9008950F931F93CF93DF93C82FCF
:1007A000811102C0429A01C0439A0AE1609FB001E0
:1007B0001124CB01770FAA0BBB0B840F911DA11D38
:1007C000B11D27E0880F991FAA1FBB1F2A95D1F7DB
:1007D0004C2F50E060E070E033E1440F551F661F7E
:1007E000771F3A95D1F78A019B01080F191F2A1F1D
:1007F0003B1FC901B80141E00E94DF0288B1837F3D
:1008000088B9D0E0CC0FDD1FC356DA4F88819981BB
:1008100001969983888380E0DF91CF911F910F919A
:100820000895CF93C82F82958F708A3010F0895C1D
:1008300001C0805D0E94AA008C2F8F708A3010F05A
:10084000895C01C0805DCF910C94AA00CF92DF92A9
:10085000EF92FF920F931F93CF93DF93EC0184E00D
:10086000F82E00E117E2E12C9AE0C92ED12C20E00D
:10087000C017D10730F02F5FC01BD10BEE24E394DB
:10088000F7CFC801B6010E94C80B8B01EE2019F00A
:1008900080E3820F01C080E20E94AA00FA94F11066
:1008A000E6CF8C2F805DDF91CF911F910F91FF904C
:1008B000EF90DF90CF900C94AA007F928F929F923E
:1008C000AF92BF92CF92DF92EF92FF920F931F935E
:1008D000CF93DF93C82F883009F4B7C28D3041F031
:1008E000833009F0BEC21092980581E095E09AC26B
:1008F00090919805911103C08DE391E093C280918E
:100900004407823609F455C180F4823509F488C160
:1009100038F4823409F44DC1843409F4C1C13BC2B6
:10092000863599F0883531F136C2833709F4E7C14D
:1009300038F4843609F4B4C1823709F471C12BC28A
:10094000863719F08837B1F026C29130A9F48DE3CB
:1009500091E00E94EF008BE591E00E94EF0086E6B7
:1009600091E00E94EF0081E791E00E94EF008CE7A8
:1009700091E04FC2933019F00E94010250C2809161
:100980004507833559F020F4823509F46BC0ACC0BB
:10099000823709F467C0833709F0A6C08091460703
:1009A0008053823018F00E940D02F2C08DE391E076
:1009B0000E94EF0086E891E00E94EF0080914607D8
:1009C0000E94AA0081E991E00E94EF008091460711
:1009D000982F917080FD02C0429A01C0439A892EDF
:1009E000912CA12CB12CE3E1880C991CAA1CBB1CF6
:1009F000EA95D1F71092A6051092A505C1E0D0E0C6
:100A0000F8EBEF2EF6E0FF2E80910201807125E0D9
:100A10002A95F1F781111AC00E947400853109F4FA
:100A200047C2833009F44CC3863081F480E8880ED5
:100A3000911CA11CB11C1092A6051092A50521962F
:100A4000C33D97E0D90709F033C23CC38091A505A7
:100A50009091A6058C329140B8F2C3E088B1837FB3
:100A600088B973C08DE391E00E94EF0087EA91E0BE
:100A70000E94EF00809146070E94AA0081E991E060
:100A80000E94EF0080914607F82FF170FF2E80FD45
:100A900002C0429A01C0439A60E070E08CE090E0AE
:100AA0000E94C7021092A6051092A50585E10E943A
:100AB000AA00809102018071E6E6FEE03197F1F72D
:100AC000000081110AC0D0E0E12C01E010E0812C8F
:100AD000912C7CE0A72EB12C35C28091A505909178
:100AE000A6054E9730F3DECF0E94010251C08F2D34
:100AF00090E0A0E0B0E09C01AD0163E1220F331F64
:100B0000441F551F6A95D1F760E070E08CE090E0DB
:100B10000E94850386E00E94AA00EFEFFFEF2CE21F
:100B2000E150F0402040E1F700C0000084EB91E08C
:100B30000E94EF0088B1837F88B98DE391E00E9425
:100B4000EF008AE291E00E94EF008C2F90E0FC0120
:100B50003297E930F105E8F4EC5CFF4F0C94DC0BC4
:100B600084EB91E021C08BEB91E01EC08DEC91E015
:100B70001BC08FEE91E018C083E092E015C08CE1BD
:100B800092E012C08EE392E00FC086E592E00CC0C6
:100B9000C0E080E20E94AA008C2F0E94110480E233
:100BA0000E94AA0083E792E00E94EF008DE391E0AB
:100BB00030C1923009F0E0CE8091450780538230F9
:100BC000B8F58DE391E00E94EF0089E892E00E9481
:100BD000EF00809145070E94AA0087E992E00E94F9
:100BE000EF0080914507982F917080FD02C0429AD6
:100BF00001C0439AC92ED12CE12CF12C93E1CC0CED
:100C0000DD1CEE1CFF1C9A95D1F783EA92E00E944E
:100C1000EF00A7019601405F5F4FC701B60138C0E2
:100C2000923009F0A9CE809145078053823018F0A8
:100C30000E940D02F4C08DE391E00E94EF0089EB69
:100C400092E00E94EF00809145070E94AA0086EC86
:100C500092E00E94EF0080914507282F217080FDCF
:100C600002C0429A01C0439AC22ED12CE12CF12C31
:100C700083EA92E00E94EF00A701960183E1220F30
:100C8000331F441F551F8A95D1F7CA01B9014096F9
:100C90000E94850388B1837F88B980EB92E0B9C058
:100CA000923009F069CE8DE391E00E94EF008091CF
:100CB0004507813361F0823399F08033C9F4809124
:100CC000A8058C7F8093A8058EED92E013C08091DB
:100CD000A8058D7F81608093A8058AEE92E00AC006
:100CE0008091A80583608093A80585EF92E002C0FB
:100CF00088E093E00E94EF0088E291E08EC091309E
:100D000009F03ACE8DE391E00E94EF0082E293E099
:100D10000E94EF0088E393E00E94EF0080919A0523
:100D200090919B050E94260481E493E00E94EF00CD
:100D300085E493E00E94EF008DE593E00E94EF00D0
:100D40008091A1059091A2050E94260486E693E079
:100D50000E94EF0080919D0590919E050E942604BF
:100D60008DE391E00E94EF0088E693E00E94EF009F
:100D70008091A3059091A4050E94260486E693E045
:100D80000E94EF0080919F059091A0050E9426048B
:100D90008DE391E0AFCF8DE391E00E94EF0083E718
:100DA00093E00E94EF008FE793E00E94EF008AE853
:100DB00093E00E94EF008DEA93E00E94EF0080ED47
:100DC00093E00E94EF0086EF93E00E94EF008CE139
:100DD00094E00E94EF0084E394E00E94EF008CE432
:100DE00094E00E94EF0081E794E00E94EF0086E922
:100DF00094E00E94EF008BEA94E00E94EF008FEBFA
:100E000094E00E94EF008BED94E00E94EF008EEEE4
:100E100094E00E94EF008AE291E00E94EF001092BD
:100E200098055EC10E94EF008AE291E0DF91CF91C8
:100E30001F910F91FF90EF90DF90CF90BF90AF90F8
:100E40009F908F907F900C94EF008091980588235D
:100E500061F086E095E00E94EF0080919805815056
:100E600024C080919805803180F087E0DF91CF9198
:100E70001F910F91FF90EF90DF90CF90BF90AF90B8
:100E80009F908F907F900C94AA0080EE8C0F8F35EE
:100E900008F026C18C2F0E94AA0080919805E82FA7
:100EA000F0E0EC5BF84FC0838F5F8093980518C12A
:100EB00040E0C501B4010E94DF0281E00E94AA0067
:100EC0008C2F0E94AA008C2F80950E94AA0008E314
:100ED00016E0712CE016F10651F06801F8018191DD
:100EE0008F010E94AA00F6018081780EF3CF872D32
:100EF0000E94AA0089CD40E0C501B4010E941803F8
:100F00000F5F1F4F90E8890E911CA11CB11C86E059
:100F10000E94AA00D0E0E12CC1E080910201807122
:100F2000F5E0FA95F1F7811141C00E947400D130CB
:100F3000E9F050F4833009F4BDC0843089F0813089
:100F4000A9F5D1E0C0E0E9CFD230B9F0D338F9F05B
:100F5000ED2FF0E0EB5CF94F8083E80EDF5F26C0F9
:100F6000023D174008F0A8C0C8E023C090E09801F7
:100F700033278217930749F416C090E09801209513
:100F8000309533278217930781F0C4E012C0E8122E
:100F900095C0033D87E0180708F4ADCF85E10E94B6
:100FA000AA00C7E006C0D2E001C0D3E0C23008F416
:100FB000B4CF8C2F90E0FC013297E930F10508F0B6
:100FC0006DC0E35CFF4F0C94DC0B86E00E94AA002E
:100FD0008FEF9FEFECE281509040E040E1F700C0DE
:100FE00000008BEB91E0A4CD86E00E94AA00FFEF09
:100FF0002FEF8CE2F15020408040E1F700C000006C
:101000008DEC91E095CD86E00E94AA009FEFEFEF76
:10101000FCE29150E040F040E1F700C000008FEEAC
:1010200091E086CD86E00E94AA002FEF8FEF9CE230
:10103000215080409040E1F700C0000083E092E042
:1010400077CD86E00E94AA00EFEFFFEF2CE2E1509F
:10105000F0402040E1F700C000008CE192E068CD54
:1010600085E10E94AA008FEF9FEFECE28150904053
:10107000E040E1F700C000008EE392E059CD86E049
:101080000E94AA00FFEF2FEF8CE2F1502040804039
:10109000E1F700C0000086E592E04ACD80E20E94C0
:1010A000AA008C2F0E94110480E20E94AA0083E70C
:1010B00092E03ECDCAE07DCFC2E07BCFC5E079CFE4
:1010C000CAE0CCCC84E00E94AA009FEFEFEFF9E5E4
:1010D0009150E040F040E1F700C00000C2E0BECC1B
:1010E000DF91CF911F910F91FF90EF90DF90CF9004
:1010F000BF90AF909F908F907F9008952F923F92D6
:101100004F925F926F927F928F929F92AF92BF9217
:10111000CF92DF92EF92FF920F931F93CF93DF93C3
:10112000CDB7DEB72D970FB6F894DEBF0FBECDBF9B
:101130008D83811102C0429A01C0439A2AE1629FC5
:10114000C0011124092E000CAA0BBB0B840F911DAA
:10115000A11DB11D27E0880F991FAA1FBB1F2A954B
:10116000D1F73D81432F50E060E070E033E1440F60
:10117000551F661F771F3A95D1F71A012B01280ECC
:10118000391E4A1E5B1E52014101882480EF9822BD
:10119000C090A905D12CE12CF12C4CE0CC0CDD1C2D
:1011A000EE1CFF1C4A95D1F7D701C60114968E8319
:1011B0009F83A887B9870E9494026E817F8188856A
:1011C00099850E94A00200E010E0D501C4018C19AD
:1011D0009D09AE09BF098A879B87AC87BD8756EBFF
:1011E000652E56E0752E40E06A857B858C859D8551
:1011F0006C0D7D1D8E1D9F1D0E94DF020E949402BA
:10120000419895E09A95F1F78DEA0E946202D70124
:10121000C601149689839A83AB83BC838B810E9419
:1012200062028A810E9462028C2D0E946202809179
:1012300038060E946202809139060E946202419A39
:1012400095E09A95F1F70E94850280FDFCCFA8E316
:10125000B6E0BA83A9834198B5E0BA95F1F78DEA73
:101260000E946202E981FA8182810E946202A98160
:10127000BA8113968C910E946202419AB5E0BA95A8
:10128000F1F70E94850280FDFCCFE981FA81329658
:10129000FA83E9836E167F06F1F64198F5E0FA9538
:1012A000F1F784E00E946202419A25E02A95F1F765
:1012B0000F5F1F4F30E8C30ED11CE11CF11C003240
:1012C000110509F090CF0E949402C501B4010E945B
:1012D000A002CE80DF80E884F984612C712C4198D3
:1012E0008AE08A95F1F783E00E9462028E2D0E94C7
:1012F00062028D2D0E9462028C2D0E946202A8E380
:10130000B6E0BA83A98328EB36E089819A81281751
:10131000390749F080E00E946202E981FA818193F5
:10132000FA83E983F0CF419A9AE09A95F1F70E9407
:1013300094024198A5E0AA95F1F78DEA0E94620215
:101340008A2D0E946202892D0E946202882D0E94CD
:101350006202281439044A045B0439F48091B80508
:101360000E9462028091B90506C0809138060E94F1
:101370006202809139060E946202419AB5E0BA95F4
:10138000F1F70E94850280FDFCCFE8EBF5E0FA83DF
:10139000E98308E316E04198F5E0FA95F1F78DEA64
:1013A0000E946202281439044A045B0449F4A981AA
:1013B000BA8112968C910E946202E981FA8106C07C
:1013C000D80112968C910E946202F80183810E94DA
:1013D0006202419A0E94850280FDFCCF29813A81F8
:1013E0002E5F3F4F3A8329830E5F1F4F86E396E0BF
:1013F0008217930781F6419895E09A95F1F784E07A
:101400000E946202419AA5E0AA95F1F7BFEF6B1A1C
:101410007B0AE0E8CE0ED11CE11CF11CF0E88F0E37
:10142000911CA11CB11C20E26216710409F057CF77
:101430008091A9058F5F8093A905803411F41092E3
:10144000A9053D81E32FF0E0EE0FFF1FEF55FA4FA6
:101450008081918101969183808388B1837F88B94F
:1014600080E02D960FB6F894DEBF0FBECDBFDF91A2
:10147000CF911F910F91FF90EF90DF90CF90BF9091
:10148000AF909F908F907F906F905F904F903F9024
:101490002F9008955E985D9A8FEF809301011092CE
:1014A000AB051092AE0508951F920F920FB60F92E2
:1014B00011248F939F938091A7058F5F8093A70539
:1014C0008091A5059091A60501969093A60580931D
:1014D000A50580919C058F5F8A3019F080939C054B
:1014E0000BC010929C0580919A0590919B050196E6
:1014F00090939B0580939A059F918F910F900FBEBB
:101500000F901F9018955B9A53985A9A5298289A60
:101510002098299A219A2A9A229A5E9A569A5D9A36
:10152000559A5F9A579A5C9A549A519A589A509839
:1015300082E08093C00098ED9093C10096E0909374
:10154000C2001092C5009FE09093C400419A399A5E
:101550002C9A2498239A259A90E59CBD91E09DBDF4
:10156000109280009CE090938100109282002FE7FF
:1015700036E1309389002093880080936F0078943F
:10158000429843983A9A3B9A60E072EC81E090E08E
:101590000E94FB0083E191E00E94EF008DE095E066
:1015A0000E94EF0084E495E00E94EF008BE695E056
:1015B0000E94EF0085E895E00E94EF002FEF8FE793
:1015C00094E0215080409040E1F700C000000E946C
:1015D000F9012FEF8FEF9CE2215080409040E1F71E
:1015E00000C000005E9880E00E946802D2E0C1E086
:1015F00014E003E04A99A8C0809101018F3F69F48B
:101600005E9A5F9A0E94190284FB992790F9909341
:10161000AF058695877080930101E09101018E2FBF
:1016200090E08830910508F08DC0FC01EA5BFF4F27
:101630000C94DC0B8091AB05811106C00093AB05C7
:101640002A981092AE0580C0E090AE05F12C0E9461
:101650003B02F701E854FA4F80838091AE058F5F1B
:101660008093AE05803871F56DC08091AE0587FD21
:1016700021C08091AB0581110EC01093AB055D9820
:1016800021E32A95F1F700008091B8050E944C02F1
:10169000C093AE0517C02A9AE091AE05F0E0E85479
:1016A000FA4F80810E944C028091AE058F5F80933B
:1016B000AE0508C02A9A46C08091AB05811104C0CE
:1016C000C093AB052A9840C0813051F40E941902A2
:1016D00081508093AD058B3160F4D093AB05F2CF90
:1016E000823091F50E941902682F8093AC058D34E9
:1016F00010F05F9827C080910101833059F0863047
:1017000011F08230F9F44091AD058091AF050E944F
:101710007E0818C04091AD058091AF050E94CB03B3
:1017200011C05D9881E38A95F1F700008091000176
:1017300007C05D9891E39A95F1F700008091AA05A2
:101740000E944C020E944A0A4B9919C040E061E095
:1017500080E00E94CB035E9A2FEF8FE794E0215048
:1017600080409040E1F700C000005D9821E32A9599
:10177000F1F7000084E80E944C020E944A0A80911E
:10178000020184FD37CF0E9474000E945D0432CFB5
:10179000AA1BBB1B51E107C0AA1FBB1FA617B70797
:1017A00010F0A61BB70B881F991F5A95A9F78095B3
:1017B0009095BC01CD010895EE0FFF1F0590F491A7
:0817C000E02D0994F894FFCF1D
:1017C80084FF50000D0A55415254204649464F2087
:1017D8004F4B000D0A2D2D2D2D2D0D0A00434C4980
:1017E80020737461727465640D0A3E00554E4B4E49
:1017F8004F574E20434F4D4D414E440D0A0D0A00A0
:10180800494E434F5252454354204452495645206D
:101818004E554D4245520D0A0D0A0050434220765E
:10182800312E300D0A00424C442076302E310D0AFC
:10183800005357202076302E310D0A00534E2020B9
:101848003330310D0A0053656E64696E6720525853
:101858000020696D616765206F76657220586D6F2D
:1018680064656D2E2E2E00526563656976696E6714
:1018780020525800446F6E650D0A004552524F526F
:10188800202D2054494D454F55540D0A00455252BC
:101898004F52202D20494E434F5252454354205019
:1018A80041434B4554204E554D4245520D0A004583
:1018B80052524F52202D20435243204552524F52EC
:1018C8000D0A004552524F52202D2046494C4520C2
:1018D800544F4F2053484F52540D0A004552524F0F
:1018E80052202D20494E434F5252454354205041D7
:1018F800434B4554204845414445520D0A00455242
:10190800524F52202D2046494C4520544F4F204CD1
:101918004F4E470D0A005452414E534645522043FC
:10192800414E43454C4C454420425920555345525D
:101938000D0A00534F4D455448494E4720465543DC
:101948004B45442055500D0A004261636B696E6730
:101958002075702052580020696D6167652E2E2E03
:101968000D0A00436F7079696E672E2E2E0D0A00DE
:10197800446F6E650D0A0D0A00526573746F7269C3
:101988006E672052580020696D6167652066726F26
:101998006D206261636B75702E2E2E0D0A004465F2
:1019A800627567206F66660D0A0044656275672078
:1019B8006F6E0D0A00566572626F7365206465620A
:1019C8007567206F6E0D0A00494E434F52524543CA
:1019D800542044454255472053455454494E470DD9
:1019E8000A0053657373696F6E2073746174697349
:1019F800746963733A0D0A00557074696D653A200D
:101A080000730D0A00536563746F727320777269EF
:101A18007474656E2020726561640D0A0044583044
:101A28003A202020202020004458313A202020202D
:101A3800202000436F6D6D616E64733A0D0A003F9C
:101A4800202D2068656C700D0A00787330202D20D9
:101A580073656E642052583020696D616765206F28
:101A680076657220586D6F64656D0D0A0078733164
:101A7800202D2073656E642052583120696D61678E
:101A880065206F76657220586D6F64656D0D0A006C
:101A9800787230202D20726563656976652052580A
:101AA8003020696D616765206F76657220586D6FAB
:101AB80064656D0D0A00787231202D2072656365AA
:101AC8006976652052583120696D616765206F76A7
:101AD800657220586D6F64656D0D0A006230202DA7
:101AE800206261636B75702052583020696D6167A0
:101AF800650D0A006231202D206261636B757020CC
:101B080052583120696D6167650D0A007230202DC9
:101B180020726573746F72652052583020696D6148
:101B280067652066726F6D206261636B75700D0A60
:101B3800007231202D20726573746F7265205258BF
:101B48003120696D6167652066726F6D206261631F
:101B58006B75700D0A006430202D20646973616212
:101B68006C652064656275670D0A006431202D205C
:101B7800656E61626C652064656275670D0A006454
:101B880032202D20656E61626C6520766572626F09
:101B980073652064656275670D0A0076202D2073D1
:101BA800686F772076657273696F6E0D0A0073200F
:101BB8002D20737461746973746963730D0A0D0A57
:101BC800005E430D0A001B5B441B5B4B0052583000
:101BD8003120647269766520656D756C61746F7209
:101BE80020666F72205044502D313120636F6D7024
:101BF800617469626C6520636F6D7075746572736A
:101C08002E0D0A0054657374656420776974682022
:101C18004D43313230312E303220616E64204934E8
:101C280020626F617264732E0D0A004372656174DD
:101C3800656420627920546563686E6F6D616E63B8
:101C480065720D0A007068616E746F6D2E73616E37
:081C58006E6174612E727500CB
:00000001FF
