:100000000C9445000C9462000C9462000C94620005
:100010000C9462000C9462000C9462000C946200D8
:100020000C9462000C9462000C9462000C94180A08
:100030000C9462000C9462000C9462000C946200B8
:100040000C9462000C9462000C9445010C946200C4
:100050000C949E010C9462000C9462000C9462005B
:100060000C9462000C946200140617061A061D0612
:100070002306260620062D062906F60A420B880BC3
:10008000880BF30BE00B880BE80B11241FBECFEF9E
:10009000D8E0DEBFCDBF15E0A0E0B1E0E6E7F8E1D3
:1000A00002C005900D92A837B107D9F727E0A8E75D
:1000B000B5E001C01D92A23CB207E1F70E94470AD9
:1000C0000C94390C0C9400009091C00095FFFCCF6B
:1000D0008093C60008958091020184FD30C0409154
:1000E000920550919305FA01E656F94F80812091CF
:1000F0000201309103012F7D30930301209302010F
:100100004B38510529F4109293051092920506C0C0
:100110004F5F5F4F50939305409392056091920516
:10012000709193054091940550919505641775075A
:1001300039F420613093030120930201089580E097
:100140000895F8949091020196FD37C090910201B4
:1001500097FF02C07894FACFF894209198053091D7
:100160009905F901EA5CF84F808380910201909132
:1001700003018F7B90930301809302012B3831059B
:1001800029F4109299051092980506C02F5F3F4FF1
:1001900030939905209398054091980550919905C1
:1001A00020919605309197054217530761F48068B6
:1001B000909303018093020106C09091C00095FFC7
:1001C000C5CF8093C600789480E00895CF93DF93E5
:1001D000EC018991882319F00E94A100FACFDF91E8
:1001E000CF9108958DE00E9464008AE00E9464002F
:1001F0008DE00E9464008AE00E9464008DE20E940B
:1002000064008DE20E9464008DE20E9464008DE231
:100210000E9464008DE20E9464008DE00E946400F0
:100220008AE00E94640085E50E94640081E40E94E7
:10023000640082E50E94640084E50E94640080E21C
:100240000E9464008FE40E9464008BE40E946400BA
:1002500080E20E94640081E30E94640081E30E94C6
:10026000640085E30E94640082E30E94640080E3EE
:100270000E94640080E30E94640084E091E00C949A
:10028000E60080910201807108951F920F920FB6CF
:100290000F9211242F933F934F935F938F939F93CC
:1002A000EF93FF934091C6008091020185FF0AC041
:1002B00080910201909103018860909303018093E3
:1002C000020118952091940530919505F901E656A3
:1002D000F94F408380910201909103018F7E9093AA
:1002E0000301809302012B38310529F41092950502
:1002F0001092940506C02F5F3F4F309395052093D1
:100300009405409194055091950520919205309166
:1003100093054217530729F4806290930301809359
:100320000201FF91EF919F918F915F914F913F91CA
:100330002F910F900FBE0F901F9018951F920F9244
:100340000FB60F9211242F933F934F935F938F9388
:100350009F93EF93FF938091020186FD34C0E0915B
:100360009605F0919705EA5CF84F80818093C6006E
:1003700080910201909103018F7790930301809304
:10038000020120919605309197052B38310529F40B
:10039000109297051092960506C02F5F3F4F30933D
:1003A00097052093960540919605509197052091C9
:1003B0009805309199054217530729F4806490936A
:1003C000030180930201FF91EF919F918F915F91C3
:1003D0004F913F912F910F900FBE0F901F90189546
:1003E00083E191E00E94E6008DE191E00C94E6004B
:1003F0008DE391E00E94E6008CE291E00E94E6002D
:100400008AE291E00C94E6008DE391E00E94E60020
:1004100080E491E00E94E6008AE291E00C94E6001C
:100420002A9A28E090E080E0880F189902C08F5F38
:100430009F5F5C9835E03A95F1F75C9A3AE03A951F
:10044000F1F7215089F7189B9F5F90FD0AC085E462
:100450000E94640082E50E94640082E50E946400BC
:100460008FEF08952A9A98E080E0880F189B8F5F9D
:100470005C9825E02A95F1F75C9A2AE02A95F1F735
:10048000915099F7089598E087FD02C0299A01C01C
:100490002998880F25E02A95F1F75C9825E02A95A0
:1004A000F1F75C9A2AE02A95F1F7915069F7299AB9
:1004B00008958EBD0DB407FEFDCF8EB50895CF9380
:1004C000C82F41988AE08A95F1F780E50E94590289
:1004D000419A8AE08A95F1F741988AE08A95F1F786
:1004E00081E00E9459028C2F0E945902419A8AE0B1
:1004F0008A95F1F7CF91089541988AE08A95F1F7AE
:1005000085E00E94590280E00E945902419A9AE0D7
:100510009A95F1F7089541988AE08A95F1F786E077
:100520000E945902419A8AE08A95F1F708951F9333
:10053000CF93DF93EB01182F0E948B020E947C0265
:1005400080FDFCCF41988AE08A95F1F780E20E9415
:100550005902812F0E9459028D2F0E9459028C2F1F
:100560000E945902419A8AE08A95F1F70E947C0222
:1005700080FDFCCFDF91CF911F910895CF92DF9244
:10058000EF92FF92CF936B017C01C0E4C701B601EB
:100590000E94970280E1D80EE11CF11CC150B1F716
:1005A000CF91FF90EF90DF90CF900895FF920F933F
:1005B0001F93CF93DF93EB01182FF42E41988AE01D
:1005C0008A95F1F783E00E945902812F0E94590217
:1005D0008D2F0E9459028C2F0E945902CAE1D6E049
:1005E0000AE915E0F6E0CA39DF0779F080E0F1109A
:1005F00004C00E945902888304C00E945902F80175
:10060000808321960F5F1F4FEDCF419A8AE08A9534
:10061000F1F7DF91CF911F910F91FF900895FF9215
:100620000F931F93CF93DF93EB01182FF42E0E94AB
:100630008B02419885E08A95F1F78DEA0E94590274
:10064000812F0E9459028D2F0E9459028C2F0E94E7
:100650005902F11007C080911A060E945902809138
:100660001B0606C080919A050E94590280919B0545
:100670000E945902419AE5E0EA95F1F70E947C0256
:1006800080FDFCCFCAE1D6E00AE915E04198F5E02B
:10069000FA95F1F78DEA0E945902F11005C08A819E
:1006A0000E9459028B8106C0F80182810E94590282
:1006B000F80183810E945902419AF5E0FA95F1F719
:1006C0000E947C0280FDFCCF22960E5F1F4F86E0C9
:1006D000C839D807D9F64198E5E0EA95F1F784E002
:1006E0000E945902419AF5E0FA95F1F7DF91CF9116
:1006F0001F910F91FF9008954F925F926F927F929A
:100700008F929F92AF92BF92CF92DF92EF92FF9221
:10071000CF93DF933B01D82FC92F49015A01CA015A
:10072000B9010E94BE026301ED2EFC2EC0E0D8E0AC
:100730008C189D08AE08BF08240135014C0C5D1CC7
:100740006E1C7F1C40E0C701B6010E94D60240E04B
:10075000C301B2010E940F0380E8C80ED11CE11C46
:10076000F11C219749F7DF91CF91FF90EF90DF9037
:10077000CF90BF90AF909F908F907F906F905F9041
:100780004F9008950F931F93CF93DF93C82F81113C
:1007900002C0429A01C0439A0AE1609FB00111244D
:1007A000CB01770FAA0BBB0B840F911DA11DB11DAF
:1007B00027E0880F991FAA1FBB1F2A95D1F74C2F3E
:1007C00050E060E070E033E1440F551F661F771F73
:1007D0003A95D1F78A019B01080F191F2A1F3B1F69
:1007E000C901B80141E00E94D60288B1837F88B96F
:1007F000D0E0CC0FDD1FC158DA4F88819981019676
:100800009983888380E0DF91CF911F910F910895A4
:10081000CF93C82F82958F708A3010F0895C01C009
:10082000805D0E94A1008C2F8F708A3010F0895C4F
:1008300001C0805DCF910C94A100AF92BF92DF9276
:10084000EF92FF920F931F93CF93DF93EC01D62E7D
:1008500084E0F82E00E117E2E12C9AE0A92EB12CF9
:1008600020E0C017D10730F02F5FC01BD10BEE2462
:10087000E394F7CFC801B5010E941F0C8B01EE2055
:1008800019F080E3820F03C0DD2019F080E20E949E
:10089000A100FA94F110E4CF8C2F805DDF91CF910D
:1008A0001F910F91FF90EF90DF90BF90AF900C944D
:1008B000A1008F929F92AF92BF92CF92DF92EF9260
:1008C000FF920F931F93CF93DF93C82F883009F4C3
:1008D00054C38D3041F0833009F05BC3109278052A
:1008E0008CED94E038C390917805911103C08DE3AD
:1008F00091E031C380912607823609F4BEC180F4AD
:10090000823509F4F1C138F4823409F4B6C1843473
:1009100009F42AC2D9C2863599F0883549F1D4C282
:10092000833709F450C238F4843609F41DC2823783
:1009300009F4DAC1C9C2863719F08837C9F0C4C2D0
:100940009130C1F48DE391E00E94E600C0E0D0E078
:10095000D2BDC1BDF89A80B58F3718F480B50E941A
:10096000A1002196C038D10599F78BE391E0EAC246
:10097000933019F00E94F801EBC28091270783356C
:1009800059F020F4823509F46BC047C1823709F46D
:1009900067C0833709F041C18091280780538230B6
:1009A00018F00E94040258C18DE391E00E94E60015
:1009B0008BE591E00E94E600809128070E94A1004B
:1009C00086E691E00E94E60080912807982F9170BA
:1009D00080FD02C0429A01C0439AC92ED12CE12C5D
:1009E000F12CE3E1CC0CDD1CEE1CFF1CEA95D1F7E9
:1009F0001092880510928705C1E0D0E0912C80917B
:100A00000201807125E02A95F1F7811120C00E9432
:100A10006B00853131F4939439E0391508F417C32C
:100A2000DEC2833009F415C3863089F480E8C80E2D
:100A3000D11CE11CF11C10928805109287052196AB
:100A4000C33D97E0D90709F4F4C2912CC8C2809144
:100A50008705909188058C32914088F2C3E0D2C01E
:100A6000809128078053823008F09BCF8DE391E07E
:100A70000E94E6008CE791E00E94E6008091280742
:100A80000E94A10086E691E00E94E600809128077E
:100A9000282F2170F22E80FD02C0429A01C0439A95
:100AA00060E070E08CE090E00E94BE021092880549
:100AB0001092870585E10E94A100D0E0E12C812CF5
:100AC000912C7CE0A72EB12C01E010E0C0E08091D9
:100AD00002018071D82E35E03A95F1F780918705B3
:100AE000909188054E9738F01092880510928705EE
:100AF00085E10E94A100D11055C010928805109286
:100B000087050E946B00D130D9F060F0D230F9F047
:100B1000D33839F1ED2FF0E0E95EF94F8083E80E2C
:100B2000DF5F40C0833009F460C0843019F0813049
:100B3000C9F579C2023D174008F077C2C8E056C037
:100B400090E0980133278217930749F428C090E07A
:100B500098012095309533278217930711F1C4E04F
:100B600045C0E81264C2033D97E0190728F085E10B
:100B70000E94A100C7E03AC040E0C501B4010E9454
:100B80000F030F5F1F4FE0E88E0E911CA11CB11CDC
:100B900086E00E94A100D0E0E12CC1E098CFD2E035
:100BA00001C0D3E0C23008F492CFC230F9F48F2DE7
:100BB00090E0A0E0B0E09C01AD0163E1220F331FA3
:100BC000441F551F6A95D1F760E070E08CE090E01B
:100BD0000E947C0386E00E94A100FFEF2FEF3CE221
:100BE000F15020403040E1F70BC0CAE086E00E949F
:100BF000A1008FEF9FEFECE281509040E040E1F7E1
:100C000000C0000088B1837F88B98C2F90E0FC0180
:100C10003297E930F10508F503C00E94F8011CC0C5
:100C2000EC5CFF4F0C94330C89E891E021C080E923
:100C300091E01EC082EA91E01BC084EC91E018C0F4
:100C400088ED91E015C081EF91E012C083E192E060
:100C50000FC08BE292E00CC0C0E080E20E94A100D5
:100C60008C2F0E94080480E20E94A10088E492E098
:100C70000E94E6008DE391E065C1923009F07ACEE2
:100C80008091270780538230B8F58DE391E00E9470
:100C9000E6008EE592E00E94E600809127070E9420
:100CA000A1008CE692E00E94E60080912707982F31
:100CB000917080FD02C0429A01C0439AC92ED12C86
:100CC000E12CF12C93E1CC0CDD1CEE1CFF1C9A9561
:100CD000D1F788E792E00E94E600A7019601405F05
:100CE0005F4FC701B60138C0923009F043CE809102
:100CF00027078053823018F00E94040229C18DE337
:100D000091E00E94E6008EE892E00E94E600809169
:100D100027070E94A1008BE992E00E94E6008091E3
:100D20002707282F217080FD02C0429A01C0439AF4
:100D3000C22ED12CE12CF12C88E792E00E94E60033
:100D4000A701960183E1220F331F441F551F8A9587
:100D5000D1F7CA01B90140960E947C0388B1837F14
:100D600088B985E892E0EEC0923009F003CE8DE3B9
:100D700091E00E94E60080912707813361F0823381
:100D800099F08033C9F480918A058C7F80938A051D
:100D900083EB92E013C080918A058D7F8160809300
:100DA0008A058FEB92E00AC080918A058360809368
:100DB0008A058AEC92E002C08DED92E00E94E60086
:100DC00088E291E0C3C0913009F0D4CD8DE391E089
:100DD0000E94E60087EF92E00E94E6008DE093E03B
:100DE0000E94E600C0917C05D0917D0500E11EE0E7
:100DF000CE01B8010E941F0C7B0160E0C7010E9478
:100E00001D0486E193E00E94E600E09EC001E19EA1
:100E1000900DF09E900D1124C81BD90BCE016CE3F0
:100E200070E00E941F0C8B0160E0C8010E941D044D
:100E300089E193E00E94E6002CE3209FC001219FFE
:100E4000900D112460E09E01281B390BC9010E94FE
:100E50001D048CE193E00E94E60080E293E00E9492
:100E6000E60088E393E00E94E60061E0809183055C
:100E7000909184050E941D0481E493E00E94E600A5
:100E800061E080917F05909180050E941D048DE3B3
:100E900091E00E94E60083E493E00E94E60061E0B6
:100EA00080918505909186050E941D0481E493E060
:100EB0000E94E60061E080918105909182050E9488
:100EC0001D048DE391E07ACF8DE391E00E94E6006E
:100ED0008EE493E00E94E6008AE593E00E94E6003B
:100EE00085E693E00E94E60088E893E00E94E60031
:100EF0008BEA93E00E94E60081ED93E00E94E60019
:100F000087EF93E00E94E6008FE094E00E94E60005
:100F100087E294E00E94E6008CE494E00E94E60000
:100F200081E794E00E94E60086E894E00E94E600F3
:100F30008AE994E00E94E60086EB94E00E94E600D5
:100F400089EC94E00E94E6008AE291E00E94E600CB
:100F50001092780580C00E94E6008AE291E0DF915D
:100F6000CF911F910F91FF90EF90DF90CF90BF90A6
:100F7000AF909F908F900C94E60080917805882325
:100F800061F081EE94E00E94E60080917805815046
:100F900023C080917805803178F087E0DF91CF9190
:100FA0001F910F91FF90EF90DF90CF90BF90AF9087
:100FB0009F908F900C94A10080EE8C0F8F3508F0DD
:100FC0004AC08C2F0E94A10080917805E82FF0E0A4
:100FD000EA5DF84FC0838F5F809378053CC040E0A6
:100FE000C701B6010E94D60281E00E94A1008C2FA9
:100FF0000E94A1008C2F80950E94A1000AE116E0BA
:10100000812CF6E00A391F0751F05801F80181914F
:101010008F010E94A100F5018081880EF2CF882DFA
:101020000E94A100ECCCD1E051CDC2E0C0CDC5E022
:10103000DDCD84E00E94A1003FEF8FEF99E53150B4
:1010400080409040E1F700C00000C2E0DBCDCBE083
:10105000D9CDCAE0D7CDDF91CF911F910F91FF90ED
:10106000EF90DF90CF90BF90AF909F908F900895BA
:101070002F923F924F925F926F927F928F929F92A8
:10108000AF92BF92CF92DF92EF92FF920F931F9396
:10109000CF93DF93CDB7DEB72D970FB6F894DEBFB1
:1010A0000FBECDBF8D83811102C0429A01C0439A09
:1010B0002AE1629FC0011124092E000CAA0BBB0B70
:1010C000840F911DA11DB11D27E0880F991FAA1F34
:1010D000BB1F2A95D1F73D81432F50E060E070E0BF
:1010E00033E1440F551F661F771F3A95D1F71A0158
:1010F0002B01280E391E4A1E5B1E52014101882415
:1011000080EF9822C0908B05D12CE12CF12C4CE083
:10111000CC0CDD1CEE1CFF1C4A95D1F7D701C60193
:1011200014968E839F83A887B9870E948B026E8155
:101130007F81888599850E94970200E010E0D501A3
:10114000C4018C199D09AE09BF098A879B87AC87AA
:10115000BD8758E9652E56E0752E40E06A857B858F
:101160008C859D856C0D7D1D8E1D9F1D0E94D60258
:101170000E948B02419895E09A95F1F78DEA0E94C2
:101180005902D701C601149689839A83AB83BC8325
:101190008B810E9459028A810E9459028C2D0E94E3
:1011A000590280911A060E94590280911B060E94E2
:1011B0005902419A95E09A95F1F70E947C0280FDD0
:1011C000FCCFAAE1B6E0BA83A9834198B5E0BA950D
:1011D000F1F78DEA0E945902E981FA8182810E9429
:1011E0005902A981BA8113968C910E945902419AA1
:1011F000B5E0BA95F1F70E947C0280FDFCCFE98151
:10120000FA813296FA83E9836E167F06F1F64198E9
:10121000F5E0FA95F1F784E00E945902419A25E041
:101220002A95F1F70F5F1F4F30E8C30ED11CE11C68
:10123000F11C0032110509F090CF0E948B02C5010C
:10124000B4010E949702CE80DF80E884F984612C8B
:10125000712C41988AE08A95F1F783E00E94590247
:101260008E2D0E9459028D2D0E9459028C2D0E94B4
:101270005902AAE1B6E0BA83A9832AE936E0898156
:101280009A812817390749F080E00E945902E981C4
:10129000FA818193FA83E983F0CF419A9AE09A9593
:1012A000F1F70E948B024198A5E0AA95F1F78DEA2B
:1012B0000E9459028A2D0E945902892D0E945902CA
:1012C000882D0E945902281439044A045B0439F419
:1012D00080919A050E94590280919B0506C08091D9
:1012E0001A060E94590280911B060E945902419AD7
:1012F000B5E0BA95F1F70E947C0280FDFCCFEAE9E7
:10130000F5E0FA83E9830AE116E04198F5E0FA9501
:10131000F1F78DEA0E945902281439044A045B044B
:1013200049F4A981BA8112968C910E945902E981EF
:10133000FA8106C0D80112968C910E945902F801D8
:1013400083810E945902419A0E947C0280FDFCCF59
:1013500029813A812E5F3F4F3A8329830E5F1F4FC9
:1013600088E196E08217930781F6419895E09A9577
:10137000F1F784E00E945902419AA5E0AA95F1F79D
:10138000BFEF6B1A7B0AE0E8CE0ED11CE11CF11C0A
:10139000F0E88F0E911CA11CB11C20E262167104B2
:1013A00009F057CF80918B058F5F80938B05803438
:1013B00011F410928B053D81E32FF0E0EE0FFF1F3B
:1013C000ED57FA4F8081918101969183808388B196
:1013D000837F88B980E02D960FB6F894DEBF0FBEEC
:1013E000CDBFDF91CF911F910F91FF90EF90DF90D4
:1013F000CF90BF90AF909F908F907F906F905F90B5
:101400004F903F902F9008955E985D9A8FEF809354
:10141000010110928D051092900580918A0580FF40
:1014200006C08DE00E94A1008AE00C94A1000895FE
:101430001F920F920FB60F9211248F939F9380915A
:1014400089058F5F80938905809187059091880534
:101450000196909388058093870580917E058F5F24
:101460008A3019F080937E050BC010927E05809122
:101470007C0590917D05019690937D0580937C0578
:101480009F918F910F900FBE0F901F9018955B9AB0
:1014900053985A9A5298289A2098459A3D98299A92
:1014A000219A2A9A229A5E9A569A5D9A559A5F9A3A
:1014B000579A5C9A549A519A589A509882E080931D
:1014C000C00098ED9093C10096E09093C2001092F6
:1014D000C5009FE09093C400419A399A2C9A2498B1
:1014E000239A259A90E59CBD91E09DBD10928000C5
:1014F0009CE090938100109282002FE736E13093B8
:1015000089002093880080936F00789442984398D4
:101510003A9A3B9A60E072EC81E090E00E94F2001F
:1015200083E191E00E94E60088EE94E00E94E600EC
:101530008FE195E00E94E60086E495E00E94E600D7
:1015400080E695E00E94E6002FEF8FE794E02150BF
:1015500080409040E1F700C000000E94F0012FEFB2
:101560008FEF9CE2215080409040E1F700C00000E6
:101570005E9880E00E945F02D2E0C1E014E003E0E8
:101580004A9931C1809101018F3F19F55E9A5F9AA6
:101590000E94100284FB992790F9909391058695FB
:1015A00087708093010180918A0580FF12C010929C
:1015B0007B0510927A0583E40E94A10080E20E94DC
:1015C000A10080910101805D0E94A10080E20E9443
:1015D000A100E09101018E2F90E08830910508F084
:1015E00000C1FC01E35CFF4F0C94330C80918D052E
:1015F000811112C000938D052A9810929005809158
:101600008A0581FFF0C08DE391E00E94E600109210
:101610007B0510927A05E7C0E0909005F12C0E94BE
:101620003202F701E656FA4F808380918A0581FFE6
:1016300020C0E0919005F0E0E656FA4F80810E94CC
:10164000080480E20E94A10080917A0590917B05B8
:1016500001968830910528F490937B0580937A0554
:1016600008C010927B0510927A058DE391E00E94EC
:10167000E600809190058F5F80939005803809F097
:101680004DC0AFC080918A0581FF1BC080917A0553
:1016900090917B05892B21F48DE391E00E94E60077
:1016A00080917A0590917B0501968830910528F408
:1016B00090937B0580937A0504C010927B0510926D
:1016C0007A058091900587FD21C080918D0581115B
:1016D0000EC010938D055D9821E32A95F1F7000067
:1016E00080919A050E944302C093900517C02A9AE0
:1016F000E0919005F0E0E656FA4F80810E944302A7
:10170000809190058F5F8093900508C02A9A69C0E8
:1017100080918D05811104C0C0938D052A9863C006
:10172000813051F40E941002815080938F058B31DB
:1017300060F4D0938D05F2CF823009F054C00E943E
:10174000100280938E058D3410F05F984AC080910E
:101750008A0580FF1BC084E50E94A10080E20E94F0
:10176000A10080918E0560E090E00E941D0480E25F
:101770000E94A10083E50E94A10080E20E94A100D6
:1017800080918F0560E090E00E941D04809101012E
:10179000833069F0863011F0823019F540918F0561
:1017A00060918E05809191050E9438081AC0409181
:1017B0008F0560918E05809191050E94C20311C032
:1017C0005D9881E38A95F1F700008091000107C0E0
:1017D0005D9891E39A95F1F7000080918C050E9445
:1017E00043020E94040A4B9921C040E061E080E07E
:1017F0000E94C2035E9A2FEF8FE794E02150804051
:101800009040E1F700C000005D9821E32A95F1F7D0
:10181000000084E80E94430280918A0580FF04C092
:1018200083E795E00E94E6000E94040A809102018D
:1018300084FDA6CE0E946B000E945904A1CEAA1B73
:10184000BB1B51E107C0AA1FBB1FA617B70710F0AB
:10185000A61BB70B881F991F5A95A9F780959095DD
:10186000BC01CD010895EE0FFF1F0590F491E02D0E
:061870000994F894FFCF7B
:1018760084FF50000D0A55415254204649464F20D8
:101886004F4B000D0A2D2D2D2D2D0D0A00434C49D1
:1018960020737461727465640D0A3E00554E4B4E9A
:1018A6004F574E20434F4D4D414E440D0A0D0A00F1
:1018B600494E434F525245435420445249564520BF
:1018C6004E554D4245520D0A0D0A0053656E646928
:1018D6006E672052580020696D616765206F7665D6
:1018E6007220586D6F64656D2E2E2E0052656365ED
:1018F6006976696E6720525800446F6E650D0A005E
:101906004552524F52202D2054494D454F55540DA6
:101916000A004552524F52202D20494E434F5252F3
:10192600454354205041434B4554204E554D424566
:10193600520D0A004552524F52202D204352432049
:101946004552524F520D0A004552524F52202D20F9
:1019560046494C4520544F4F2053484F52540D0A88
:10196600004552524F52202D20494E434F52524568
:101976004354205041434B45542048454144455229
:101986000D0A004552524F52202D2046494C452003
:10199600544F4F204C4F4E470D0A005452414E5360
:1019A6004645522043414E43454C4C4544204259FE
:1019B60020555345520D0A00534F4D455448494E44
:1019C60047204655434B45442055500D0A00426179
:1019D600636B696E672075702052580020696D61CF
:1019E60067652E2E2E0D0A00436F7079696E672E7D
:1019F6002E2E0D0A00446F6E650D0A0D0A00526503
:101A060073746F72696E672052580020696D616742
:101A1600652066726F6D206261636B75702E2E2E67
:101A26000D0A004465627567206F66660D0A0044FC
:101A360065627567206F6E0D0A00566572626F7378
:101A460065206465627567206F6E0D0A00494E4316
:101A56004F5252454354204445425547205345541E
:101A660054494E470D0A0053657373696F6E2073B0
:101A76007461746973746963733A0D0A00557074FE
:101A8600696D653A20006820006D2000730D0A001C
:101A9600536563746F7273207772697474656E2010
:101AA60020726561640D0A004458303A20202020D7
:101AB6002020004458313A20202020202000436F67
:101AC6006D6D616E64733A0D0A003F202D206865C6
:101AD6006C700D0A00787330202D2073656E6420BB
:101AE60052583020696D616765206F76657220589F
:101AF6006D6F64656D0D0A00787331202D20736556
:101B06006E642052583120696D616765206F766575
:101B16007220586D6F64656D0D0A00787230202D45
:101B260020726563656976652052583020696D615B
:101B36006765206F76657220586D6F64656D0D0A56
:101B460000787231202D20726563656976652052B2
:101B5600583120696D616765206F76657220586D12
:101B66006F64656D0D0A006230202D206261636B23
:101B760075702052583020696D6167650D0A0062E4
:101B860031202D206261636B7570205258312069B7
:101B96006D6167650D0A007230202D2072657374C1
:101BA6006F72652052583020696D616765206672D4
:101BB6006F6D206261636B75700D0A007231202DA6
:101BC60020726573746F72652052583120696D6199
:101BD60067652066726F6D206261636B75700D0AB2
:101BE600006430202D2064697361626C6520646531
:101BF6006275670D0A006431202D20656E61626C86
:101C0600652064656275670D0A006432202D2065C3
:101C16006E61626C6520766572626F7365206465BD
:101C26006275670D0A0076202D2073686F7720761F
:101C3600657273696F6E0D0A0073202D20737461CF
:101C4600746973746963730D0A0D0A005E430D0AA5
:101C5600001B5B441B5B4B00525830312064726999
:101C6600766520656D756C61746F7220666F722083
:101C76005044502D313120636F6D70617469626C10
:101C86006520636F6D7075746572732E0D0A00544E
:101C960065737465642077697468204D433132300A
:101CA600312E303220616E6420493420626F6172B9
:101CB60064732E0D0A00437265617465642062794F
:101CC60020546563686E6F6D616E6365720D0A0000
:101CD6007068616E746F6D2E73616E6E6174612EC5
:081CE600727500525354000016
:00000001FF
