:100000000C944E000C946B000C946B000C946B00E1
:100010000C946B000C946B000C946B000C946B00B4
:100020000C946B000C946B000C946B000C94A60A5F
:100030000C946B000C946B000C946B000C946B0094
:100040000C946B000C946B000C944E010C946B00A0
:100050000C94A7010C946B000C946B000C946B0037
:100060000C946B000C946B00C005C305C605C90554
:10007000CF05D205CC05D905D50587052A0839084D
:10008000480866087508570893088408840BD00B45
:10009000160C160C810C6E0C160C760C11241FBE5F
:1000A000CFEFD8E0DEBFCDBF15E0A0E0B1E0E2E9E0
:1000B000F9E102C005900D92A837B107D9F727E002
:1000C000A8E7B5E001C01D92A23CB207E1F70E948B
:1000D000D50A0C94C70C0C9400009091C00095FFB9
:1000E000FCCF8093C60008958091020184FD30C04A
:1000F0004091920550919305FA01E656F94F80819F
:1001000020910201309103012F7D30930301209350
:1001100002014B38510529F4109293051092920573
:1001200006C04F5F5F4F50939305409392056091D7
:10013000920570919305409194055091950564172F
:10014000750739F42061309303012093020108956B
:1001500080E00895F8949091020196FD37C0909147
:10016000020197FF02C07894FACFF8942091980585
:1001700030919905F901EA5CF84F80838091020182
:10018000909103018F7B90930301809302012B38A0
:10019000310529F4109299051092980506C02F5F39
:1001A0003F4F3093990520939805409198055091C1
:1001B000990520919605309197054217530761F4F0
:1001C0008068909303018093020106C09091C00063
:1001D00095FFC5CF8093C600789480E00895CF93B3
:1001E000DF93EC018991882319F00E94AA00FACFCD
:1001F000DF91CF9108958DE00E946D008AE00E940A
:100200006D008DE00E946D008AE00E946D008DE21D
:100210000E946D008DE20E946D008DE20E946D00D3
:100220008DE20E946D008DE20E946D008DE00E94C3
:100230006D008AE00E946D0085E50E946D0081E4FA
:100240000E946D0082E50E946D0084E50E946D00B1
:1002500080E20E946D008FE40E946D008BE40E949A
:100260006D0080E20E946D0081E30E946D0081E3D9
:100270000E946D0085E30E946D0082E30E946D0084
:1002800080E30E946D0080E30E946D0084E091E0B5
:100290000C94EF0080910201807108951F920F92DB
:1002A0000FB60F9211242F933F934F935F938F9329
:1002B0009F93EF93FF934091C6008091020185FFC9
:1002C0000AC080910201909103018860909303011C
:1002D0008093020118952091940530919505F901BC
:1002E000E656F94F408380910201909103018F7E81
:1002F00090930301809302012B38310529F4109269
:1003000095051092940506C02F5F3F4F30939505D9
:100310002093940540919405509195052091920564
:10032000309193054217530729F48062909303019B
:1003300080930201FF91EF919F918F915F914F9177
:100340003F912F910F900FBE0F901F9018951F9205
:100350000F920FB60F9211242F933F934F935F93F9
:100360008F939F93EF93FF938091020186FD34C09A
:10037000E0919605F0919705EA5CF84F80818093B3
:10038000C60080910201909103018F779093030141
:100390008093020120919605309197052B38310505
:1003A00029F4109297051092960506C02F5F3F4FD3
:1003B00030939705209396054091960550919705A7
:1003C00020919805309199054217530729F48064CC
:1003D0009093030180930201FF91EF919F918F9180
:1003E0005F914F913F912F910F900FBE0F901F90F3
:1003F000189583E191E00E94EF008DE191E00C946B
:10040000EF008DE391E00E94EF008CE291E00E940A
:10041000EF008AE291E00C94EF008DE391E00E94FE
:10042000EF0080E491E00E94EF008AE291E00C94FA
:10043000EF002A9A28E090E080E0880F189902C027
:100440008F5F9F5F5C9835E03A95F1F75C9A3AE0F0
:100450003A95F1F7215089F7189B9F5F90FD0AC0EC
:1004600085E40E946D0082E50E946D0082E50E9495
:100470006D008FEF08952A9A98E080E0880F189B0E
:100480008F5F5C9825E02A95F1F75C9A2AE02A951F
:10049000F1F7915099F7089598E087FD02C0299AE5
:1004A00001C02998880F25E02A95F1F75C9825E08E
:1004B0002A95F1F75C9A2AE02A95F1F7915069F7AD
:1004C000299A08958EBD0DB407FEFDCF8EB508950F
:1004D000CF93C82F41988AE08A95F1F780E50E9472
:1004E0006202419A8AE08A95F1F741988AE08A95FA
:1004F000F1F781E00E9462028C2F0E946202419A11
:100500008AE08A95F1F7CF91089541988AE08A951B
:10051000F1F785E00E94620280E00E946202419A47
:100520009AE09A95F1F7089541988AE08A95F1F753
:1005300086E00E946202419A8AE08A95F1F7089566
:100540001F93CF93DF93EB01182F0E9494020E9418
:10055000850280FDFCCF41988AE08A95F1F780E220
:100560000E946202812F0E9462028D2F0E9462020D
:100570008C2F0E946202419A8AE08A95F1F70E94CC
:10058000850280FDFCCFDF91CF911F910895CF921E
:10059000DF92EF92FF92CF936B017C01C0E4C70121
:1005A000B6010E94A00280E1D80EE11CF11CC150EE
:1005B000B1F7CF91FF90EF90DF90CF900895FF9229
:1005C0000F931F93CF93DF93EB01182FF42E4198D5
:1005D0008AE08A95F1F783E00E946202812F0E94EF
:1005E00062028D2F0E9462028C2F0E946202CAE179
:1005F000D6E00AE915E0F6E0CA39DF0779F080E0D5
:10060000F11004C00E946202888304C00E9462024A
:10061000F801808321960F5F1F4FEDCF419A8AE04A
:100620008A95F1F7DF91CF911F910F91FF90089577
:10063000FF920F931F93CF93DF93EB01182FF42EAC
:100640000E949402419885E08A95F1F78DEA0E9414
:100650006202812F0E9462028D2F0E9462028C2F03
:100660000E946202F11007C080911A060E94620285
:1006700080911B0606C080919A050E9462028091BB
:100680009B050E946202419AE5E0EA95F1F70E941B
:10069000850280FDFCCFCAE1D6E00AE915E0419869
:1006A000F5E0FA95F1F78DEA0E946202F11005C0BB
:1006B0008A810E9462028B8106C0F80182810E94B9
:1006C0006202F80183810E946202419AF5E0FA9584
:1006D000F1F70E94850280FDFCCF22960E5F1F4F2E
:1006E00086E0C839D807D9F64198E5E0EA95F1F7F0
:1006F00084E00E946202419AF5E0FA95F1F7DF91F9
:10070000CF911F910F91FF9008954F925F926F923A
:100710007F928F929F92AF92BF92CF92DF92EF9291
:10072000FF92CF93DF933B01D82FC92F49015A0184
:10073000CA01B9010E94C7026301ED2EFC2EC0E080
:10074000D8E08C189D08AE08BF08240135014C0C78
:100750005D1C6E1C7F1C40E0C701B6010E94DF02D9
:1007600040E0C301B2010E94180380E8C80ED11C0A
:10077000E11CF11C219749F7DF91CF91FF90EF9099
:10078000DF90CF90BF90AF909F908F907F906F90B1
:100790005F904F9008950F931F93CF93DF93C82FCF
:1007A000811102C0429A01C0439A0AE1609FB001E0
:1007B0001124CB01770FAA0BBB0B840F911DA11D38
:1007C000B11D27E0880F991FAA1FBB1F2A95D1F7DB
:1007D0004C2F50E060E070E033E1440F551F661F7E
:1007E000771F3A95D1F78A019B01080F191F2A1F1D
:1007F0003B1FC901B80141E00E94DF0288B1837F3D
:1008000088B9D0E0CC0FDD1FC158DA4F88819981BB
:1008100001969983888380E0DF91CF911F910F919A
:100820000895CF93C82F82958F708A3010F0895C1D
:1008300001C0805D0E94AA008C2F8F708A3010F05A
:10084000895C01C0805DCF910C94AA00AF92BF92E9
:10085000DF92EF92FF920F931F93CF93DF93EC0100
:10086000D62E84E0F82E00E117E2E12C9AE0A92EC2
:10087000B12C20E0C017D10730F02F5FC01BD10B87
:10088000EE24E394F7CFC801B5010E94AD0C8B01B3
:10089000EE2019F080E3820F03C0DD2019F080E222
:1008A0000E94AA00FA94F110E4CF8C2F805DDF91B2
:1008B000CF911F910F91FF90EF90DF90BF90AF907D
:1008C0000C94AA006F927F928F929F92AF92BF92E8
:1008D000CF92DF92EF92FF920F931F93CF93DF930C
:1008E000C82F883009F4F5C28D3041F0833009F00B
:1008F000FCC2109278058CED94E0D7C290917805F7
:10090000911103C08DE391E0D0C280912607823619
:1009100009F45DC180F4823509F490C138F4823461
:1009200009F455C1843409F4C9C178C2863599F0F7
:10093000883549F173C2833709F4EFC138F484363E
:1009400009F4BCC1823709F479C168C2863719F04D
:100950008837C9F063C29130C1F48DE391E00E9401
:10096000EF00C0E0D0E0D2BDC1BDF89A80B58F37AE
:1009700018F480B50E94AA002196C034D10599F7D9
:100980008DE391E089C2933019F00E9401028AC27E
:1009900080912707833559F020F4823509F472C01D
:1009A000B3C0823709F46EC0833709F0ADC08091BF
:1009B00028078053823018F00E940D02F9C08DE3A1
:1009C00091E00E94EF008BE591E00E94EF008091A2
:1009D00028070E94AA0086E691E00E94EF0080911D
:1009E0002807982F917080FD02C0429A01C0439A57
:1009F000892E912CA12CB12CE3E1880C991CAA1C06
:100A0000BB1CEA95D1F71092880510928705C1E0CA
:100A1000D0E0712CFAE9EF2EF6E0FF2E8091020172
:100A2000807125E02A95F1F7811120C00E947400A1
:100A3000853131F4739439E0371508F494C37DC2DD
:100A4000833009F492C3863089F480E8880E911CC3
:100A5000A11CB11C10928805109287052196C33DF8
:100A600097E0D90709F471C3712C67C2809187059B
:100A7000909188058C32914088F2C3E088B1837FE1
:100A800088B973C08DE391E00E94EF008CE791E09C
:100A90000E94EF00809128070E94AA0086E691E05C
:100AA0000E94EF0080912807F82FF170FF2E80FD43
:100AB00002C0429A01C0439A60E070E08CE090E08E
:100AC0000E94C702109288051092870585E10E9456
:100AD000AA00809102018071E6E6FEE03197F1F70D
:100AE000000081110AC0D0E0E12C01E010E0812C6F
:100AF000912C7CE0A72EB12C6AC280918705909141
:100B000088054E9730F3DECF0E94010251C08F2D31
:100B100090E0A0E0B0E09C01AD0163E1220F331F43
:100B2000441F551F6A95D1F760E070E08CE090E0BB
:100B30000E94850386E00E94AA009FEFEFEFFCE28F
:100B40009150E040F040E1F700C0000089E891E0FA
:100B50000E94EF0088B1837F88B98DE391E00E9405
:100B6000EF008AE291E00E94EF008C2F90E0FC0100
:100B70003297E930F105E8F4EC5CFF4F0C94C10CBE
:100B800089E891E021C080E991E01EC082EA91E00D
:100B90001BC084EC91E018C088ED91E015C081EF96
:100BA00091E012C083E192E00FC08BE292E00CC0B2
:100BB000C0E080E20E94AA008C2F0E94110480E213
:100BC0000E94AA0088E492E00E94EF00D9CE923001
:100BD00009F0DBCE8091270780538230B8F58DE392
:100BE00091E00E94EF008EE592E00E94EF0080917C
:100BF00027070E94AA008CE692E00E94EF008091F5
:100C00002707982F917080FD02C0429A01C0439A35
:100C1000C92ED12CE12CF12C93E1CC0CDD1CEE1C67
:100C2000FF1C9A95D1F788E792E00E94EF00A70198
:100C30009601405F5F4FC701B60138C0923009F09E
:100C4000A4CE809127078053823018F00E940D02B5
:100C500029C18DE391E00E94EF008EE892E00E94AE
:100C6000EF00809127070E94AA008BE992E00E9482
:100C7000EF0080912707282F217080FD02C0429A43
:100C800001C0439AC22ED12CE12CF12C88E792E0CE
:100C90000E94EF00A701960183E1220F331F441F3A
:100CA000551F8A95D1F7CA01B90140960E94850364
:100CB00088B1837F88B985E892E0EEC0923009F070
:100CC00064CE8DE391E00E94EF008091270781338D
:100CD00061F0823399F08033C9F480918A058C7F6A
:100CE00080938A0583EB92E013C080918A058D7F03
:100CF000816080938A058FEB92E00AC080918A051B
:100D0000836080938A058AEC92E002C08DED92E0C8
:100D10000E94EF0088E291E0C3C0913009F035CE27
:100D20008DE391E00E94EF0087EF92E00E94EF00D8
:100D30008DE093E00E94EF00C0917C05D0917D058D
:100D400000E11EE0CE01B8010E94AD0C7B0160E025
:100D5000C7010E94260486E193E00E94EF00E09E16
:100D6000C001E19E900DF09E900D1124C81BD90B7F
:100D7000CE016CE370E00E94AD0C8B0160E0C80115
:100D80000E94260489E193E00E94EF002CE3209F5B
:100D9000C001219F900D112460E0FE01E81BF90BBA
:100DA000CF010E9426048CE193E00E94EF0080E2D4
:100DB00093E00E94EF0088E393E00E94EF0061E07F
:100DC00080918305909184050E94260481E493E03C
:100DD0000E94EF0061E080917F05909180050E9464
:100DE00026048DE391E00E94EF0083E493E00E94EB
:100DF000EF0061E080918505909186050E942604B0
:100E000081E493E00E94EF0061E080918105909180
:100E100082050E9426048DE391E07ACF8DE391E074
:100E20000E94EF008EE493E00E94EF008AE593E0D9
:100E30000E94EF0085E693E00E94EF0088E893E0CF
:100E40000E94EF008BEA93E00E94EF0081ED93E0B7
:100E50000E94EF0087EF93E00E94EF008FE094E0A4
:100E60000E94EF0087E294E00E94EF008CE494E09F
:100E70000E94EF0081E794E00E94EF0086E894E092
:100E80000E94EF008AE994E00E94EF0086EB94E074
:100E90000E94EF0089EC94E00E94EF008AE291E06A
:100EA0000E94EF001092780562C10E94EF008AE272
:100EB00091E0DF91CF911F910F91FF90EF90DF9024
:100EC000CF90BF90AF909F908F907F906F900C9439
:100ED000EF0080917805882361F081EE94E00E9414
:100EE000EF0080917805815025C080917805803190
:100EF00088F087E0DF91CF911F910F91FF90EF90E5
:100F0000DF90CF90BF90AF909F908F907F906F9029
:100F10000C94AA0080EE8C0F8F3508F028C18C2F1E
:100F20000E94AA0080917805E82FF0E0EA5DF84F72
:100F3000C0838F5F809378051AC140E0C501B4017A
:100F40000E94DF0281E00E94AA008C2F0E94AA006A
:100F50008C2F80950E94AA000AE116E0612CE01611
:100F6000F10651F06801F80181918F010E94AA00F9
:100F7000F6018081680EF3CF862D0E94AA004ECD27
:100F800040E0C501B4010E9418030F5F1F4F80E8C5
:100F9000880E911CA11CB11C86E00E94AA00D0E022
:100FA000E12CC1E0809102018071F5E0FA95F1F742
:100FB000811141C00E947400D130E9F050F48330B7
:100FC00009F4BDC0843089F08130A9F5D1E0C0E0DA
:100FD000E9CFD230B9F0D338F9F0ED2FF0E0E95E87
:100FE000F94F8083E80EDF5F26C0023D174008F00E
:100FF000A8C0C8E023C090E0980133278217930768
:1010000049F416C090E09801209530953327821757
:10101000930781F0C4E012C0E81295C0033D37E0A9
:10102000130708F4ADCF85E10E94AA00C7E006C00F
:10103000D2E001C0D3E0C23008F4B4CF8C2F90E0EE
:10104000FC013297E930F10508F06DC0E35CFF4F19
:101050000C94C10C86E00E94AA002FEF3FEF8CE2B7
:10106000215030408040E1F700C0000080E991E06D
:101070006FCD86E00E94AA009FEFEFEFFCE2915057
:10108000E040F040E1F700C0000082EA91E060CD6E
:1010900086E00E94AA002FEF3FEF8CE22150304003
:1010A0008040E1F700C0000084EC91E051CD86E083
:1010B0000E94AA009FEFEFEFFCE29150E040F04069
:1010C000E1F700C0000088ED91E042CD86E00E948B
:1010D000AA002FEF3FEF8CE2215030408040E1F733
:1010E00000C0000081EF91E033CD85E10E94AA00AD
:1010F0009FEFEFEFFCE29150E040F040E1F700C0DD
:10110000000083E192E024CD86E00E94AA002FEF48
:101110003FEF8CE2215030408040E1F700C00000FA
:101120008BE292E015CD80E20E94AA008C2F0E94F3
:10113000110480E20E94AA0088E492E009CDCAE08E
:101140007DCFC2E07BCFC5E079CF84E00E94AA00CA
:10115000FFEF2FEF39E5F15020403040E1F700C0BC
:101160000000C2E08BCCCBE089CCCAE087CCDF9119
:10117000CF911F910F91FF90EF90DF90CF90BF9094
:10118000AF909F908F907F906F9008952F923F9295
:101190004F925F926F927F928F929F92AF92BF9287
:1011A000CF92DF92EF92FF920F931F93CF93DF9333
:1011B000CDB7DEB72D970FB6F894DEBF0FBECDBF0B
:1011C0008D83811102C0429A01C0439A2AE1629F35
:1011D000C0011124092E000CAA0BBB0B840F911D1A
:1011E000A11DB11D27E0880F991FAA1FBB1F2A95BB
:1011F000D1F73D81432F50E060E070E033E1440FD0
:10120000551F661F771F3A95D1F71A012B01280E3B
:10121000391E4A1E5B1E52014101882480EF98222C
:10122000C0908B05D12CE12CF12C4CE0CC0CDD1CBA
:10123000EE1CFF1C4A95D1F7D701C60114968E8388
:101240009F83A887B9870E9494026E817F818885D9
:1012500099850E94A00200E010E0D501C4018C191C
:101260009D09AE09BF098A879B87AC87BD8758E96E
:10127000652E56E0752E40E06A857B858C859D85C0
:101280006C0D7D1D8E1D9F1D0E94DF020E94940229
:10129000419895E09A95F1F78DEA0E946202D70194
:1012A000C601149689839A83AB83BC838B810E9489
:1012B00062028A810E9462028C2D0E9462028091E9
:1012C0001A060E94620280911B060E946202419AE5
:1012D00095E09A95F1F70E94850280FDFCCFAAE186
:1012E000B6E0BA83A9834198B5E0BA95F1F78DEAE3
:1012F0000E946202E981FA8182810E946202A981D0
:10130000BA8113968C910E946202419AB5E0BA9517
:10131000F1F70E94850280FDFCCFE981FA813296C7
:10132000FA83E9836E167F06F1F64198F5E0FA95A7
:10133000F1F784E00E946202419A25E02A95F1F7D4
:101340000F5F1F4F30E8C30ED11CE11CF11C0032AF
:10135000110509F090CF0E949402C501B4010E94CA
:10136000A002CE80DF80E884F984612C712C419842
:101370008AE08A95F1F783E00E9462028E2D0E9436
:1013800062028D2D0E9462028C2D0E946202AAE1EF
:10139000B6E0BA83A9832AE936E089819A812817C1
:1013A000390749F080E00E946202E981FA81819365
:1013B000FA83E983F0CF419A9AE09A95F1F70E9477
:1013C00094024198A5E0AA95F1F78DEA0E94620285
:1013D0008A2D0E946202892D0E946202882D0E943D
:1013E0006202281439044A045B0439F480919A0596
:1013F0000E94620280919B0506C080911A060E949D
:10140000620280911B060E946202419AB5E0BA9581
:10141000F1F70E94850280FDFCCFEAE9F5E0FA834E
:10142000E9830AE116E04198F5E0FA95F1F78DEAD3
:101430000E946202281439044A045B0449F4A98119
:10144000BA8112968C910E946202E981FA8106C0EB
:10145000D80112968C910E946202F80183810E9449
:101460006202419A0E94850280FDFCCF29813A8167
:101470002E5F3F4F3A8329830E5F1F4F88E196E02E
:101480008217930781F6419895E09A95F1F784E0E9
:101490000E946202419AA5E0AA95F1F7BFEF6B1A8C
:1014A0007B0AE0E8CE0ED11CE11CF11CF0E88F0EA7
:1014B000911CA11CB11C20E26216710409F057CFE7
:1014C00080918B058F5F80938B05803411F410928F
:1014D0008B053D81E32FF0E0EE0FFF1FED57FA4F34
:1014E0008081918101969183808388B1837F88B9BF
:1014F00080E02D960FB6F894DEBF0FBECDBFDF9112
:10150000CF911F910F91FF90EF90DF90CF90BF9000
:10151000AF909F908F907F906F905F904F903F9093
:101520002F9008955E985D9A8FEF8093010110923D
:101530008D051092900580918A0580FF06C08DE090
:101540000E94AA008AE00C94AA0008951F920F92AC
:101550000FB60F9211248F939F93809189058F5F0F
:1015600080938905809187059091880501969093D5
:1015700088058093870580917E058F5F8A3019F0FA
:1015800080937E050BC010927E0580917C05909122
:101590007D05019690937D0580937C059F918F91A9
:1015A0000F900FBE0F901F9018955B9A53985A9A00
:1015B0005298289A2098459A3D98299A219A2A9AD1
:1015C000229A5E9A569A5D9A559A5F9A579A5C9AB1
:1015D000549A519A589A509882E08093C00098ED9E
:1015E0009093C10096E09093C2001092C5009FE0D6
:1015F0009093C400419A399A2C9A2498239A259A58
:1016000090E59CBD91E09DBD109280009CE0909380
:101610008100109282002FE736E1309389002093F9
:10162000880080936F007894429843983A9A3B9A46
:1016300060E072EC81E090E00E94FB0083E191E0C9
:101640000E94EF0088EE94E00E94EF008FE195E0A9
:101650000E94EF0086E495E00E94EF0080E695E0AE
:101660000E94EF002FEF8FE794E0215080409040E0
:10167000E1F700C000000E94F9012FEF8FEF9CE21C
:10168000215080409040E1F700C000005E9880E06B
:101690000E946802D2E0C1E014E003E04A9931C13F
:1016A000809101018F3F19F55E9A5F9A0E9419029D
:1016B00084FB992790F99093910586958770809384
:1016C000010180918A0580FF12C010927B05109263
:1016D0007A0583E40E94AA0080E20E94AA00809119
:1016E0000101805D0E94AA0080E20E94AA00E091B0
:1016F00001018E2F90E08830910508F000C1FC01B7
:10170000EA5BFF4F0C94C10C80918D05811112C0D2
:1017100000938D052A981092900580918A0581FF8B
:10172000F0C08DE391E00E94EF0010927B051092D3
:101730007A05E7C0E0909005F12C0E943B02F7018A
:10174000E656FA4F808380918A0581FF20C0E091A0
:101750009005F0E0E656FA4F80810E94110480E285
:101760000E94AA0080917A0590917B0501968830AD
:10177000910528F490937B0580937A0508C0109218
:101780007B0510927A058DE391E00E94EF00809135
:1017900090058F5F80939005803809F04DC0AFC0F1
:1017A00080918A0581FF1BC080917A0590917B050D
:1017B000892B21F48DE391E00E94EF0080917A055E
:1017C00090917B0501968830910528F490937B05D4
:1017D00080937A0504C010927B0510927A0580915F
:1017E000900587FD21C080918D0581110EC0109359
:1017F0008D055D9821E32A95F1F7000080919A0507
:101800000E944C02C093900517C02A9AE09190055F
:10181000F0E0E656FA4F80810E944C0280919005DC
:101820008F5F8093900508C02A9A69C080918D05CA
:10183000811104C0C0938D052A9863C0813051F492
:101840000E941902815080938F058B3160F4D093F0
:101850008D05F2CF823009F054C00E9419028093A6
:101860008E058D3410F05F984AC080918A0580FF04
:101870001BC084E50E94AA0080E20E94AA00809119
:101880008E0560E090E00E94260480E20E94AA009B
:1018900083E50E94AA0080E20E94AA0080918F0541
:1018A00060E090E00E94260480910101833069F09D
:1018B000863011F0823019F540918F0560918E05C8
:1018C000809191050E94C6081AC040918F056091D1
:1018D0008E05809191050E94CB0311C05D9881E334
:1018E0008A95F1F700008091000107C05D9891E3AF
:1018F0009A95F1F7000080918C050E944C020E949D
:10190000920A4B9921C040E061E080E00E94CB0345
:101910005E9A2FEF8FE794E0215080409040E1F7EE
:1019200000C000005D9821E32A95F1F7000084E8EB
:101930000E944C0280918A0580FF04C083E795E0F5
:101940000E94EF000E94920A8091020184FDA6CEBF
:101950000E9474000E946204A1CEAA1BBB1B51E12D
:1019600007C0AA1FBB1FA617B70710F0A61BB70B0F
:10197000881F991F5A95A9F780959095BC01CD01B4
:101980000895EE0FFF1F0590F491E02D0994F8944F
:02199000FFCF87
:1019920084FF50000D0A55415254204649464F20BB
:1019A2004F4B000D0A2D2D2D2D2D0D0A00434C49B4
:1019B20020737461727465640D0A3E00554E4B4E7D
:1019C2004F574E20434F4D4D414E440D0A0D0A00D4
:1019D200494E434F525245435420445249564520A2
:1019E2004E554D4245520D0A0D0A0053656E64690B
:1019F2006E672052580020696D616765206F7665B9
:101A02007220586D6F64656D2E2E2E0052656365CF
:101A12006976696E6720525800446F6E650D0A0040
:101A22004552524F52202D2054494D454F55540D89
:101A32000A004552524F52202D20494E434F5252D6
:101A4200454354205041434B4554204E554D424549
:101A5200520D0A004552524F52202D20435243202C
:101A62004552524F520D0A004552524F52202D20DC
:101A720046494C4520544F4F2053484F52540D0A6B
:101A8200004552524F52202D20494E434F5252454B
:101A92004354205041434B4554204845414445520C
:101AA2000D0A004552524F52202D2046494C4520E6
:101AB200544F4F204C4F4E470D0A005452414E5343
:101AC2004645522043414E43454C4C4544204259E1
:101AD20020555345520D0A00534F4D455448494E27
:101AE20047204655434B45442055500D0A0042615C
:101AF200636B696E672075702052580020696D61B2
:101B020067652E2E2E0D0A00436F7079696E672E5F
:101B12002E2E0D0A00446F6E650D0A0D0A005265E5
:101B220073746F72696E672052580020696D616725
:101B3200652066726F6D206261636B75702E2E2E4A
:101B42000D0A004465627567206F66660D0A0044DF
:101B520065627567206F6E0D0A00566572626F735B
:101B620065206465627567206F6E0D0A00494E43F9
:101B72004F52524543542044454255472053455401
:101B820054494E470D0A0053657373696F6E207393
:101B92007461746973746963733A0D0A00557074E1
:101BA200696D653A20006820006D2000730D0A00FF
:101BB200536563746F7273207772697474656E20F3
:101BC20020726561640D0A004458303A20202020BA
:101BD2002020004458313A20202020202000436F4A
:101BE2006D6D616E64733A0D0A003F202D206865A9
:101BF2006C700D0A00787330202D2073656E64209E
:101C020052583020696D616765206F766572205881
:101C12006D6F64656D0D0A00787331202D20736538
:101C22006E642052583120696D616765206F766558
:101C32007220586D6F64656D0D0A00787230202D28
:101C420020726563656976652052583020696D613E
:101C52006765206F76657220586D6F64656D0D0A39
:101C620000787231202D2072656365697665205295
:101C7200583120696D616765206F76657220586DF5
:101C82006F64656D0D0A006230202D206261636B06
:101C920075702052583020696D6167650D0A0062C7
:101CA20031202D206261636B75702052583120699A
:101CB2006D6167650D0A007230202D2072657374A4
:101CC2006F72652052583020696D616765206672B7
:101CD2006F6D206261636B75700D0A007231202D89
:101CE20020726573746F72652052583120696D617C
:101CF20067652066726F6D206261636B75700D0A95
:101D0200006430202D2064697361626C6520646513
:101D12006275670D0A006431202D20656E61626C68
:101D2200652064656275670D0A006432202D2065A6
:101D32006E61626C6520766572626F7365206465A0
:101D42006275670D0A0076202D2073686F77207602
:101D5200657273696F6E0D0A0073202D20737461B2
:101D6200746973746963730D0A0D0A005E430D0A88
:101D7200001B5B441B5B4B0052583031206472697C
:101D8200766520656D756C61746F7220666F722066
:101D92005044502D313120636F6D70617469626CF3
:101DA2006520636F6D7075746572732E0D0A005431
:101DB20065737465642077697468204D43313230ED
:101DC200312E303220616E6420493420626F61729C
:101DD20064732E0D0A004372656174656420627932
:101DE20020546563686E6F6D616E6365720D0A00E3
:101DF2007068616E746F6D2E73616E6E6174612EA8
:081E02007275005253540000F8
:00000001FF
