:020000040000FA
:200000000C94E7010C9404020C9404020C9404020C9404020C9404020C9404020C940402CE
:200020000C9404020C9404020C9404020C94CC0B0C9404020C9404020C9404020C940402BF
:200040000C9404020C9404020C94E7020C9404020C9440030C9404020C9404020C94040250
:200060000C9404020C940402E907EC07EF07F207F807FB07F5070208FE07A20CEE0C490D58
:20008000490DBE0DAD0D490DB50D0D0A436F6D6D616E64733A0D0A3F202D2068656C700D71
:2000A0000A787330202D2073656E642052583020696D616765206F76657220586D6F6465EE
:2000C0006D0D0A787331202D2073656E642052583120696D616765206F76657220586D6F1B
:2000E00064656D0D0A787230202D20726563656976652052583020696D616765206F7665C2
:200100007220586D6F64656D0D0A787231202D20726563656976652052583120696D6167A8
:2001200065206F76657220586D6F64656D0D0A6230202D206261636B7570205258302069E5
:200140006D6167650D0A6231202D206261636B75702052583120696D6167650D0A72302081
:200160002D20726573746F72652052583020696D6167652066726F6D206261636B75700D9A
:200180000A7231202D20726573746F72652052583120696D6167652066726F6D2062616309
:2001A0006B75700D0A6430202D2064697361626C652064656275670D0A6431202D20656EF0
:2001C00061626C652064656275670D0A6432202D20656E61626C6520766572626F736520AD
:2001E00064656275670D0A76202D2073686F772076657273696F6E0D0A73202D20737461D8
:20020000746973746963730D0A0D0A3E00202020202020202020202020202020205F0D0AF9
:200220002020202020202020202020202020202020205C205C0D0A2020202020202020206F
:20024000202020202020202020205C205C0D0A20202020202020202020202020202020204F
:200260002020207C207C0D0A20202020202F5C2D2D2D2F5C205F2E2D2D2D2E5F7C207C0DCC
:200280000A202020202F205E20205E20205C2020202020202020205C0D0A20202020282092
:2002A00030202030202029202020202020202020203B0D0A2020202020273D593D5F2E2755
:2002C000202020202020202020203B0D0A2020202020202F20202020205F5F3B2D2D2E5F1D
:2002E0002020205C0D0A20202020202F205F29203D2720202020202F202F20202F0D0A206C
:200300002020202F203B2F203B2720202020202F202F203B270D0A20202028202F28203B31
:200320002720202020285F285F5F2F0D0A0D0A3E000D0A2D2D2D2D2D0D0A52583031206470
:200340007269766520656D756C61746F7220666F72205044502D313120636F6D7061746957
:20036000626C6520636F6D7075746572732E0D0A5465737465642077697468204D433132AB
:2003800030312E30312C204D43313230312E303220616E6420493420626F617264732E0D77
:2003A0000A4372656174656420627920546563686E6F6D616E6365720D0A7068616E746FE8
:2003C0006D2E73616E6E6174612E7275000011241FBECFEFD8E0DEBFCDBF13E0A0E0B1E0D2
:2003E000E0E1FCE102C005900D92AA37B107D9F725E0AAE7B3E001C01D92A43CB207E1F7F6
:200400000E94FB0B0C94060E0C9400009091C00095FFFCCF8093C60008958091020184FD95
:2004200030C04091940350919503FA01E456FB4F808120910201309103012F7D309303017F
:20044000209302014B38510529F4109295031092940306C04F5F5F4F509395034093940376
:20046000609194037091950340919603509197036417750739F42061309303012093020154
:20048000089580E00895F8949091020196FD37C09091020197FF02C07894FACFF8942091FA
:2004A0009A0330919B03F901E85CFA4F808380910201909103018F7B909303018093020136
:2004C0002B38310529F410929B0310929A0306C02F5F3F4F30939B0320939A0340919A03E6
:2004E00050919B0320919803309199034217530761F48068909303018093020106C09091C0
:20050000C00095FFC5CF8093C600789480E00895CF93DF93EC018991882319F00E9443029B
:20052000FACFDF91CF9108958DE00E9406028AE00E9406028DE00E9406028AE00E9406022F
:200540008DE20E9406028DE20E9406028DE20E9406028DE20E9406028DE20E9406028DE0B1
:200560000E9406028AE00E94060285E50E94060281E40E94060282E50E94060284E50E947E
:20058000060280E20E9406028FE40E9406028BE40E94060280E20E94060281E30E940602F7
:2005A00081E30E94060285E30E94060282E30E94060280E30E94060280E30E94060284E08E
:2005C00091E00C94880280910201807108951F920F920FB60F9211242F933F934F935F9389
:2005E0008F939F93EF93FF934091C6008091020185FF0AC080910201909103018860909356
:2006000003018093020118952091960330919703F901E456FB4F40838091020190910301F4
:200620008F7E90930301809302012B38310529F4109297031092960306C02F5F3F4F30939E
:20064000970320939603409196035091970320919403309195034217530729F48062909359
:20066000030180930201FF91EF919F918F915F914F913F912F910F900FBE0F901F90189539
:200680001F920F920FB60F9211242F933F934F935F938F939F93EF93FF938091020186FD06
:2006A00034C0E0919803F0919903E85CFA4F80818093C60080910201909103018F77909354
:2006C00003018093020120919803309199032B38310529F4109299031092980306C02F5FD2
:2006E0003F4F3093990320939803409198035091990320919A0330919B034217530729F459
:2007000080649093030180930201FF91EF919F918F915F914F913F912F910F900FBE0F90ED
:200720001F90189583E191E00E9488028DE191E00C9488028DE391E00E9488028CE291E067
:200740000E9488028AE291E00C9488028DE391E00E94880280E491E00E9488028AE291E07B
:200760000C9488022A9A28E090E080E0880F189902C08F5F9F5F5C9835E03A95F1F75C9A07
:200780003AE03A95F1F7215089F7189B9F5F90FD05C08BE591E00E9488028FEF08952A9AA8
:2007A00098E080E0880F189B8F5F5C9825E02A95F1F75C9A2AE02A95F1F7915099F70895D4
:2007C00098E087FD02C0299A01C02998880F25E02A95F1F75C9825E02A95F1F75C9A2AE033
:2007E0002A95F1F7915069F7299A08958EBD0DB407FEFDCF8EB50895CF93C82F41988AE058
:200800008A95F1F780E50E94F603419A8AE08A95F1F741988AE08A95F1F781E00E94F6033F
:200820008C2F0E94F603419A8AE08A95F1F7CF91089541988AE08A95F1F785E00E94F603CF
:2008400080E00E94F603419A9AE09A95F1F7089541988AE08A95F1F786E00E94F603419A6E
:200860008AE08A95F1F708951F93CF93DF93EB01182F0E9428040E94190480FDFCCF419803
:200880008AE08A95F1F780E20E94F603812F0E94F6038D2F0E94F6038C2F0E94F603419A17
:2008A0008AE08A95F1F70E94190480FDFCCFDF91CF911F910895CF92DF92EF92FF92CF935D
:2008C0006B017C01C0E4C701B6010E94340480E1D80EE11CF11CC150B1F7CF91FF90EF90BA
:2008E000DF90CF900895FF920F931F93CF93DF93EB01182FF42E41988AE08A95F1F783E0D2
:200900000E94F603812F0E94F6038D2F0E94F6038C2F0E94F603CCE1D4E00CE913E0F4E027
:20092000CC39DF0779F080E0F11004C00E94F603888304C00E94F603F801808321960F5F18
:200940001F4FEDCF419A8AE08A95F1F7DF91CF911F910F91FF900895FF920F931F93CF938E
:20096000DF93EB01182FF42E0E942804419885E08A95F1F78DEA0E94F603812F0E94F60340
:200980008D2F0E94F6038C2F0E94F603F11007C080911C040E94F60380911D0406C080910D
:2009A0009C030E94F60380919D030E94F603419AE5E0EA95F1F70E94190480FDFCCFCCE1F6
:2009C000D4E00CE913E04198F5E0FA95F1F78DEA0E94F603F11005C08A810E94F6038B81CC
:2009E00006C0F80182810E94F603F80183810E94F603419AF5E0FA95F1F70E94190480FD9F
:200A0000FCCF22960E5F1F4F84E0CA39D807D9F64198E5E0EA95F1F784E00E94F603419A84
:200A2000F5E0FA95F1F7DF91CF911F910F91FF9008954F925F926F927F928F929F92AF92A7
:200A4000BF92CF92DF92EF92FF92CF93DF933B01D82FC92F49015A01CA01B9010E945B0427
:200A60006301ED2EFC2EC0E0D8E08C189D08AE08BF08240135014C0C5D1C6E1C7F1C40E03E
:200A8000C701B6010E94730440E0C301B2010E94AC0480E8C80ED11CE11CF11C219749F7A8
:200AA000DF91CF91FF90EF90DF90CF90BF90AF909F908F907F906F905F904F9008950F9393
:200AC0001F93CF93DF93C82F811102C0429A01C0439A0AE1609FB0011124CB01770FAA0BF4
:200AE000BB0B840F911DA11DB11D27E0880F991FAA1FBB1F2A95D1F74C2F50E060E070E0A8
:200B000033E1440F551F661F771F3A95D1F78A019B01080F191F2A1F3B1FC901B80141E08B
:200B20000E94730488B1837F88B9D0E0CC0FDD1FCF57DC4F8881998101969983888380E007
:200B4000DF91CF911F910F910895CF93C82F82958F708A3010F0895C01C0805D0E94430245
:200B60008C2F8F708A3010F0895C01C0805DCF910C944302AF92BF92DF92EF92FF920F9382
:200B80001F93CF93DF93EC01D62E84E0F82E00E117E2E12C9AE0A92EB12C20E0C017D10790
:200BA00030F02F5FC01BD10BEE24E394F7CFC801B5010E94EC0D8B01EE2019F080E3820FD0
:200BC00003C0DD2019F080E20E944302FA94F110E4CF8C2F805DDF91CF911F910F91FF907A
:200BE000EF90DF90BF90AF900C9443026F927F928F929F92AF92BF92CF92DF92EF92FF92BA
:200C00000F931F93CF93DF93C82F883009F466C38D3041F0833009F06DC310927A038AE67E
:200C200093E048C390917A03911103C08DE391E041C380912805823609F4F4C188F4823573
:200C400009F427C238F4823409F4ECC1843409F466C223C38635C1F0883509F45AC01DC33F
:200C6000823709F416C238F4833609F408C3843609F455C212C3863739F0883709F449C0EB
:200C8000833709F47BC209C3913009F044C08DE391E00E94880288E691E00E948802C0E41A
:200CA000DFE7FE0184918F3710F40E9443022196C038FFE7DF07A9F78DE391E00E94880281
:200CC0008DE691E00E948802C0E0DFE7FE0184918F3710F40E9443022196C034FFE7DF0762
:200CE000A9F78DE391E00E94880282E791E00E948802C0E0D7E7FE0184918F3710F40E9463
:200D000043022196C034F7E7DF07A9F78BE391E0FFC1933019F00E949A03C9C2809129050B
:200D2000833559F020F4823509F46FC04BC1823709F46BC0833709F045C180912A05805302
:200D4000823018F00E94A6035CC18DE391E00E94880287E791E00E94880280912A050E9477
:200D6000430282E891E00E94880280912A05982F917080FD02C0429A01C0439A892E912CF2
:200D8000A12CB12CE3E1880C991CAA1CBB1CEA95D1F710928A0310928903C1E0D0E0712C6D
:200DA000FCE9EF2EF4E0FF2E80910201807125E02A95F1F7811120C00E940D02853131F481
:200DC000739439E0371508F4F4C2BCC2833009F4F2C2863089F480E8880E911CA11CB11CAB
:200DE00010928A03109289032196C33D97E0D90709F4D1C2712CA6C28091890390918A03A8
:200E00008C32914088F2C3E0D2C080912A058053823008F097CF8DE391E00E94880288E9F3
:200E200091E00E94880280912A050E94430282E891E00E94880280912A05F82FF170FF2EF2
:200E400080FD02C0429A01C0439A60E070E08CE090E00E945B0410928A031092890385E1A9
:200E60000E944302D0E0E12C812C912C7CE0A72EB12C01E010E0C0E0809102018071D82EDA
:200E800025E02A95F1F78091890390918A034E9738F010928A031092890385E10E944302A4
:200EA000D11055C010928A03109289030E940D02D130D9F060F0D230F9F0D33839F1ED2FD8
:200EC000F0E0E75EFB4F8083E80EDF5F40C0833009F460C0843019F08130C9F556C2023D29
:200EE000174008F054C2C8E056C090E0980133278217930749F428C090E098012095309591
:200F000033278217930711F1C4E045C0E81241C2033D87E0180728F085E10E944302C7E0CA
:200F20003AC040E0C501B4010E94AC040F5F1F4F90E8890E911CA11CB11C86E00E9443025B
:200F4000D0E0E12CC1E098CFD2E001C0D3E0C23008F492CFC230F9F48F2D90E0A0E0B0E03C
:200F60009C01AD0163E1220F331F441F551F6A95D1F760E070E08CE090E00E94190586E02F
:200F80000E944302EFEFFFEF2CE2E150F0402040E1F70BC0CAE086E00E9443023FEF8FEF89
:200FA0009CE2315080409040E1F700C0000088B1837F88B98C2F90E0FC013297E930F1058E
:200FC00008F503C00E949A031CC0EC5CFF4F0C94000E85EA91E021C08CEA91E01EC08EEBF3
:200FE00091E01BC080EE91E018C084EF91E015C08DE092E012C08FE292E00FC087E492E0F5
:201000000CC0C0E080E20E9443028C2F0E94A50580E20E94430284E692E00E9488028DE353
:2010200091E076C0923009F076CE8091290580538230B8F58DE391E00E9488028AE792E0A9
:201040000E948802809129050E94430288E892E00E94880280912905982F917080FD02C0EA
:20106000429A01C0439AC92ED12CE12CF12C93E1CC0CDD1CEE1CFF1C9A95D1F784E992E098
:201080000E948802A7019601405F5F4FC701B60138C0923009F03FCE809129058053823095
:2010A00018F00E94A60303C18DE391E00E9488028AEA92E00E948802809129050E944302D4
:2010C00087EB92E00E94880280912905282F217080FD02C0429A01C0439AC22ED12CE12C26
:2010E000F12C84E992E00E948802A701960183E1220F331F441F551F8A95D1F7CA01B9015F
:2011000040960E94190588B1837F88B981EA92E00E9488028AE291E00E948802C8C0923061
:2011200009F0F9CD8DE391E00E94880280912905813361F0823399F08033C9F480918C0351
:201140008C7F80938C038FEC92E013C080918C038D7F816080938C038BED92E00AC080912E
:201160008C03836080938C0386EE92E002C089EF92E00E94880288E291E0CECF913009F06B
:20118000CACD8DE391E00E94880283E193E00E94880289E293E00E948802C0917E03D0916B
:2011A0007F0300E11EE0CE01B8010E94EC0D7B0160E0C7010E94BA0582E393E00E948802C2
:2011C000E09EC001E19E900DF09E900D1124C81BD90BCE016CE370E00E94EC0D8B0160E0B8
:2011E000C8010E94BA0585E393E00E9488022CE3209FC001219F900D112460E0FE01E81B5B
:20120000F90BCF010E94BA0588E393E00E9488028CE393E00E94880284E593E00E94880279
:2012200061E080918503909186030E94BA058DE593E00E94880261E080918103909182033C
:201240000E94BA058DE391E00E9488028FE593E00E94880261E080918703909188030E94E3
:20126000BA058DE593E00E94880261E080918303909184030E94BA058DE391E07ACF9130D2
:2012800009F049CDCDE0D2E0FE018491882309F472CF0E9443022196F7CFCAE8D0E0FE011E
:2012A0008491882321F00E9443022196F8CF10927A0383C00E9488028AE291E0DF91CF91BD
:2012C0001F910F91FF90EF90DF90CF90BF90AF909F908F907F906F900C94880280917A0340
:2012E000882361F08FE693E00E94880280917A03815025C080917A03803188F087E0DF910C
:20130000CF911F910F91FF90EF90DF90CF90BF90AF909F908F907F906F900C94430280EE04
:201320008C0F8F3508F049C08C2F0E94430280917A03E82FF0E0E85DFA4FC0838F5F809364
:201340007A033BC040E0C501B4010E94730481E00E9443028C2F0E9443028C2F80950E9405
:2013600043020CE114E0612CE016F10651F06801F80181918F010E944302F6018081680E33
:20138000F3CF862D0E9443020FCDD1E074CDC2E0E3CDC5E000CE84E00E944302FFEF2FEF07
:2013A00039E5F15020403040E1F700C00000C2E0FECDCBE0FCCDCAE0FACDDF91CF911F9194
:2013C0000F91FF90EF90DF90CF90BF90AF909F908F907F906F9008952F923F924F925F92A6
:2013E0006F927F928F929F92AF92BF92CF92DF92EF92FF920F931F93CF93DF93CDB7DEB7D2
:201400002D970FB6F894DEBF0FBECDBF8D83811102C0429A01C0439A2AE1629FC0011124E1
:20142000092E000CAA0BBB0B840F911DA11DB11D27E0880F991FAA1FBB1F2A95D1F73D81E3
:20144000432F50E060E070E033E1440F551F661F771F3A95D1F71A012B01280E391E4A1E91
:201460005B1E52014101882480EF9822C0908D03D12CE12CF12C4CE0CC0CDD1CEE1CFF1C60
:201480004A95D1F7D701C60114968E839F83A887B9870E9428046E817F81888599850E9430
:2014A000340400E010E0D501C4018C199D09AE09BF098A879B87AC87BD875AE9652E54E00B
:2014C000752E40E06A857B858C859D856C0D7D1D8E1D9F1D0E9473040E942804419895E078
:2014E0009A95F1F78DEA0E94F603D701C601149689839A83AB83BC838B810E94F6038A8132
:201500000E94F6038C2D0E94F60380911C040E94F60380911D040E94F603419A95E09A95C4
:20152000F1F70E94190480FDFCCFACE1B4E0BA83A9834198B5E0BA95F1F78DEA0E94F6037B
:20154000E981FA8182810E94F603A981BA8113968C910E94F603419AB5E0BA95F1F70E94F9
:20156000190480FDFCCFE981FA813296FA83E9836E167F06F1F64198F5E0FA95F1F784E0F7
:201580000E94F603419A25E02A95F1F70F5F1F4F30E8C30ED11CE11CF11C0032110509F02C
:2015A00090CF0E942804C501B4010E943404CE80DF80E884F984612C712C41988AE08A9587
:2015C000F1F783E00E94F6038E2D0E94F6038D2D0E94F6038C2D0E94F603ACE1B4E0BA83C8
:2015E000A9832CE934E089819A812817390749F080E00E94F603E981FA818193FA83E983DC
:20160000F0CF419A9AE09A95F1F70E9428044198A5E0AA95F1F78DEA0E94F6038A2D0E94E1
:20162000F603892D0E94F603882D0E94F603281439044A045B0439F480919C030E94F60372
:2016400080919D0306C080911C040E94F60380911D040E94F603419AB5E0BA95F1F70E9431
:20166000190480FDFCCFECE9F3E0FA83E9830CE114E04198F5E0FA95F1F78DEA0E94F6035C
:20168000281439044A045B0449F4A981BA8112968C910E94F603E981FA8106C0D8011296F6
:2016A0008C910E94F603F80183810E94F603419A0E94190480FDFCCF29813A812E5F3F4F78
:2016C0003A8329830E5F1F4F8AE194E08217930781F6419895E09A95F1F784E00E94F603D9
:2016E000419AA5E0AA95F1F7BFEF6B1A7B0AE0E8CE0ED11CE11CF11CF0E88F0E911CA11C31
:20170000B11C20E26216710409F057CF80918D038F5F80938D03803411F410928D033D8113
:20172000E32FF0E0EE0FFF1FEB57FC4F8081918101969183808388B1837F88B980E02D96BF
:201740000FB6F894DEBF0FBECDBFDF91CF911F910F91FF90EF90DF90CF90BF90AF909F9089
:201760008F907F906F905F904F903F902F9008955E985D9A8FEF8093010110928F031092ED
:20178000920380918C0380FF06C08DE00E9443028AE00C94430208951F920F920FB60F92D7
:2017A00011248F939F9380918B038F5F80938B038091890390918A03019690938A038093CD
:2017C0008903809180038F5F8A3019F0809380030BC01092800380917E0390917F030196E6
:2017E00090937F0380937E039F918F910F900FBE0F901F9018955B9A53985A9A5298289A79
:201800002098459A3D98299A219A2A9A229A5E9A569A5D9A559A5F9A579A5C9A549A519AD7
:20182000589A509882E08093C00098ED9093C10096E09093C2001092C5009FE09093C40008
:20184000419A399A2C9A2498239A259A90E59CBD91E09DBD109280009CE09093810010925F
:2018600082002FE736E1309389002093880080936F007894429843983A9A3B9A60E072ECA8
:2018800081E090E00E949402C1E3D3E0FE018491882321F00E9443022196F8CFFFEF2FE7AF
:2018A00084E0F15020408040E1F700C000000E9492039FEFEFEFFCE29150E040F040E1F741
:2018C00000C000005E9880E00E94FC03D2E0C1E014E003E04A9954C1809101018F3F29F530
:2018E0005E9A5F9A10928B030E94B20384FB992790F99093930386958770809301018091B7
:201900008C0380FF12C010927D0310927C0383E40E94430280E20E94430280910101805D1D
:201920000E94430280E20E944302E09101018E2F90E08830910508F021C1FC01E35CFF4F25
:201940000C94000E80918F03811112C000938F032A981092920380918C0381FF11C18DE352
:2019600091E00E94880210927D0310927C0308C1E0909203F12C0E94CF03F701E456FC4FAB
:20198000808380918C0381FF20C0E0919203F0E0E456FC4F80810E94A50580E20E94430253
:2019A00080917C0390917D0301968830910528F490937D0380937C0308C010927D03109234
:2019C0007C038DE391E00E948802809192038F5F80939203803809F062C0D0C08091920336
:2019E00087FD21C080918F0381110EC010938F035D9821E32A95F1F7000080919C030E9458
:201A0000E003C09392034BC02A9AE0919203F0E0E456FC4F80810E94E003809192038F5FB7
:201A2000809392033CC02A9A0E94B80B80918C0381FFA6C010929203E0919203E7FD24C04E
:201A4000F0E0E456FC4F80810E94A50580E20E94430280917C0390917D0301968830910585
:201A600028F490937D0380937C0308C010927D0310927C038DE391E00E9488028091920357
:201A80008F5F80939203D8CF8DE391E00E94880277C080918F03811104C0C0938F032A9825
:201AA0006FC0813051F40E94B2038150809391038B3160F4D0938F03F2CF823009F060C0A1
:201AC0000E94B203809390038D3410F05F9856C080918C0380FF27C084E40E94430280E284
:201AE0000E9443028091930360E090E00E94BA0584E50E94430280E20E944302809190030A
:201B000060E090E00E94BA0580E20E94430283E50E94430280E20E9443028091910360E0EE
:201B200090E00E94BA0580910101833069F0863011F0823019F54091910360919003809144
:201B400093030E94EC091AC04091910360919003809193030E945F0511C05D9881E38A959F
:201B6000F1F700008091000107C05D9891E39A95F1F7000080918E030E94E0030E94B80B98
:201B80004B9921C040E061E080E00E945F055E9AEFEFFFE724E0E150F0402040E1F700C0A0
:201BA00000005D9881E38A95F1F7000084E80E94E00380918C0380FF04C086E793E00E946F
:201BC00088020E94B80B8091020184FD83CE0E940D020E94F6057ECEAA1BBB1B51E107C002
:201BE000AA1FBB1FA617B70710F0A61BB70B881F991F5A95A9F780959095BC01CD010895F4
:201C0000EE0FFF1F0590F491E02D0994F894FFCF84FF50000D0A55415254204649464F2001
:201C20004F4B000D0A2D2D2D2D2D0D0A00434C4920737461727465640D0A3E00554E4B4E7B
:201C40004F574E20434F4D4D414E440D0A0D0A00494E434F525245435420445249564520E0
:201C60004E554D4245520D0A0D0A00504152495459204552524F5200534E3A2000424C3A27
:201C8000200046573A200053656E64696E672052580020696D616765206F76657220586DB7
:201CA0006F64656D2E2E2E00526563656976696E6720525800446F6E650D0A004552524FBA
:201CC00052202D2054494D454F55540D0A004552524F52202D20494E434F52524543542047
:201CE0005041434B4554204E554D4245520D0A004552524F52202D20435243204552524F05
:201D0000520D0A004552524F52202D2046494C4520544F4F2053484F52540D0A0045525281
:201D20004F52202D20494E434F5252454354205041434B4554204845414445520D0A0045EF
:201D400052524F52202D2046494C4520544F4F204C4F4E470D0A005452414E5346455220B3
:201D600043414E43454C4C454420425920555345520D0A00534F4D455448494E472046554E
:201D8000434B45442055500D0A004261636B696E672075702052580020696D6167652E2E53
:201DA0002E0D0A00436F7079696E672E2E2E0D0A00446F6E650D0A0D0A00526573746F7231
:201DC000696E672052580020696D6167652066726F6D206261636B75702E2E2E0D0A004489
:201DE00065627567206F66660D0A004465627567206F6E0D0A00566572626F736520646514
:201E0000627567206F6E0D0A00494E434F52524543542044454255472053455454494E4702
:201E20000D0A0053657373696F6E20737461746973746963733A0D0A00557074696D653A3D
:201E400020006820006D2000730D0A00536563746F7273207772697474656E20207265613B
:201E6000640D0A004458303A202020202020004458313A202020202020005E430D0A001B87
:0A1E80005B441B5B4B0052535400FF
:1A77000076312E30206275696C64203435352032372D31322D32303139204A
:00000001FF
