:100000000C943C000C9459000C9459000C94590029
:100010000C9459000C9459000C9459000C945900FC
:100020000C9459000C9459000C9459000C945900EC
:100030000C9459000C9459000C9459000C945900DC
:100040000C9459000C9459000C9413010C94590011
:100050000C946C010C9459000C9459000C945900A8
:100060000C9459000C9459008C05A705CE05CE05BB
:1000700016060306CE050B0611241FBECFEFD8E0EF
:10008000DEBFCDBF11E0A0E0B1E0E2E9FCE002C0DC
:1000900005900D92A430B107D9F722E0A4E0B1E0B9
:1000A00001C01D92AB3AB207E1F70E9423050C9400
:1000B00047060C9400009091C00095FFFCCF809300
:1000C000C60008958DE00E945B008AE00E945B00FC
:1000D0008DE00E945B008AE00E945B008DE20E943E
:1000E0005B008DE20E945B008DE20E945B008DE26E
:1000F0000E945B008DE20E945B008DE00E945B002D
:100100008AE00E945B0085E50E945B0081E40E941A
:100110005B0082E50E945B0084E50E945B0080E258
:100120000E945B008FE40E945B008BE40C945B00F8
:100130008091020140910B0150910C0184FD05C09A
:10014000FA01ED56FE4F808101C080E0209102014E
:10015000309103012F7D30930301209302014B382E
:10016000510529F410920C0110920B0106C04F5F4B
:100170005F4F50930C0140930B0160910B01709104
:100180000C0140910D0150910E016417750729F47F
:10019000206130930301209302010895F894909117
:1001A000020196FF07C09091C00095FF03C08093A5
:1001B000C60036C09091020197FF03C0789481E099
:1001C00008952091110130911201F901E15EFD4F76
:1001D000808380910201909103018F7B90930301B2
:1001E000809302012B38310529F4109212011092EC
:1001F000110106C02F5F3F4F309312012093110170
:10020000409111015091120120910F013091100184
:100210004217530729F480689093030180930201E9
:10022000789480E008951F920F920FB60F921124D8
:100230002F933F934F935F938F939F93EF93FF93EE
:100240004091C6008091020185FF0AC080910201A1
:1002500090910301886090930301809302011895A7
:1002600020910D0130910E01F901ED56FE4F4083B2
:1002700080910201909103018F7E909303018093FE
:1002800002012B38310529F410920E0110920D0154
:1002900006C02F5F3F4F30930E0120930D01409118
:1002A0000D0150910E0120910B0130910C0142176C
:1002B000530729F480629093030180930201FF9118
:1002C000EF919F918F915F914F913F912F910F905F
:1002D0000FBE0F901F9018951F920F920FB60F929E
:1002E00011242F933F934F935F938F939F93EF939B
:1002F000FF938091020186FD34C0E0910F01F091DF
:100300001001E15EFD4F80818093C6008091020163
:10031000909103018F7790930301809302012091C4
:100320000F01309110012B38310529F41092100182
:1003300010920F0106C02F5F3F4F309310012093A2
:100340000F0140910F015091100120911101309146
:1003500012014217530729F480649093030180939C
:100360000201FF91EF919F918F915F914F913F918A
:100370002F910F900FBE0F901F901895CF93DF9382
:100380002A9A88E0D0E0C0E0CC0F189902C0CF5F75
:10039000DF5F5C9895E09A95F1F75C9A9AE09A9500
:1003A000F1F7815089F7189BDF5F8DE00E945B00B9
:1003B0008AE00E945B0080E50E945B0080E20E9470
:1003C0005B00D0FF08C08FE40E945B008BE40E94BA
:1003D0005B008C2F0AC085E40E945B0082E50E94CE
:1003E0005B0082E50E945B008FEFDF91CF91089563
:1003F0002A9A98E080E0880F189B8F5F5C9825E030
:100400002A95F1F75C9A2AE02A95F1F7915099F72D
:10041000089598E087FD02C0299A01C02998880FA5
:1004200025E02A95F1F75C9825E02A95F1F75C9A8A
:100430002AE02A95F1F7915069F7299A08958EBD1F
:100440000DB407FEFDCF8EB50895CF93C82F419808
:100450008AE08A95F1F780E50E941F02419A8AE0BE
:100460008A95F1F741988AE08A95F1F781E00E9438
:100470001F028C2F0E941F02419A8AE08A95F1F791
:10048000CF91089541988AE08A95F1F785E00E941E
:100490001F0280E00E941F02419A9AE09A95F1F7AC
:1004A000089541988AE08A95F1F786E00E941F023C
:1004B000419A8AE08A95F1F708951F93CF93DF93CD
:1004C000EB01182F0E94420280FDFCCF41988AE088
:1004D0008A95F1F780E20E941F02812F0E941F027D
:1004E0008D2F0E941F028C2F0E941F02419A8AE0CA
:1004F0008A95F1F70E94420280FDFCCFDF91CF91F7
:100500001F910895CF92DF92EF92FF92CF93DF93E6
:10051000429A9AE1699F600111240D2C000CEE08AB
:10052000FF08C40ED11CE11CF11CB701A60197E025
:10053000440F551F661F771F9A95D1F7C82ED12CEF
:10054000E12CF12C23E1CC0CDD1CEE1CFF1C2A95C8
:10055000D1F7C40ED51EE61EF71E41988AE08A9593
:10056000F1F783E00E941F028E2D0E941F028D2D45
:100570000E941F028C2D0E941F02C3E1D1E091E076
:10058000C339D90729F080E00E941F028993F7CF71
:10059000419A8AE08A95F1F7429880E0DF91CF9105
:1005A000FF90EF90DF90CF900895CF93C82F829562
:1005B0008F708A3010F0895C01C0805D0E945B0002
:1005C0008C2F8F708A3010F0895C01C0805DCF91D4
:1005D0000C945B002F923F924F925F926F927F92AA
:1005E0008F929F92AF92BF92CF92DF92EF92FF9243
:1005F0000F931F93CF93DF93CDB7DEB7CB58D109BD
:100600000FB6F894DEBF0FBECDBF429A9AE1699F44
:10061000600111240D2C000CEE08FF08C40ED11C43
:10062000E11CF11CB701A60197E0440F551F661F9E
:10063000771F9A95D1F7C82ED12CE12CF12C23E10C
:10064000CC0CDD1CEE1CFF1C2A95D1F7C40ED51E68
:10065000E61EF71E260137014424A0EF5A2280909F
:100660000401912CA12CB12C3CE0880C991CAA1CF3
:10067000BB1C3A95D1F7B4E0AB0EB11C0E945102FD
:10068000C501B4010E945D02CD57DF4F8882998277
:10069000AA82BB82C358D040C957DF4F48825982D3
:1006A0006A827B82C758D040212C312CFE01E15850
:1006B000FF4FCF57DF4FF983E883C158D0404198AF
:1006C000FAE0FA95F1F783E00E941F02C757DF4F67
:1006D0008881C958D0400E941F02C857DF4F8881C7
:1006E000C858D0400E941F02C957DF4F8881C758A1
:1006F000D0400E941F028E010F5F1F4FC557DF4F72
:100700001882CB58D04080E00E941F02D8018D9300
:100710008D01C557DF4FB881CB58D040BF5FC5575B
:10072000DF4FB883CB58D040B03869F7419AEAE040
:10073000EA95F1F70E9451024198F5E0FA95F1F738
:100740008DEA0E941F02CB57DF4F8881C558D040E9
:100750000E941F02CC57DF4F8881C458D0400E94AE
:100760001F02CD57DF4F8881C358D0400E941F021F
:1007700089810E941F028A810E941F02419A85E09E
:100780008A95F1F70E94420280FDFCCF8E010F5F37
:100790001F4F419895E09A95F1F78DEA0E941F024C
:1007A000D80112968C910E941F02F80183810E9449
:1007B0001F02419AF5E0FA95F1F70E94420280FD8E
:1007C000FCCF0E5F1F4FCF57DF4F88819981C158F3
:1007D000D04080179107E9F6419895E09A95F1F796
:1007E00084E00E941F02419AA5E0AA95F1F7BFEFAD
:1007F0002B1A3B0AC957DF4F88819981AA81BB8197
:10080000C758D04080589F4FAF4FBF4FC957DF4F99
:1008100088839983AA83BB83C758D040CD57DF4FC5
:1008200088819981AA81BB81C358D04080589F4F4D
:10083000AF4FBF4FCD57DF4F88839983AA83BB83C8
:10084000C358D04090E22916310409F038CF0E94F5
:100850005102C301B2010E945D02CD57DF4F888271
:100860009982AA82BB82C358D040812C912C419896
:10087000AAE0AA95F1F783E00E941F02CB57DF4F51
:100880008881C558D0400E941F02CC57DF4F888115
:10089000C458D0400E941F02CD57DF4F8881C358F3
:1008A000D0400E941F028E010F5F1F4FB12C80E0CD
:1008B0000E941F02F80181938F01B394F0E8BF12E8
:1008C000F6CF419A8AE08A95F1F70E945102419849
:1008D00095E09A95F1F78DEA0E941F02862D0E94FD
:1008E0001F02852D0E941F02842D0E941F02C41426
:1008F000D504E604F70439F4809113010E941F0225
:100900008091140104C089810E941F028A810E9483
:100910001F02419AA5E0AA95F1F70E94420280FDCC
:10092000FCCF83E1A82E81E0B82E8E010F5F1F4F10
:100930004198B5E0BA95F1F78DEA0E941F02C41400
:10094000D504E604F70431F4F50182810E941F0208
:10095000D50105C0F80182810E941F02D8011396BB
:100960008C910E941F02419A0E94420280FDFCCF9E
:10097000B2E0AB0EB11C0E5F1F4FCF57DF4FE881C7
:10098000F981C158D040E017F10791F64198F5E0A0
:10099000FA95F1F784E00E941F02419A85E08A955A
:1009A000F1F79FEF891A990ACD57DF4F8881998116
:1009B000AA81BB81C358D04080589F4FAF4FBF4FD3
:1009C000CD57DF4F88839983AA83BB83C358D04018
:1009D00090E8490E511C611C711CA0E28A1691041A
:1009E00009F045CF809104018F5F8093040180342A
:1009F00011F410920401429880E0C557DF4F0FB602
:100A0000F894DEBF0FBECDBFDF91CF911F910F9144
:100A1000FF90EF90DF90CF90BF90AF909F908F901E
:100A20007F906F905F904F903F902F9008955E98C9
:100A30005D9A8FEF809301011092060110920901D7
:100A4000089580E008955B9A53985A9A5298289A8C
:100A50002098299A219A2A9A229A5E9A569A5D9A01
:100A6000559A5F9A579A5C9A549A519A589A509804
:100A700082E08093C00088E18093C10086E080938B
:100A8000C2001092C5008FE08093C400419A399A49
:100A90002C9A2498239A259A80E58CBD81E08DBDFF
:100AA00042983A9A60E072EC81E090E00E94620025
:100AB0002FEF8FEF9CE2215080409040E1F700C083
:100AC00000005E9880E00E942502D2E0C1E014E0C0
:100AD00003E04A99ABC0809101018F3F81F45E9A97
:100AE0005F9A0E94BE0184FB992790F990930A01B6
:100AF0008695877080930101805D0E945B00E09184
:100B000001018E2F90E08830910508F08DC0FC0126
:100B1000EC5CFF4F0C94410680910601811106C0E8
:100B2000009306012A981092090180C0E090090103
:100B3000F12C0E94F801F701ED5EFE4F8083809159
:100B400009018F5F80930901803871F56DC0809134
:100B5000090187FD21C08091060181110EC010930B
:100B600006015D9821E32A95F1F7000080911301B9
:100B70000E940902C093090117C02A9AE091090155
:100B8000F0E0ED5EFE4F80810E9409028091090134
:100B90008F5F8093090108C02A9A46C080910601A0
:100BA000811104C0C09306012A9840C0813051F4DD
:100BB0000E94BE018150809308018B3160F4D09374
:100BC0000601F2CF823091F50E94BE01682F80931A
:100BD00007018D3410F05F9827C0809101018330A8
:100BE00059F0863011F08230F9F44091080180917B
:100BF0000A010E94EA0218C04091080180910A018E
:100C00000E94820211C05D9881E38A95F1F700008D
:100C10008091000107C05D9891E39A95F1F700007B
:100C2000809105010E9409020E9417054B9951CF3E
:100C300040E061E080E00E9482025E9A2FEF8FE741
:100C400094E0215080409040E1F700C000005D98A2
:100C500021E32A95F1F7000084E80E9409020E942E
:100C600017058AE00E945B008DE00E945B0082E530
:100C70000E945B0083E50E945B0084E50E945B00AC
:100C800028CFEE0FFF1F0590F491E02D0994F89402
:020C9000FFCF94
:040C920084FF50008B
:00000001FF
