:020000040000FA
:200000000C9445000C9462000C9462000C9462000C9462000C9462000C9462000C946200ED
:200020000C9462000C9462000C9462000C94820A0C9462000C9462000C9462000C94620086
:200040000C9462000C9462000C9445010C9462000C949E010C9462000C9462000C9462006F
:200060000C9462000C94620047064A064D06500656065906530660065C06600BAC0B070C25
:20008000070C7C0C6B0C070C730C11241FBECFEFD8E0DEBFCDBF16E0A0E0B1E0ECE8F9E156
:2000A00002C005900D92A43BB107D9F728E0A4EBB6E001C01D92AE3FB207E1F70E94B10A6B
:2000C0000C94C40C0C9400009091C00095FFFCCF8093C60008958091020184FD30C0409104
:2000E000CE065091CF06FA01EA52F84F808120910201309103012F7D309303012093020155
:200100004B38510529F41092CF061092CE0606C04F5F5F4F5093CF064093CE066091CE06B6
:200120007091CF064091D0065091D1066417750739F420613093030120930201089580E06B
:200140000895F8949091020196FD37C09091020197FF02C07894FACFF8942091D40630919F
:20016000D506F901EE58F74F808380910201909103018F7B90930301809302012B38310502
:2001800029F41092D5061092D40606C02F5F3F4F3093D5062093D4064091D4065091D506D5
:2001A0002091D2063091D3064217530761F48068909303018093020106C09091C00095FFB4
:2001C000C5CF8093C600789480E00895CF93DF93EC018991882319F00E94A100FACFDF919E
:2001E000CF9108958DE00E9464008AE00E9464008DE00E9464008AE00E9464008DE20E942B
:2002000064008DE20E9464008DE20E9464008DE20E9464008DE20E9464008DE00E94640033
:200220008AE00E94640085E50E94640081E40E94640082E50E94640084E50E94640080E235
:200240000E9464008FE40E9464008BE40E94640080E20E94640081E30E94640081E30E94D2
:20026000640085E30E94640082E30E94640080E30E94640080E30E94640084E091E00C94FA
:20028000E60080910201807108951F920F920FB60F9211242F933F934F935F938F939F932D
:2002A000EF93FF934091C6008091020185FF0AC080910201909103018860909303018093D6
:2002C000020118952091D0063091D106F901EA52F84F408380910201909103018F7E9093A6
:2002E0000301809302012B38310529F41092D1061092D00606C02F5F3F4F3093D10620930E
:20030000D0064091D0065091D1062091CE063091CF064217530729F48062909303018093A1
:200320000201FF91EF919F918F915F914F913F912F910F900FBE0F901F9018951F920F9241
:200340000FB60F9211242F933F934F935F938F939F93EF93FF938091020186FD34C0E09136
:20036000D206F091D306EE58F74F80818093C60080910201909103018F779093030180936C
:2003800002012091D2063091D3062B38310529F41092D3061092D20606C02F5F3F4F3093E7
:2003A000D3062093D2064091D2065091D3062091D4063091D5064217530729F48064909378
:2003C000030180930201FF91EF919F918F915F914F913F912F910F900FBE0F901F901895DC
:2003E00083E191E00E94E6008DE191E00C94E6008DE391E00E94E6008CE291E00E94E6006B
:200400008AE291E00C94E6008DE391E00E94E60080E491E00E94E6008AE291E00C94E60050
:200420002A9A28E090E080E0880F189902C08F5F9F5F5C9835E03A95F1F75C9A3AE03A958B
:20044000F1F7215089F7189B9F5F90FD05C08BE591E00E94E6008FEF08952A9A98E080E0A0
:20046000880F189B8F5F5C9825E02A95F1F75C9A2AE02A95F1F7915099F7089598E087FDF3
:2004800002C0299A01C02998880F25E02A95F1F75C9825E02A95F1F75C9A2AE02A95F1F7CB
:2004A000915069F7299A08958EBD0DB407FEFDCF8EB50895CF93C82F41988AE08A95F1F73B
:2004C00080E50E945402419A8AE08A95F1F741988AE08A95F1F781E00E9454028C2F0E9473
:2004E0005402419A8AE08A95F1F7CF91089541988AE08A95F1F785E00E94540280E00E94B4
:200500005402419A9AE09A95F1F7089541988AE08A95F1F786E00E945402419A8AE08A9570
:20052000F1F708951F93CF93DF93EB01182F0E9486020E94770280FDFCCF41988AE08A958E
:20054000F1F780E20E945402812F0E9454028D2F0E9454028C2F0E945402419A8AE08A95E6
:20056000F1F70E94770280FDFCCFDF91CF911F910895CF92DF92EF92FF92CF936B017C01E4
:20058000C0E4C701B6010E94920280E1D80EE11CF11CC150B1F7CF91FF90EF90DF90CF90BC
:2005A0000895FF920F931F93CF93DF93EB01182FF42E41988AE08A95F1F783E00E945402EB
:2005C000812F0E9454028D2F0E9454028C2F0E945402C6E5D7E006ED16E0F7E0C63DDF0701
:2005E00079F080E0F11004C00E945402888304C00E945402F801808321960F5F1F4FEDCF63
:20060000419A8AE08A95F1F7DF91CF911F910F91FF900895FF920F931F93CF93DF93EB019D
:20062000182FF42E0E948602419885E08A95F1F78DEA0E945402812F0E9454028D2F0E946D
:2006400054028C2F0E945402F11007C0809156070E9454028091570706C08091D6060E949F
:2006600054028091D7060E945402419AE5E0EA95F1F70E94770280FDFCCFC6E5D7E006ED7F
:2006800016E04198F5E0FA95F1F78DEA0E945402F11005C08A810E9454028B8106C0F8013C
:2006A00082810E945402F80183810E945402419AF5E0FA95F1F70E94770280FDFCCF229608
:2006C0000E5F1F4F87E0C43DD807D9F64198E5E0EA95F1F784E00E945402419AF5E0FA9589
:2006E000F1F7DF91CF911F910F91FF9008954F925F926F927F928F929F92AF92BF92CF929D
:20070000DF92EF92FF92CF93DF933B01D82FC92F49015A01CA01B9010E94B9026301ED2E41
:20072000FC2EC0E0D8E08C189D08AE08BF08240135014C0C5D1C6E1C7F1C40E0C701B60181
:200740000E94D10240E0C301B2010E940A0380E8C80ED11CE11CF11C219749F7DF91CF91E1
:20076000FF90EF90DF90CF90BF90AF909F908F907F906F905F904F9008950F931F93CF9392
:20078000DF93C82F811102C0429A01C0439A0AE1609FB0011124CB01770FAA0BBB0B840FF2
:2007A000911DA11DB11D27E0880F991FAA1FBB1F2A95D1F74C2F50E060E070E033E1440FDD
:2007C000551F661F771F3A95D1F78A019B01080F191F2A1F3B1FC901B80141E00E94D102C1
:2007E00088B1837F88B9D0E0CC0FDD1FC554D94F8881998101969983888380E0DF91CF91A4
:200800001F910F910895CF93C82F82958F708A3010F0895C01C0805D0E94A1008C2F8F7042
:200820008A3010F0895C01C0805DCF910C94A100AF92BF92DF92EF92FF920F931F93CF930F
:20084000DF93EC01D62E84E0F82E00E117E2E12C9AE0A92EB12C20E0C017D10730F02F5F39
:20086000C01BD10BEE24E394F7CFC801B5010E94AA0C8B01EE2019F080E3820F03C0DD2044
:2008800019F080E20E94A100FA94F110E4CF8C2F805DDF91CF911F910F91FF90EF90DF9033
:2008A000BF90AF900C94A1006F927F928F929F92AF92BF92CF92DF92EF92FF920F931F933B
:2008C000CF93DF93C82F883009F4BEC38D3041F0833009F0C5C31092B4068EE096E0A0C352
:2008E0009091B406911103C08DE391E099C380916208823609F4F4C188F4823509F427C27D
:2009000038F4823409F4ECC1843409F460C241C38635C1F0883509F45AC03BC3823709F47C
:2009200016C238F4833609F402C3843609F44FC230C3863739F0883709F449C0833709F41B
:2009400075C227C3913009F044C08DE391E00E94E60088E691E00E94E600C0E4DFE7FE017F
:2009600084918F3710F40E94A1002196C038FFE7DF07A9F78DE391E00E94E6008DE691E0ED
:200980000E94E600C0E0DFE7FE0184918F3710F40E94A1002196C034FFE7DF07A9F78DE3C1
:2009A00091E00E94E60082E791E00E94E600C0E0D7E7FE0184918F3710F40E94A1002196A6
:2009C000C034F7E7DF07A9F78BE391E020C3933019F00E94F80121C380916308833559F035
:2009E00020F4823509F46FC04BC1823709F46BC0833709F045C1809164088053823018F050
:200A00000E9404025CC18DE391E00E94E60087E791E00E94E600809164080E94A10082E817
:200A200091E00E94E60080916408982F917080FD02C0429A01C0439A892E912CA12CB12CA1
:200A4000E3E1880C991CAA1CBB1CEA95D1F71092C4061092C306C1E0D0E0712CF6EDEF2EE0
:200A6000F7E0FF2E80910201807125E02A95F1F7811120C00E946B00853131F4739439E047
:200A8000371508F44CC314C3833009F44AC3863089F480E8880E911CA11CB11C1092C40697
:200AA0001092C3062196C33D97E0D90709F429C3712CFEC28091C3069091C4068C32914023
:200AC00088F2C3E0D2C0809164088053823008F097CF8DE391E00E94E60088E991E00E941A
:200AE000E600809164080E94A10082E891E00E94E60080916408F82FF170FF2E80FD02C07C
:200B0000429A01C0439A60E070E08CE090E00E94B9021092C4061092C30685E10E94A10012
:200B2000D0E0E12C812C912C7CE0A72EB12C01E010E0C0E0809102018071D82E25E02A9540
:200B4000F1F78091C3069091C4064E9738F01092C4061092C30685E10E94A100D11055C065
:200B60001092C4061092C3060E946B00D130D9F060F0D230F9F0D33839F1ED2FF0E0ED5A24
:200B8000F84F8083E80EDF5F40C0833009F460C0843019F08130C9F5AEC2023D174008F0DD
:200BA000ACC2C8E056C090E0980133278217930749F428C090E098012095309533278217D8
:200BC000930711F1C4E045C0E81299C2033D87E0180728F085E10E94A100C7E03AC040E033
:200BE000C501B4010E940A030F5F1F4F90E8890E911CA11CB11C86E00E94A100D0E0E12C43
:200C0000C1E098CFD2E001C0D3E0C23008F492CFC230F9F48F2D90E0A0E0B0E09C01AD01F1
:200C200063E1220F331F441F551F6A95D1F760E070E08CE090E00E94770386E00E94A1001E
:200C4000EFEFFFEF2CE2E150F0402040E1F70BC0CAE086E00E94A1003FEF8FEF9CE2315058
:200C600080409040E1F700C0000088B1837F88B98C2F90E0FC013297E930F10508F503C010
:200C80000E94F8011CC0EC5CFF4F0C94BE0C85EA91E021C08CEA91E01EC08EEB91E01BC092
:200CA00080EE91E018C084EF91E015C08DE092E012C08FE292E00FC087E492E00CC0C0E018
:200CC00080E20E94A1008C2F0E94030480E20E94A10084E692E00E94E6008DE391E097C1C9
:200CE000923009F076CE8091630880538230B8F58DE391E00E94E6008AE792E00E94E60073
:200D0000809163080E94A10088E892E00E94E60080916308982F917080FD02C0429A01C08A
:200D2000439AC92ED12CE12CF12C93E1CC0CDD1CEE1CFF1C9A95D1F784E992E00E94E600F0
:200D4000A7019601405F5F4FC701B60138C0923009F03FCE809163088053823018F00E941D
:200D600004025BC18DE391E00E94E6008AEA92E00E94E600809163080E94A10087EB92E0D7
:200D80000E94E60080916308282F217080FD02C0429A01C0439AC22ED12CE12CF12C84E92A
:200DA00092E00E94E600A701960183E1220F331F441F551F8A95D1F7CA01B90140960E9458
:200DC000770388B1837F88B981EA92E020C1923009F0FFCD8DE391E00E94E60080916308F3
:200DE000813361F0823399F08033C9F48091C6068C7F8093C6068FEC92E013C08091C606DC
:200E00008D7F81608093C6068BED92E00AC08091C60683608093C60686EE92E002C089EF93
:200E200092E00E94E60088E291E0F5C0913009F0D0CD8DE391E00E94E60083E193E00E94EF
:200E4000E60089E293E00E94E600C091B806D091B90600E11EE0CE01B8010E94AA0C7B01DC
:200E600060E0C7010E94180482E393E00E94E600E09EC001E19E900DF09E900D1124C81BAE
:200E8000D90BCE016CE370E00E94AA0C8B0160E0C8010E94180485E393E00E94E6002CE3E3
:200EA000209FC001219F900D112460E0FE01E81BF90BCF010E94180488E393E00E94E600E6
:200EC0008CE393E00E94E60084E593E00E94E60061E08091BF069091C0060E9418048DE516
:200EE00093E00E94E60061E08091BB069091BC060E9418048DE391E00E94E6008FE593E0F3
:200F00000E94E60061E08091C1069091C2060E9418048DE593E00E94E60061E08091BD0607
:200F20009091BE060E9418048DE391E07ACF913009F04FCD8AE693E00E94E60081E893E0C7
:200F40000E94E60080E893E00E94E60089E993E00E94E60083EB93E00E94E6008DEC93E0E4
:200F60000E94E60087EE93E00E94E60082E094E00E94E6008CE194E00E94E60086E394E0D5
:200F80000E94E60080E594E00E94E60089E694E048CF8DE391E00E94E60080E894E00E9487
:200FA000E6008CE894E00E94E60087E994E00E94E6008AEB94E00E94E6008DED94E00E946E
:200FC000E60083E095E00E94E60089E295E00E94E60081E495E00E94E60089E595E00E947C
:200FE000E6008EE795E00E94E60083EA95E00E94E60088EB95E00E94E6008CEC95E00E9430
:20100000E60088EE95E00E94E6008BEF95E00E94E6008AE291E00E94E6001092B40683C0FC
:201020000E94E6008AE291E0DF91CF911F910F91FF90EF90DF90CF90BF90AF909F908F9073
:201040007F906F900C94E6008091B406882361F083E196E00E94E6008091B406815025C052
:201060008091B406803188F087E0DF91CF911F910F91FF90EF90DF90CF90BF90AF909F905C
:201080008F907F906F900C94A10080EE8C0F8F3508F049C08C2F0E94A1008091B406E82F34
:2010A000F0E0EE59F74FC0838F5F8093B4063BC040E0C501B4010E94D10281E00E94A10026
:2010C0008C2F0E94A1008C2F80950E94A10006E517E0612CE016F10651F06801F8018191EE
:2010E0008F010E94A100F6018081680EF3CF862D0E94A100B7CCD1E01CCDC2E08BCDC5E03B
:20110000A8CD84E00E94A100FFEF2FEF39E5F15020403040E1F700C00000C2E0A6CDCBE020
:20112000A4CDCAE0A2CDDF91CF911F910F91FF90EF90DF90CF90BF90AF909F908F907F903E
:201140006F9008952F923F924F925F926F927F928F929F92AF92BF92CF92DF92EF92FF92B5
:201160000F931F93CF93DF93CDB7DEB72D970FB6F894DEBF0FBECDBF8D83811102C0429AE3
:2011800001C0439A2AE1629FC0011124092E000CAA0BBB0B840F911DA11DB11D27E0880F86
:2011A000991FAA1FBB1F2A95D1F73D81432F50E060E070E033E1440F551F661F771F3A9598
:2011C000D1F71A012B01280E391E4A1E5B1E52014101882480EF9822C090C706D12CE12C01
:2011E000F12C4CE0CC0CDD1CEE1CFF1C4A95D1F7D701C60114968E839F83A887B9870E947C
:2012000086026E817F81888599850E94920200E010E0D501C4018C199D09AE09BF098A87B0
:201220009B87AC87BD8754ED652E57E0752E40E06A857B858C859D856C0D7D1D8E1D9F1DAB
:201240000E94D1020E948602419895E09A95F1F78DEA0E945402D701C601149689839A83A9
:20126000AB83BC838B810E9454028A810E9454028C2D0E945402809156070E9454028091D2
:2012800057070E945402419A95E09A95F1F70E94770280FDFCCFA6E5B7E0BA83A9834198CA
:2012A000B5E0BA95F1F78DEA0E945402E981FA8182810E945402A981BA8113968C910E9446
:2012C0005402419AB5E0BA95F1F70E94770280FDFCCFE981FA813296FA83E9836E167F060F
:2012E000F1F64198F5E0FA95F1F784E00E945402419A25E02A95F1F70F5F1F4F30E8C30E3A
:20130000D11CE11CF11C0032110509F090CF0E948602C501B4010E949202CE80DF80E88442
:20132000F984612C712C41988AE08A95F1F783E00E9454028E2D0E9454028D2D0E945402FC
:201340008C2D0E945402A6E5B7E0BA83A98326ED37E089819A812817390749F080E00E9448
:201360005402E981FA818193FA83E983F0CF419A9AE09A95F1F70E9486024198A5E0AA9543
:20138000F1F78DEA0E9454028A2D0E945402892D0E945402882D0E945402281439044A0425
:2013A0005B0439F48091D6060E9454028091D70606C0809156070E945402809157070E9491
:2013C0005402419AB5E0BA95F1F70E94770280FDFCCFE6EDF6E0FA83E98306E517E0419860
:2013E000F5E0FA95F1F78DEA0E945402281439044A045B0449F4A981BA8112968C910E9403
:201400005402E981FA8106C0D80112968C910E945402F80183810E945402419A0E9477024A
:2014200080FDFCCF29813A812E5F3F4F3A8329830E5F1F4F84E597E08217930781F641983D
:2014400095E09A95F1F784E00E945402419AA5E0AA95F1F7BFEF6B1A7B0AE0E8CE0ED11CD4
:20146000E11CF11CF0E88F0E911CA11CB11C20E26216710409F057CF8091C7068F5F8093C9
:20148000C706803411F41092C7063D81E32FF0E0EE0FFF1FE154F94F808191810196918361
:2014A000808388B1837F88B980E02D960FB6F894DEBF0FBECDBFDF91CF911F910F91FF9094
:2014C000EF90DF90CF90BF90AF909F908F907F906F905F904F903F902F9008955E985D9AEF
:2014E0008FEF809301011092C9061092CC068091C60680FF06C08DE00E94A1008AE00C9498
:20150000A10008951F920F920FB60F9211248F939F938091C5068F5F8093C5068091C306CA
:201520009091C40601969093C4068093C3068091BA068F5F8A3019F08093BA060BC010929E
:20154000BA068091B8069091B90601969093B9068093B8069F918F910F900FBE0F901F90C8
:2015600018955B9A53985A9A5298289A2098459A3D98299A219A2A9A229A5E9A569A5D9AF5
:20158000559A5F9A579A5C9A549A519A589A509882E08093C00098ED9093C10096E0909392
:2015A000C2001092C5009FE09093C400419A399A2C9A2498239A259A90E59CBD91E09DBD57
:2015C000109280009CE090938100109282002FE736E1309389002093880080936F00789463
:2015E000429843983A9A3B9A60E072EC81E090E00E94F20083E191E00E94E6008AE196E04C
:201600000E94E60081E596E00E94E60083E896E00E94E6008DE996E00E94E6002FEF8FE76D
:2016200094E0215080409040E1F700C000000E94F0012FEF8FEF9CE2215080409040E1F717
:2016400000C000005E9880E00E945A02D2E0C1E014E003E04A9952C1809101018F3F19F567
:201660005E9A5F9A0E94100284FB992790F99093CD0686958770809301018091C60680FF84
:2016800012C01092B7061092B60683E40E94A10080E20E94A10080910101805D0E94A10039
:2016A00080E20E94A100E09101018E2F90E08830910508F021C1FC01E35CFF4F0C94BE0CC9
:2016C0008091C906811112C00093C9062A981092CC068091C60681FF11C18DE391E00E947C
:2016E000E6001092B7061092B60608C1E090CC06F12C0E942D02F701EA52F94F80838091BE
:20170000C60681FF20C0E091CC06F0E0EA52F94F80810E94030480E20E94A1008091B606EA
:201720009091B70601968830910528F49093B7068093B60608C01092B7061092B6068DE326
:2017400091E00E94E6008091CC068F5F8093CC06803809F062C0D0C08091CC0687FD21C02F
:201760008091C90681110EC01093C9065D9821E32A95F1F700008091D6060E943E02C093F5
:20178000CC064BC02A9AE091CC06F0E0EA52F94F80810E943E028091CC068F5F8093CC0678
:2017A0003CC02A9A0E946E0A8091C60681FFA6C01092CC06E091CC06E7FD24C0F0E0EA5201
:2017C000F94F80810E94030480E20E94A1008091B6069091B70601968830910528F49093A3
:2017E000B7068093B60608C01092B7061092B6068DE391E00E94E6008091CC068F5F80938B
:20180000CC06D8CF8DE391E00E94E60077C08091C906811104C0C093C9062A986FC08130B5
:2018200051F40E94100281508093CB068B3160F4D093C906F2CF823009F060C00E94100278
:201840008093CA068D3410F05F9856C08091C60680FF27C084E40E94A10080E20E94A10044
:201860008091CD0660E090E00E94180484E50E94A10080E20E94A1008091CA0660E090E034
:201880000E94180480E20E94A10083E50E94A10080E20E94A1008091CB0660E090E00E9461
:2018A000180480910101833069F0863011F0823019F54091CB066091CA068091CD060E948D
:2018C000A2081AC04091CB066091CA068091CD060E94BD0311C05D9881E38A95F1F70000AA
:2018E0008091000107C05D9891E39A95F1F700008091C8060E943E020E946E0A4B9921C0EF
:2019000040E061E080E00E94BD035E9A2FEF8FE794E0215080409040E1F700C000005D9816
:2019200021E32A95F1F7000084E80E943E028091C60680FF04C080EB96E00E94E6000E9483
:201940006E0A8091020184FD85CE0E946B000E94540480CEAA1BBB1B51E107C0AA1FBB1F9B
:20196000A617B70710F0A61BB70B881F991F5A95A9F780959095BC01CD010895EE0FFF1FFE
:201980000590F491E02D0994F894FFCF84FF50000D0A55415254204649464F204F4B000DF8
:2019A0000A2D2D2D2D2D0D0A00434C4920737461727465640D0A3E00554E4B4E4F574E2091
:2019C000434F4D4D414E440D0A0D0A00494E434F5252454354204452495645204E554D4245
:2019E00045520D0A0D0A00504152495459204552524F5200534E3A2000424C3A200046571F
:201A00003A200053656E64696E672052580020696D616765206F76657220586D6F64656D51
:201A20002E2E2E00526563656976696E6720525800446F6E650D0A004552524F52202D2022
:201A400054494D454F55540D0A004552524F52202D20494E434F5252454354205041434B69
:201A60004554204E554D4245520D0A004552524F52202D20435243204552524F520D0A003D
:201A80004552524F52202D2046494C4520544F4F2053484F52540D0A004552524F52202D7F
:201AA00020494E434F5252454354205041434B4554204845414445520D0A004552524F521B
:201AC000202D2046494C4520544F4F204C4F4E470D0A005452414E534645522043414E4366
:201AE000454C4C454420425920555345520D0A00534F4D455448494E47204655434B4544CF
:201B00002055500D0A004261636B696E672075702052580020696D6167652E2E2E0D0A00A7
:201B2000436F7079696E672E2E2E0D0A00446F6E650D0A0D0A00526573746F72696E67209A
:201B400052580020696D6167652066726F6D206261636B75702E2E2E0D0A004465627567C6
:201B6000206F66660D0A004465627567206F6E0D0A00566572626F736520646562756720DB
:201B80006F6E0D0A00494E434F52524543542044454255472053455454494E470D0A005379
:201BA000657373696F6E20737461746973746963733A0D0A00557074696D653A2000682082
:201BC000006D2000730D0A00536563746F7273207772697474656E2020726561640D0A00EB
:201BE0004458303A202020202020004458313A202020202020002020202020202020202018
:201C000020202020202020205F0D0A00202020202020202020202020202020202020205C92
:201C2000205C0D0A0020202020202020202020202020202020202020207C207C0D0A002042
:201C4000202020202F5C2D2D2D2F5C205F2E2D2D2D2E5F7C207C0D0A00202020202F205E4A
:201C600020205E20205C2020202020202020205C0D0A0020202020282030202030202029C6
:201C8000202020202020202020203B0D0A002020202020273D593D5F2E27202020202020A4
:201CA000202020203B0D0A002020202020202F20202020205F5F3B2D2D2E5F2020205C0D1A
:201CC0000A0020202020202F205F29203D2720202020202F202F20202F0D0A0020202020DB
:201CE0002F203B2F203B2720202020202F202F203B270D0A0020202028202F28203B272051
:201D0000202020285F285F5F2F0D0A00436F6D6D616E64733A0D0A003F202D2068656C70D8
:201D20000D0A00787330202D2073656E642052583020696D616765206F76657220586D6F0D
:201D400064656D0D0A00787331202D2073656E642052583120696D616765206F76657220E9
:201D6000586D6F64656D0D0A00787230202D20726563656976652052583020696D6167655B
:201D8000206F76657220586D6F64656D0D0A00787231202D20726563656976652052583160
:201DA00020696D616765206F76657220586D6F64656D0D0A006230202D206261636B75700E
:201DC0002052583020696D6167650D0A006231202D206261636B75702052583120696D6107
:201DE00067650D0A007230202D20726573746F72652052583020696D6167652066726F6DFC
:201E0000206261636B75700D0A007231202D20726573746F72652052583120696D616765E3
:201E20002066726F6D206261636B75700D0A006430202D2064697361626C6520646562758C
:201E4000670D0A006431202D20656E61626C652064656275670D0A006432202D20656E6126
:201E6000626C6520766572626F73652064656275670D0A0076202D2073686F7720766572CA
:201E800073696F6E0D0A0073202D20737461746973746963730D0A0D0A005E430D0A001B46
:201EA0005B441B5B4B005258303120647269766520656D756C61746F7220666F72205044D9
:201EC000502D313120636F6D70617469626C6520636F6D7075746572732E0D0A0054657370
:201EE0007465642077697468204D43313230312E30312C204D43313230312E303220616EA7
:201F00006420493420626F617264732E0D0A004372656174656420627920546563686E6FAC
:201F20006D616E6365720D0A007068616E746F6D2E73616E6E6174612E72750052535400FB
:1A77000076312E30206275696C64203432302032362D31322D323031392053
:00000001FF
