:100000000C943C000C9459000C9459000C94590029
:100010000C9459000C9459000C9459000C945900FC
:100020000C9459000C9459000C9459000C945900EC
:100030000C9459000C9459000C9459000C945900DC
:100040000C9459000C9459000C9459000C945900CC
:100050000C9459000C9459000C9459000C945900BC
:100060000C9459000C9459002A0445046C046C0447
:10007000B404A1046C04A90411241FBECFEFD8E07E
:10008000DEBFCDBF11E0A0E0B1E0EEECF9E002C0D0
:1000900005900D92A230B107D9F721E0A2E0B1E0BE
:1000A00001C01D92A938B207E1F70E94C7030C9462
:1000B000E5040C9400002A9A98E080E0880F189BD1
:1000C0008F5F5C9825E02A95F1F75C9A2AE02A95E3
:1000D000F1F7915099F7089598E087FD02C0299AA9
:1000E00001C02998880F25E02A95F1F75C9825E052
:1000F0002A95F1F75C9A2AE02A95F1F7915069F771
:10010000299A08958EBD0DB407FEFDCF8EB50895D2
:10011000CF93C82F41988AE08A95F1F780E50E9435
:100120008200419A8AE08A95F1F741988AE08A959F
:10013000F1F781E00E9482008C2F0E948200419A98
:100140008AE08A95F1F7CF91089541988AE08A95DF
:10015000F1F785E00E94820080E00E948200419ACF
:100160009AE09A95F1F7089541988AE08A95F1F717
:1001700086E00E948200419A8AE08A95F1F708950C
:100180001F93CF93DF93EB01182F0E94A50080FDF2
:10019000FCCF41988AE08A95F1F780E20E948200C4
:1001A000812F0E9482008D2F0E9482008C2F0E943E
:1001B0008200419A8AE08A95F1F70E94A50080FDAD
:1001C000FCCFDF91CF911F910895CF92DF92EF92F4
:1001D000FF92CF93DF93429A9AE1699F60011124C5
:1001E0000D2C000CEE08FF08C40ED11CE11CF11C04
:1001F000B701A60197E0440F551F661F771F9A9518
:10020000D1F7C82ED12CE12CF12C23E1CC0CDD1C34
:10021000EE1CFF1C2A95D1F7C40ED51EE61EF71E54
:1002200041988AE08A95F1F783E00E9482008E2D42
:100230000E9482008D2D0E9482008C2D0E948200DF
:10024000C9E0D1E091E0C938D90729F080E00E94E7
:1002500082008993F7CF419A8AE08A95F1F7429814
:1002600080E0DF91CF91FF90EF90DF90CF900895E5
:100270002F923F924F925F926F927F928F929F92B6
:10028000AF92BF92CF92DF92EF92FF920F931F93A4
:10029000CF93DF93CDB7DEB7CB58D1090FB6F89423
:1002A000DEBF0FBECDBF429A9AE1699F6001112463
:1002B0000D2C000CEE08FF08C40ED11CE11CF11C33
:1002C000B701A60197E0440F551F661F771F9A9547
:1002D000D1F7C82ED12CE12CF12C23E1CC0CDD1C64
:1002E000EE1CFF1C2A95D1F7C40ED51EE61EF71E84
:1002F000260137014424A0EF5A2280900201912C5C
:10030000A12CB12C3CE0880C991CAA1CBB1C3A9572
:10031000D1F7B4E0AB0EB11C0E94B400C501B4012A
:100320000E94C000CD57DF4F88829982AA82BB828B
:10033000C358D040C957DF4F488259826A827B82B6
:10034000C758D040212C312CFE01E158FF4FCF5728
:10035000DF4FF983E883C158D0404198FAE0FA951D
:10036000F1F783E00E948200C757DF4F8881C958A8
:10037000D0400E948200C857DF4F8881C858D040C3
:100380000E948200C957DF4F8881C758D0400E9421
:1003900082008E010F5F1F4FC557DF4F1882CB5869
:1003A000D04080E00E948200D8018D938D01C55716
:1003B000DF4FB881CB58D040BF5FC557DF4FB88300
:1003C000CB58D040B03869F7419AEAE0EA95F1F7A6
:1003D0000E94B4004198F5E0FA95F1F78DEA0E9489
:1003E0008200CB57DF4F8881C558D0400E948200E1
:1003F000CC57DF4F8881C458D0400E948200CD572F
:10040000DF4F8881C358D0400E94820089810E94BA
:1004100082008A810E948200419A85E08A95F1F7E4
:100420000E94A50080FDFCCF8E010F5F1F4F4198F9
:1004300095E09A95F1F78DEA0E948200D801129614
:100440008C910E948200F80183810E948200419A6F
:10045000F5E0FA95F1F70E94A50080FDFCCF0E5F54
:100460001F4FCF57DF4F88819981C158D0408017E7
:100470009107E9F6419895E09A95F1F784E00E949A
:100480008200419AA5E0AA95F1F7BFEF2B1A3B0A2B
:10049000C957DF4F88819981AA81BB81C758D04055
:1004A00080589F4FAF4FBF4FC957DF4F8883998305
:1004B000AA83BB83C758D040CD57DF4F888199812D
:1004C000AA81BB81C358D04080589F4FAF4FBF4FC8
:1004D000CD57DF4F88839983AA83BB83C358D0400D
:1004E00090E22916310409F038CF0E94B400C3010C
:1004F000B2010E94C000CD57DF4F88829982AA8244
:10050000BB82C358D040812C912C4198AAE0AA9577
:10051000F1F783E00E948200CB57DF4F8881C558F6
:10052000D0400E948200CC57DF4F8881C458D04011
:100530000E948200CD57DF4F8881C358D0400E946F
:1005400082008E010F5F1F4FB12C80E00E9482005D
:10055000F80181938F01B394F0E8BF12F6CF419A6E
:100560008AE08A95F1F70E94B400419895E09A9547
:10057000F1F78DEA0E948200862D0E948200852D6F
:100580000E948200842D0E948200C414D504E604D7
:10059000F70439F4809109010E94820080910A01D8
:1005A00004C089810E9482008A810E948200419A4F
:1005B000A5E0AA95F1F70E94A50080FDFCCF89E097
:1005C000A82E81E0B82E8E010F5F1F4F4198B5E035
:1005D000BA95F1F78DEA0E948200C414D504E604AE
:1005E000F70431F4F50182810E948200D50105C033
:1005F000F80182810E948200D80113968C910E949A
:100600008200419A0E94A50080FDFCCFB2E0AB0EB3
:10061000B11C0E5F1F4FCF57DF4FE881F981C158E2
:10062000D040E017F10791F64198F5E0FA95F1F71F
:1006300084E00E948200419A85E08A95F1F79FEF5D
:10064000891A990ACD57DF4F88819981AA81BB8188
:10065000C358D04080589F4FAF4FBF4FCD57DF4F4B
:1006600088839983AA83BB83C358D04090E8490EFE
:10067000511C611C711CA0E28A16910409F045CF3F
:10068000809102018F5F80930201803411F41092F7
:100690000201429880E0C557DF4F0FB6F894DEBFE5
:1006A0000FBECDBFDF91CF911F910F91FF90EF90C3
:1006B000DF90CF90BF90AF909F908F907F906F9082
:1006C0005F904F903F902F9008955E985D9A8FEFC6
:1006D00080930101109204011092070108959091F6
:1006E000C00095FFFCCF8093C6000895CF93DF93A1
:1006F0002A9A88E0D0E0C0E0CC0F189902C0CF5F02
:10070000DF5F5C9895E09A95F1F75C9A9AE09A958C
:10071000F1F7815089F7189BDF5F8DE00E946F032E
:100720008AE00E946F0380E50E946F0380E20E94CE
:100730006F03D0FF08C08FE40E946F038BE40E9418
:100740006F038C2F0AC085E40E946F0382E50E942C
:100750006F0382E50E946F038FEFDF91CF910895C1
:10076000CF93C82F82958F708A3010F0895C01C0BA
:10077000805D0E946F038C2F8F708A3010F0895C2F
:1007800001C0805DCF910C946F0380E008955B9A67
:1007900053985A9A5298289A2098299A219A2A9AD4
:1007A000229A5E9A569A5D9A559A5F9A579A5C9ADF
:1007B000549A519A589A509882E08093C00088E1E8
:1007C0008093C10086E08093C2001092C5008FE044
:1007D0008093C400419A399A2C9A2498239A259A96
:1007E00080E58CBD81E08DBD42983A9A2FEF8FEF66
:1007F0009CE2215080409040E1F700C000005E98EC
:1008000080E00E948800D2E0C1E014E003E04A9951
:10081000ABC0809101018F3F81F45E9A5F9A0E9484
:10082000760384FB992790F9909308018695877049
:1008300080930101805D0E946F03E09101018E2F82
:1008400090E08830910508F08DC0FC01EC5CFF4F12
:100850000C94DF0480910401811106C0009304010F
:100860002A981092070180C0E0900701F12C0E94A5
:100870005B00F701E75FFE4F8083809107018F5F88
:1008800080930701803871F56DC08091070187FD65
:1008900021C08091040181110EC0109304015D9864
:1008A00021E32A95F1F70000809109010E946C0074
:1008B000C093070117C02A9AE0910701F0E0E75FB3
:1008C000FE4F80810E946C00809107018F5F8093B2
:1008D000070108C02A9A46C080910401811104C012
:1008E000C09304012A9840C0813051F40E947603DD
:1008F0008150809306018B3160F4D0930401F2CFD4
:10090000823091F50E947603682F809305018D3423
:1009100010F05F9827C080910101833059F0863034
:1009200011F08230F9F440910601809108010E9493
:10093000380118C040910601809108010E94E5002D
:1009400011C05D9881E38A95F1F700008091000164
:1009500007C05D9891E39A95F1F70000809103013B
:100960000E946C000E9465034B9951CF40E061E00A
:1009700080E00E94E5005E9A2FEF8FE794E021501F
:1009800080409040E1F700C000005D9821E32A9587
:10099000F1F7000084E80E946C000E9465038AE081
:1009A0000E946F038DE00E946F0382E50E946F0337
:1009B00083E50E946F0384E50E946F0328CFEE0F4A
:0E09C000FF1F0590F491E02D0994F894FFCFED
:0209CE0084FFA4
:00000001FF
