:100000000C943C000C9459000C9459000C94590029
:100010000C9459000C9459000C9459000C945900FC
:100020000C9459000C9459000C9459000C945900EC
:100030000C9459000C9459000C9459000C945900DC
:100040000C9459000C9459000C943C010C945900E8
:100050000C9495010C9459000C9459000C9459007F
:100060000C9459000C9459009408AF08D608D6088F
:100070001E090B09D608130911241FBECFEFD8E0C3
:10008000DEBFCDBF14E0A0E0B1E0E8EEF2E102C0D7
:1000900005900D92A63AB107D9F726E0A6EAB4E09A
:1000A00001C01D92A03EB207E1F70E940E080C9419
:1000B00072090C9400009091C00095FFFCCF8093D2
:1000C000C6000895809102014091B0045091B1049E
:1000D00084FD05C0FA01E854FA4F808101C080E038
:1000E00020910201309103012F7D30930301209371
:1000F00002014B38510529F41092B1041092B0045A
:1001000006C04F5F5F4F5093B1044093B0046091BD
:10011000B0047091B1044091B2045091B3046417DB
:10012000750729F42061309303012093020108959B
:10013000F8949091020196FD37C09091020197FFCB
:1001400002C07894FACFF8942091B6043091B704A5
:10015000F901EC5AF94F80838091020190910301DB
:100160008F7B90930301809302012B38310529F492
:100170001092B7041092B60406C02F5F3F4F309321
:10018000B7042093B6044091B6045091B70420916F
:10019000B4043091B5044217530761F4806890931A
:1001A00003018093020106C09091C00095FFC5CF66
:1001B0008093C600789480E00895CF93DF93EC019C
:1001C0008991882319F00E949800FACFDF91CF918E
:1001D00008958DE00E945B008AE00E945B008DE044
:1001E0000E945B008AE00E945B008DE20E945B003F
:1001F0008DE20E945B008DE20E945B008DE20E9416
:100200005B008DE20E945B008DE00E945B008AE053
:100210000E945B0085E50E945B0081E40E945B0018
:1002200082E50E945B0084E50E945B0080E20E9400
:100230005B008FE40E945B008BE40E945B0080E225
:100240000E945B0081E30E945B0081E30E945B00EF
:1002500085E30E945B0082E30E945B0080E30E94D2
:100260005B0080E30E945B0084E091E00C94DD0081
:1002700080910201807108951F920F920FB60F9224
:1002800011242F933F934F935F938F939F93EF93FB
:10029000FF934091C6008091020185FF0AC08091C2
:1002A0000201909103018860909303018093020101
:1002B00018952091B2043091B304F901E854FA4F33
:1002C000408380910201909103018F7E90930301FE
:1002D000809302012B38310529F41092B304109257
:1002E000B20406C02F5F3F4F3093B3042093B20493
:1002F0004091B2045091B3042091B0043091B10404
:100300004217530729F480629093030180930201FE
:10031000FF91EF919F918F915F914F913F912F911D
:100320000F900FBE0F901F9018951F920F920FB64F
:100330000F9211242F933F934F935F938F939F932B
:10034000EF93FF938091020186FD34C0E091B404E5
:10035000F091B504EC5AF94F80818093C6008091EA
:100360000201909103018F77909303018093020122
:100370002091B4043091B5042B38310529F4109242
:10038000B5041092B40406C02F5F3F4F3093B504FC
:100390002093B4044091B4045091B5042091B60464
:1003A0003091B7044217530729F4806490930301F6
:1003B00080930201FF91EF919F918F915F914F91F7
:1003C0003F912F910F900FBE0F901F90189583E1D2
:1003D00091E00E94DD008DE191E00C94DD008DE361
:1003E00091E00E94DD008CE291E00E94DD008AE253
:1003F00091E00C94DD008DE391E00E94DD0080E44B
:1004000091E00E94DD008AE291E00C94DD002A9ADE
:1004100028E090E080E0880F189902C08F5F9F5F0E
:100420005C9835E03A95F1F75C9A3AE03A95F1F745
:10043000215089F7189B9F5F90FD0AC085E40E94B8
:100440005B0082E50E945B0082E50E945B008FEF0B
:1004500008952A9A98E080E0880F189B8F5F5C9837
:1004600025E02A95F1F75C9A2AE02A95F1F7915058
:1004700099F7089598E087FD02C0299A01C029984C
:10048000880F25E02A95F1F75C9825E02A95F1F789
:100490005C9A2AE02A95F1F7915069F7299A089514
:1004A0008EBD0DB407FEFDCF8EB50895CF93C82F36
:1004B00041988AE08A95F1F780E50E945002419ABE
:1004C0008AE08A95F1F741988AE08A95F1F781E010
:1004D0000E9450028C2F0E945002419A8AE08A9515
:1004E000F1F7CF91089541988AE08A95F1F785E078
:1004F0000E94500280E00E945002419A9AE09A9530
:10050000F1F7089541988AE08A95F1F786E00E9414
:100510005002419A8AE08A95F1F708951F93CF938C
:10052000DF93EB01182F0E9482020E94730280FD6C
:10053000FCCF41988AE08A95F1F780E20E94500250
:10054000812F0E9450028D2F0E9450028C2F0E94FA
:100550005002419A8AE08A95F1F70E94730280FD69
:10056000FCCFDF91CF911F910895FF920F931F93BE
:10057000CF93DF93EB01182FF42E41988AE08A95F0
:10058000F1F783E00E945002812F0E9450028D2FCC
:100590000E9450028C2F0E945002C8E3D5E008EB65
:1005A00014E0F5E0C83BDF0779F080E0F11004C00B
:1005B0000E945002888304C00E945002F801808388
:1005C00021960F5F1F4FEDCF419A8AE08A95F1F790
:1005D000DF91CF911F910F91FF900895FF920F939C
:1005E0001F93CF93DF93EB01182FF42E0E9482020A
:1005F000419885E08A95F1F78DEA0E945002812F9B
:100600000E9450028D2F0E9450028C2F0E94500297
:10061000F11007C0809138050E9450028091390581
:1006200006C08091B8040E9450028091B9040E94D3
:100630005002419AE5E0EA95F1F70E94730280FDCD
:10064000FCCFC8E3D5E008EB14E04198F5E0FA955B
:10065000F1F78DEA0E945002F11005C08A810E94D4
:1006600050028B8106C0F80182810E945002F8017D
:1006700083810E945002419AF5E0FA95F1F70E94B9
:10068000730280FDFCCF22960E5F1F4F85E0C63BB4
:10069000D807D9F64198E5E0EA95F1F784E00E94A1
:1006A0005002419AF5E0FA95F1F7DF91CF911F9151
:1006B0000F91FF9008950F931F93282F429A0AE1FC
:1006C000609FB0011124CB01770FAA0BBB0B840FE5
:1006D000911DA11DB11DAC01BD0187E0440F551F47
:1006E000661F771F8A95D1F7822F90E0A0E0B0E0D7
:1006F00023E1880F991FAA1FBB1F2A95D1F78C01F0
:100700009D01040F151F261F371FC901B80141E0C5
:100710000E94B502429880E01F910F910895CF93F7
:10072000C82F82958F708A3010F0895C01C0805D7F
:100730000E9498008C2F8F708A3010F0895C01C065
:10074000805DCF910C9498007F928F929F92AF9290
:10075000BF92CF92DF92EF92FF920F931F93CF93AE
:10076000DF93C82F883009F45EC28D3031F08330BA
:1007700009F065C28EE094E043C29091A604911105
:1007800003C08DE391E03CC280914406823609F4B7
:10079000CAC080F4823509F425C138F4823409F4E2
:1007A000C2C0843409F472C1E8C1863599F0883535
:1007B00039F1E3C1833709F498C138F4843609F478
:1007C00065C1823709F40EC1D8C1863719F0883760
:1007D000B9F0D3C1913009F0A8C08DE391E00E9437
:1007E000DD008BE591E00E94DD0086E691E00E944D
:1007F000DD0081E791E00E94DD008CE791E0F7C128
:10080000933009F092C080914506833559F020F469
:10081000823509F485C089C0823709F481C08337E5
:1008200009F083C08DE391E00E94DD0086E891E04D
:100830000E94DD00809146060E94980081E991E0C7
:100840000E94DD0020914606C22FC17080910201F6
:100850008071E6E6FEE03197F1F700008111F6CFF6
:100860000E946200853191F72C2F30E040E050E08B
:1008700060E878E381E090E00E9442094B015C016E
:10088000C1E0D0E028EBE22E25E0F22E40E0C501E9
:10089000B4010E94B50281E00E9498008C2F0E9452
:1008A00098008C2F80950E94980008E315E0712C29
:1008B000E016F10651F06801F80181918F010E9464
:1008C0009800F6018081780EF3CF872D0E94980062
:1008D000809102018071E6E6FEE03197F1F70000B9
:1008E0008111F6CF0E946200863091F7F0E88F0EFA
:1008F000911CA11CB11C2196C33D27E0D20731F603
:1009000084E00E9498008FEF9FEFE9E581509040CE
:10091000E040E1F700C0000087EA91E00E94DD00BE
:100920008DE391E064C1923019F00E94EF0165C13E
:10093000809145068053823008F051C08DE391E0EC
:100940000E94DD008EEA91E00E94DD008091450664
:100950000E9498008CEB91E00E94DD00809145069A
:100960008170C82ED12CE12CF12C93E1CC0CDD1C34
:10097000EE1CFF1C9A95D1F746015701F0E1AF0E2E
:10098000B11C88EC91E00E94DD00C0E4C501B40117
:100990000E948E0220E1920EA11CB11CC150B1F741
:1009A00085ED91E00E94DD008EEE91E00E94DD0079
:1009B000C0E0D8E040E0C701B6010E94B502C7011F
:1009C000B601409640E00E94EE0280E8C80ED11CBD
:1009D000E11CF11C219771F78BEF91E008C10E9497
:1009E000FB010BC1923009F0A0CF809145068053E6
:1009F0008230A8F78DE391E00E94DD0084E092E070
:100A00000E94DD00809145060E94980081E192E0FD
:100A10000E94DD00809145068170C82ED12CE12C0A
:100A2000F12C83E1CC0CDD1CEE1CFF1C8A95D1F768
:100A300089E292E00E94DD0046015701C0E4C50151
:100A4000B4010E948E0290E1990EA11CB11CC1500C
:100A5000B1F787E392E00E94DD008EEE91E00E9404
:100A6000DD00C0E0D8E0C701B601409640E00E943A
:100A7000B50240E0C701B6010E94EE02E0E8CE0EEA
:100A8000D11CE11CF11C219771F7A6CF923009F01F
:100A90004CCF8DE391E00E94DD00809145068133CB
:100AA00061F0823399F08033C9F48091A8048C7F7F
:100AB0008093A8048DE492E013C08091A8048D7FF8
:100AC00081608093A80489E592E00AC08091A8041F
:100AD00083608093A80484E692E002C087E792E0F6
:100AE0000E94DD0088E291E086C08DE391E00E94E3
:100AF000DD0040E060E070E188E090E00E94B50237
:100B000008E315E07801C0E0D0E0F70181917F01B2
:100B10000E948F0380E20E949800CE01877099277F
:100B2000079721F48DE391E00E94DD002196C03803
:100B3000D10559F78DE391E00E94DD0040E060E0CF
:100B400070E188E190E00E94B502C0E0D0E0F801D9
:100B500081918F010E948F0380E20E949800CE0154
:100B600087709927079721F48DE391E00E94DD00BB
:100B70002196C038D10559F7B5CF8DE391E00E9499
:100B8000DD0081E992E00E94DD008DE992E00E94A3
:100B9000DD0088EA92E00E94DD008BEC92E00E948A
:100BA000DD008EEE92E00E94DD0084E193E00E9481
:100BB000DD008AE393E00E94DD0082E593E00E947D
:100BC000DD008AE693E00E94DD008FE893E00E945A
:100BD000DD0084EB93E00E94DD0089EC93E00E944D
:100BE000DD008DED93E00E94DD0089EF93E00E942F
:100BF000DD008AE291E00E94DD001092A60442C06E
:100C00000E94DD008AE291E0DF91CF911F910F9168
:100C1000FF90EF90DF90CF90BF90AF909F908F901C
:100C20007F900C94DD008091A604882361F083E11D
:100C300094E00E94DD008091A604815021C0809143
:100C4000A604803180F087E0DF91CF911F910F9152
:100C5000FF90EF90DF90CF90BF90AF909F908F90DC
:100C60007F900C949800C03268F08C2F0E949800FE
:100C70008091A604E82FF0E0EC5BF94FC0838F5F12
:100C80008093A604DF91CF911F910F91FF90EF9079
:100C9000DF90CF90BF90AF909F908F907F900895FE
:100CA0002F923F924F925F926F927F928F929F927C
:100CB000AF92BF92CF92DF92EF92FF920F931F936A
:100CC000CF93DF93CDB7DEB72C970FB6F894DEBF86
:100CD0000FBECDBF942F429A2AE1629FA00111243A
:100CE000052E000C660B770B490F511D611D711D00
:100CF00097E0440F551F661F771F9A95D1F790E034
:100D0000A0E0B0E023E1880F991FAA1FBB1F2A951E
:100D1000D1F71C012D01240E351E461E571E52010F
:100D20004101882430EF9322C090A904D12CE12CFA
:100D3000F12C3CE0CC0CDD1CEE1CFF1C3A95D1F7ED
:100D4000D701C60114968D839E83AF83B8870E9416
:100D500082026D817E818F8198850E948E0200E0E3
:100D600010E0D501C4018C199D09AE09BF0989871E
:100D70009A87AB87BC8740E069857A858B859C859F
:100D80006C0D7D1D8E1D9F1D0E94B5020E9482026A
:100D9000419895E09A95F1F78DEA0E945002D701AB
:100DA000C601149689839A83AB83BC838B810E948E
:100DB00050028A810E9450028C2D0E945002809124
:100DC00038050E945002809139050E945002419AD4
:100DD00095E09A95F1F70E94730280FDFCCFA8E39D
:100DE000B5E0BA83A9834198B5E0BA95F1F78DEAE9
:100DF0000E945002E981FA8182810E945002A981F9
:100E0000BA8113968C910E945002419AB5E0BA952E
:100E1000F1F70E94730280FDFCCFE981FA813296DE
:100E2000FA83E983E65BF540F1F6419835E03A95BF
:100E3000F1F784E00E945002419A85E08A95F1F72B
:100E40000F5F1F4F90E8C90ED11CE11CF11C00324E
:100E5000110509F090CF0E948202C501B4010E94E1
:100E60008E02CD80DE80EF80F88480E2682E712CC7
:100E70004198AAE0AA95F1F783E00E9450028E2DD6
:100E80000E9450028D2D0E9450028C2D0E94500213
:100E9000E8E3F5E0FA83E983E8EBF5E029813A81BC
:100EA000E217F30749F080E00E945002A981BA815D
:100EB0008D93BA83A983F0CF419A3AE03A95F1F73E
:100EC0000E948202419885E08A95F1F78DEA0E949E
:100ED00050028A2D0E945002892D0E945002882DB6
:100EE0000E945002281439044A045B0439F48091AA
:100EF000B8040E9450028091B90406C08091380560
:100F00000E945002809139050E945002419A95E05A
:100F10009A95F1F70E94730280FDFCCFA8EBB4E034
:100F2000BA83A98308E315E04198B5E0BA95F1F7D3
:100F30008DEA0E945002281439044A045B0441F4EB
:100F4000E981FA8182810E945002A981BA8105C09B
:100F5000F80182810E945002D80113968C910E9460
:100F60005002419A0E94730280FDFCCFE981FA8110
:100F70003296FA83E9830E5F1F4F26E335E02E1782
:100F80003F0791F6419835E03A95F1F784E00E94E9
:100F90005002419A85E08A95F1F791E0691A71084B
:100FA000A0E8CA0ED11CE11CF11CB0E88B0E911C0C
:100FB000A11CB11C6114710409F05ACF8091A904DD
:100FC0008F5F8093A904803411F41092A904429891
:100FD00080E02C960FB6F894DEBF0FBECDBFDF9138
:100FE000CF911F910F91FF90EF90DF90CF90BF9026
:100FF000AF909F908F907F906F905F904F903F90B9
:101000002F9008955E985D9A8FEF80930101109262
:10101000AB041092AE04089580E008955B9A539853
:101020005A9A5298289A2098299A219A2A9A229A6A
:101030005E9A569A5D9A559A5F9A579A5C9A549A14
:10104000519A589A509882E08093C00088ED80931E
:10105000C10086E08093C2001092C5008FE08093AB
:10106000C400419A399A2C9A2498239A259A80E5AB
:101070008CBD81E08DBD789442983A9A60E072EC24
:1010800081E090E00E94E90083E191E00E94DD00B0
:101090008AE194E00E94DD0081E594E00E94DD0099
:1010A00088E794E00E94DD0082E994E00E94DD0080
:1010B0002FEF8FE794E0215080409040E1F700C08F
:1010C00000000E94E7012FEF8FEF9CE2215080404B
:1010D0009040E1F700C000005E9880E00E94560258
:1010E000D2E0C1E014E003E04A99A8C08091010178
:1010F0008F3F69F45E9A5F9A0E94070284FB9927EA
:1011000090F99093AF048695877080930101E091E8
:1011100001018E2F90E08830910508F08DC0FC0110
:10112000EC5CFF4F0C9452098091AB04811106C016
:101130000093AB042A981092AE0480C0E090AE04F5
:10114000F12C0E942902F701E854FB4F8083809123
:10115000AE048F5F8093AE04803871F56DC08091CE
:10116000AE0487FD21C08091AB0481110EC01093A5
:10117000AB045D9821E32A95F1F700008091B80453
:101180000E943A02C093AE0417C02A9AE091AE04BE
:10119000F0E0E854FB4F80810E943A028091AE0457
:1011A0008F5F8093AE0408C02A9A46C08091AB043A
:1011B000811104C0C093AB042A9840C0813051F41F
:1011C0000E94070281508093AD048B3160F4D0936C
:1011D000AB04F2CF823091F50E940702682F809312
:1011E000AC048D3410F05F9827C0809101018330EA
:1011F00059F0863011F08230F9F44091AD048091BD
:10120000AF040E94500618C04091AD048091AF0415
:101210000E945B0311C05D9881E38A95F1F700009D
:101220008091000107C05D9891E39A95F1F7000065
:101230008091AA040E943A020E9402084B9919C0A8
:1012400040E061E080E00E945B035E9A2FEF8FE751
:1012500094E0215080409040E1F700C000005D988C
:1012600021E32A95F1F7000084E80E943A020E94E7
:1012700002088091020184FD37CF0E9462000E9423
:10128000A40332CFDB018F939F930E945809BF9133
:10129000AF91A29F800D911DA39F900DB29F900DC5
:1012A00011240895EE0FFF1F0590F491E02D09948D
:1012B0000E946309A59F900DB49F900DA49F800D7F
:1012C000911D11240895A29FB001B39FC001A39F57
:1012D000700D811D1124911DB29F700D811D11246F
:0812E000911D0895F894FFCF61
:1012E80084FF50000D0A55415254204649464F206C
:1012F8004F4B000D0A2D2D2D2D2D0D0A00434C4965
:1013080020737461727465640D0A3E00554E4B4E2D
:101318004F574E20434F4D4D414E440D0A0D0A0084
:10132800494E434F52524543542044524956452052
:101338004E554D4245520D0A0D0A00504342207643
:10134800312E300D0A00424C442076302E310D0AE1
:10135800005357202076302E310D0A00534E20209E
:101368003330310D0A0053656E64696E6720525838
:101378000020696D616765206F76657220586D6F12
:1013880064656D2E2E2E00446F6E650D0A00426155
:10139800636B696E672075702052580020696D6113
:1013A80067652E2E2E0D0A0045726173696E672ED1
:1013B8002E2E0D0A0050726576696F757320626172
:1013C800636B7570206572617365640D0A00436F05
:1013D8007079696E672E2E2E0D0A00446F6E650DAA
:1013E8000A0D0A00526573746F72696E672052584D
:1013F8000020696D6167652066726F6D20626163A8
:101408006B75702E2E2E0D0A0045726173696E671A
:10141800202E2E2E0D0A00466C6F70707920696D93
:10142800616765206572617365640D0A00446562D1
:101438007567206F66660D0A004465627567206FE0
:101448006E0D0A00566572626F7365206465627579
:1014580067206F6E0D0A00494E434F525245435460
:101468002044454255472053455454494E470D0A98
:1014780000436F6D6D616E64733A0D0A003F202D55
:101488002068656C700D0A00787330202D20736514
:101498006E642052583020696D616765206F7665EB
:1014A8007220586D6F64656D0D0A00787331202DB8
:1014B8002073656E642052583120696D616765201C
:1014C8006F76657220586D6F64656D0D0A007872CD
:1014D80030202D207265636569766520525830206A
:1014E800696D616765206F76657220586D6F6465F8
:1014F8006D0D0A00787231202D207265636569765A
:10150800652052583120696D616765206F76657274
:1015180020586D6F64656D0D0A006230202D2062C1
:1015280061636B75702052583020696D6167650D75
:101538000A006231202D206261636B757020525859
:101548003120696D6167650D0A007230202D2072A7
:101558006573746F72652052583020696D616765D4
:101568002066726F6D206261636B75700D0A007280
:1015780031202D20726573746F72652052583120A6
:10158800696D6167652066726F6D206261636B7556
:10159800700D0A006430202D2064697361626C65E7
:1015A8002064656275670D0A006431202D20656E20
:1015B80061626C652064656275670D0A006432209B
:1015C8002D20656E61626C6520766572626F736549
:1015D8002064656275670D0A0076202D2073686F98
:1015E800772076657273696F6E0D0A0D0A005E4387
:1015F8000D0A001B5B441B5B4B00525830312064C2
:101608007269766520656D756C61746F7220666F9E
:1016180072205044502D313120636F6D70617469B0
:10162800626C6520636F6D7075746572732E0D0A38
:10163800005465737465642077697468204D43317C
:101648003230312E303220616E6420493420626F8E
:10165800617264732E0D0A004372656174656420BB
:10166800627920546563686E6F6D616E6365720D93
:101678000A007068616E746F6D2E73616E6E6174AE
:06168800612E72750000E6
:00000001FF
