:100000000C9445000C9462000C9462000C94620005
:100010000C9462000C9462000C9462000C946200D8
:100020000C9462000C9462000C9462000C94FB0926
:100030000C9462000C9462000C9462000C946200B8
:100040000C9462000C9462000C9445010C946200C4
:100050000C949E010C9462000C9462000C9462005B
:100060000C9462000C94620009079C07AB07BA0766
:10007000D807E707C9070508F607C10ADC0A030B1A
:10008000030B4B0B380B030B400B11241FBECFEFA0
:10009000D8E0DEBFCDBF15E0A0E0B1E0E6E1F7E1DA
:1000A00002C005900D92A839B107D9F727E0A8E959
:1000B000B5E001C01D92A03EB207E1F70E942A0AF6
:1000C0000C94890B0C9400009091C00095FFFCCF1C
:1000D0008093C60008958091020184FD30C0409154
:1000E000B0055091B105FA01E854F94F8081209193
:1000F0000201309103012F7D30930301209302010F
:100100004B38510529F41092B1051092B00506C084
:100110004F5F5F4F5093B1054093B0056091B005BC
:100120007091B1054091B2055091B3056417750700
:1001300039F420613093030120930201089580E097
:100140000895F8949091020196FD37C090910201B4
:1001500097FF02C07894FACFF8942091B6053091B9
:10016000B705F901EC5AF84F808380910201909114
:1001700003018F7B90930301809302012B3831059B
:1001800029F41092B7051092B60506C02F5F3F4FB5
:100190003093B7052093B6054091B6055091B70549
:1001A0002091B4053091B5054217530761F480687A
:1001B000909303018093020106C09091C00095FFC7
:1001C000C5CF8093C600789480E00895CF93DF93E5
:1001D000EC018991882319F00E94A100FACFDF91E8
:1001E000CF9108958DE00E9464008AE00E9464002F
:1001F0008DE00E9464008AE00E9464008DE20E940B
:1002000064008DE20E9464008DE20E9464008DE231
:100210000E9464008DE20E9464008DE00E946400F0
:100220008AE00E94640085E50E94640081E40E94E7
:10023000640082E50E94640084E50E94640080E21C
:100240000E9464008FE40E9464008BE40E946400BA
:1002500080E20E94640081E30E94640081E30E94C6
:10026000640085E30E94640082E30E94640080E3EE
:100270000E94640080E30E94640084E091E00C949A
:10028000E60080910201807108951F920F920FB6CF
:100290000F9211242F933F934F935F938F939F93CC
:1002A000EF93FF934091C6008091020185FF0AC041
:1002B00080910201909103018860909303018093E3
:1002C000020118952091B2053091B305F901E85467
:1002D000F94F408380910201909103018F7E9093AA
:1002E0000301809302012B38310529F41092B305E4
:1002F0001092B20506C02F5F3F4F3093B305209395
:10030000B2054091B2055091B3052091B0053091EE
:10031000B1054217530729F480629093030180933B
:100320000201FF91EF919F918F915F914F913F91CA
:100330002F910F900FBE0F901F9018951F920F9244
:100340000FB60F9211242F933F934F935F938F9388
:100350009F93EF93FF938091020186FD34C0E0915B
:10036000B405F091B505EC5AF84F80818093C60032
:1003700080910201909103018F7790930301809304
:1003800002012091B4053091B5052B38310529F4CF
:100390001092B5051092B40506C02F5F3F4F309301
:1003A000B5052093B4054091B4055091B505209151
:1003B000B6053091B7054217530729F4806490932E
:1003C000030180930201FF91EF919F918F915F91C3
:1003D0004F913F912F910F900FBE0F901F90189546
:1003E00083E191E00E94E6008DE191E00C94E6004B
:1003F0008DE391E00E94E6008CE291E00E94E6002D
:100400008AE291E00C94E6008DE391E00E94E60020
:1004100080E491E00E94E6008AE291E00C94E6001C
:100420002A9A28E090E080E0880F189902C08F5F38
:100430009F5F5C9835E03A95F1F75C9A3AE03A951F
:10044000F1F7215089F7189B9F5F90FD0AC085E462
:100450000E94640082E50E94640082E50E946400BC
:100460008FEF08952A9A98E080E0880F189B8F5F9D
:100470005C9825E02A95F1F75C9A2AE02A95F1F735
:10048000915099F7089598E087FD02C0299A01C01C
:100490002998880F25E02A95F1F75C9825E02A95A0
:1004A000F1F75C9A2AE02A95F1F7915069F7299AB9
:1004B00008958EBD0DB407FEFDCF8EB50895CF9380
:1004C000C82F41988AE08A95F1F780E50E94590289
:1004D000419A8AE08A95F1F741988AE08A95F1F786
:1004E00081E00E9459028C2F0E945902419A8AE0B1
:1004F0008A95F1F7CF91089541988AE08A95F1F7AE
:1005000085E00E94590280E00E945902419A9AE0D7
:100510009A95F1F7089541988AE08A95F1F786E077
:100520000E945902419A8AE08A95F1F708951F9333
:10053000CF93DF93EB01182F0E948B020E947C0265
:1005400080FDFCCF41988AE08A95F1F780E20E9415
:100550005902812F0E9459028D2F0E9459028C2F1F
:100560000E945902419A8AE08A95F1F70E947C0222
:1005700080FDFCCFDF91CF911F910895CF92DF9244
:10058000EF92FF92CF936B017C01C0E4C701B601EB
:100590000E94970280E1D80EE11CF11CC150B1F716
:1005A000CF91FF90EF90DF90CF900895FF920F933F
:1005B0001F93CF93DF93EB01182FF42E41988AE01D
:1005C0008A95F1F783E00E945902812F0E94590217
:1005D0008D2F0E9459028C2F0E945902C8E3D6E049
:1005E00008EB15E0F6E0C83BDF0779F080E0F1109A
:1005F00004C00E945902888304C00E945902F80175
:10060000808321960F5F1F4FEDCF419A8AE08A9534
:10061000F1F7DF91CF911F910F91FF900895FF9215
:100620000F931F93CF93DF93EB01182FF42E0E94AB
:100630008B02419885E08A95F1F78DEA0E94590274
:10064000812F0E9459028D2F0E9459028C2F0E94E7
:100650005902F11007C0809138060E94590280911A
:10066000390606C08091B8050E9459028091B905EB
:100670000E945902419AE5E0EA95F1F70E947C0256
:1006800080FDFCCFC8E3D6E008EB15E04198F5E02B
:10069000FA95F1F78DEA0E945902F11005C08A819E
:1006A0000E9459028B8106C0F80182810E94590282
:1006B000F80183810E945902419AF5E0FA95F1F719
:1006C0000E947C0280FDFCCF22960E5F1F4F86E0C9
:1006D000C63BD807D9F64198E5E0EA95F1F784E002
:1006E0000E945902419AF5E0FA95F1F7DF91CF9116
:1006F0001F910F91FF9008954F925F926F927F929A
:100700008F929F92AF92BF92CF92DF92EF92FF9221
:10071000CF93DF933B01D82FC92F49015A01CA015A
:10072000B9010E94BE026301ED2EFC2EC0E0D8E0AC
:100730008C189D08AE08BF08240135014C0C5D1CC7
:100740006E1C7F1C40E0C701B6010E94D60240E04B
:10075000C301B2010E940F0380E8C80ED11CE11C46
:10076000F11C219749F7DF91CF91FF90EF90DF9037
:10077000CF90BF90AF909F908F907F906F905F9041
:100780004F9008950F931F93CF93DF93C82F81113C
:1007900002C0429A01C0439A0AE1609FB00111244D
:1007A000CB01770FAA0BBB0B840F911DA11DB11DAF
:1007B00027E0880F991FAA1FBB1F2A95D1F74C2F3E
:1007C00050E060E070E033E1440F551F661F771F73
:1007D0003A95D1F78A019B01080F191F2A1F3B1F69
:1007E000C901B80141E00E94D60288B1837F88B96F
:1007F000D0E0CC0FDD1FC356DA4F88819981019676
:100800009983888380E0DF91CF911F910F910895A4
:10081000CF93C82F82958F708A3010F0895C01C009
:10082000805D0E94A1008C2F8F708A3010F0895C4F
:1008300001C0805DCF910C94A100CF92DF92EF9226
:10084000FF920F931F93CF93DF93EC0184E0F82E78
:1008500000E117E2E12C9AE0C92ED12C20E0C0176C
:10086000D10730F02F5FC01BD10BEE24E394F7CFFC
:10087000C801B6010E946F0B8B01EE2019F080E3D6
:10088000820F01C080E20E94A100FA94F110E6CF2D
:100890008C2F805DDF91CF911F910F91FF90EF9092
:1008A000DF90CF900C94A1007F928F929F92AF9295
:1008B000BF92CF92DF92EF92FF920F931F93CF934D
:1008C000DF93C82F883009F412C28D3041F0833095
:1008D00009F019C21092980581E095E0F5C1909158
:1008E0009805911103C08DE391E0EEC1809144071A
:1008F000823609F4B2C080F4823509F4E7C038F4D6
:10090000823409F4AAC0843409F41FC196C1863523
:1009100099F0883539F191C1833709F445C138F42C
:10092000843609F412C1823709F4D0C086C18637F3
:1009300019F08837B9F081C1913009F090C08DE38A
:1009400091E00E94E6008BE591E00E94E60086E6D9
:1009500091E00E94E60081E791E00E94E6008CE7CA
:1009600091E0A9C1933009F07AC0809145078335A1
:1009700049F018F4823579F172C0823761F183371A
:1009800009F06DC08DE391E00E94E60086E891E0F9
:100990000E94E600809146070E94A10081E991E053
:1009A0000E94E60080914607C82FC17080FD02C0FA
:1009B000429A01C0439A80910201807125E02A95F4
:1009C000F1F78111F8CF0E946B00853109F4C2C1A3
:1009D000833089F776C18DE391E00E94E6008EEACC
:1009E00091E00E94E600809146070E94A10081E903
:1009F00091E00E94E60080914607F82FF170FF2EEB
:100A000080FD02C0429A01C0439A60E070E08CE031
:100A100090E00E94BE021092A6051092A50585E105
:100A20000E94A100809102018071E6E6FEE031970C
:100A3000F1F7000081110AC0D0E0E12C01E010E0E4
:100A4000812C912CFCE0AF2EB12C33C28091A505F6
:100A50009091A6054E9730F3DECF923019F00E94A8
:100A6000F8012FC18091450780538230B0F58DE3A6
:100A700091E00E94E60089E892E00E94E600809101
:100A800045070E94A10087E992E00E94E60080915C
:100A90004507982F917080FD02C0429A01C0439A89
:100AA000C92ED12CE12CF12C73E1CC0CDD1CEE1CF9
:100AB000FF1C7A95D1F783EA92E00E94E600A70135
:100AC0009601405F5F4FC701B60137C0923039F6DB
:100AD000809145078053823018F00E940402F1C0D3
:100AE0008DE391E00E94E60089EB92E00E94E6002F
:100AF000809145070E94A10086EC92E00E94E600EA
:100B000080914507282F217080FD02C0429A01C0C4
:100B1000439AC22ED12CE12CF12C83EA92E00E9460
:100B2000E600A701960163E1220F331F441F551F02
:100B30006A95D1F7CA01B90140960E947C0388B139
:100B4000837F88B980EB92E0B6C0923009F087CFFE
:100B50008DE391E00E94E60080914507813361F0CA
:100B6000823399F08033C9F48091A8058C7F8093FB
:100B7000A8058EED92E013C08091A8058D7F81605D
:100B80008093A8058AEE92E00AC08091A805836050
:100B90008093A80585EF92E002C088E093E00E9470
:100BA000E60088E291E08BC08DE391E00E94E600D0
:100BB00082E293E00E94E60088E393E00E94E60070
:100BC00080919A0590919B050E941D0481E493E019
:100BD0000E94E60085E493E00E94E6008DE593E044
:100BE0000E94E6008091A1059091A2050E941D043B
:100BF00086E693E00E94E60080919D0590919E0517
:100C00000E941D048DE391E00E94E60088E693E0D7
:100C10000E94E6008091A3059091A4050E941D0406
:100C200086E693E00E94E60080919F059091A005E2
:100C30000E941D048DE391E0B2CF8DE391E00E940C
:100C4000E60083E793E00E94E6008FE793E00E94CE
:100C5000E6008AE893E00E94E6008DEA93E00E94B5
:100C6000E60080ED93E00E94E60086EF93E00E94AC
:100C7000E6008CE194E00E94E60084E394E00E94A8
:100C8000E6008CE494E00E94E60081E794E00E9494
:100C9000E60086E994E00E94E6008BEA94E00E9478
:100CA000E6008FEB94E00E94E6008BED94E00E945A
:100CB000E6008EEE94E00E94E6008AE291E00E9457
:100CC000E60010929805B3C10E94E6008AE291E026
:100CD000DF91CF911F910F91FF90EF90DF90CF9018
:100CE000BF90AF909F908F907F900C94E600809182
:100CF0009805882361F086E095E00E94E6008091E7
:100D00009805815024C080919805803180F087E05B
:100D1000DF91CF911F910F91FF90EF90DF90CF90D7
:100D2000BF90AF909F908F907F900C94A10080EE29
:100D30008C0F8F3508F07BC18C2F0E94A100809111
:100D40009805E82FF0E0EC5BF84FC0838F5F80934D
:100D500098056DC18C2E912CA12CB12C83E1880CAF
:100D6000991CAA1CBB1C8A95D1F7C1E0D0E098EB76
:100D7000E92E96E0F92E40E0C501B4010E94D602AA
:100D800081E00E94A1008C2F0E94A1008C2F8095F1
:100D90000E94A10008E316E0712CE016F10651F064
:100DA0006801F80181918F010E94A100F601808104
:100DB000780EF3CF872D0E94A100809102018071EF
:100DC000E6E6FEE03197F1F700008111F6CF0E94D0
:100DD0006B00863091F7F0E88F0E911CA11CB11CBE
:100DE0002196C33D27E0D20731F684E00E94A1009E
:100DF00088B1837F88B98FEF9FEFE9E581509040FC
:100E0000E040E1F700C0000087EA91E00E94E600C0
:100E100026C08F2D90E0A0E0B0E09C01AD01E3E1A1
:100E2000220F331F441F551FEA95D1F760E070E091
:100E30008CE090E00E947C0386E00E94A100EFEF2E
:100E4000FFEF2CE2E150F0402040E1F700C000004D
:100E500087EA91E00E94E60088B1837F88B98DE33C
:100E600091E029CF40E0C501B4010E940F030F5F5C
:100E70001F4F90E8890E911CA11CB11C86E00E94B6
:100E8000A100D0E0E12CC1E0809102018071F5E089
:100E9000FA95F1F7811141C00E946B00D130E9F061
:100EA00050F4833009F4BDC0843089F08130A9F555
:100EB000D1E0C0E0E9CFD230B9F0D338F9F0ED2F6E
:100EC000F0E0EB5CF94F8083E80EDF5F26C0023D67
:100ED000174008F0A8C0C8E023C090E0980133276D
:100EE0008217930749F416C090E098012095309539
:100EF00033278217930781F0C4E012C0E81295C02F
:100F0000033D87E0180708F4ADCF85E10E94A100FA
:100F1000C7E006C0D2E001C0D3E0C23008F4B4CFCD
:100F20008C2F90E0FC013297E930F10508F06DC09C
:100F3000EC5CFF4F0C94830B86E00E94A1008FEFC6
:100F40009FEFECE281509040E040E1F700C00000EC
:100F50008BEB91E07FCF86E00E94A100FFEF2FEFA7
:100F60008CE2F15020408040E1F700C000008DECA1
:100F700091E070CF86E00E94A1009FEFEFEFFCE2CE
:100F80009150E040F040E1F700C000008FEE91E0AA
:100F900061CF86E00E94A1002FEF8FEF9CE22150ED
:100FA00080409040E1F700C0000083E092E052CF23
:100FB00086E00E94A100EFEFFFEF2CE2E150F0404D
:100FC0002040E1F700C000008CE192E043CF85E1D2
:100FD0000E94A1008FEF9FEFECE281509040E04033
:100FE000E1F700C000008EE392E034CF86E00E947B
:100FF000A100FFEF2FEF8CE2F15020408040E1F79D
:1010000000C0000086E592E025CF80E20E94A100AA
:101010008C2F0E94080480E20E94A10083E792E0E6
:1010200019CFCAE07DCFC2E07BCFC5E079CFDF9199
:10103000CF911F910F91FF90EF90DF90CF90BF90D5
:10104000AF909F908F907F9008952F923F924F92F4
:101050005F926F927F928F929F92AF92BF92CF9248
:10106000DF92EF92FF920F931F93CF93DF93CDB751
:10107000DEB72D970FB6F894DEBF0FBECDBF8D83C0
:10108000811102C0429A01C0439A2AE1629FC001C5
:101090001124092E000CAA0BBB0B840F911DA11D5E
:1010A000B11D27E0880F991FAA1FBB1F2A95D1F7F2
:1010B0003D81432F50E060E070E033E1440F551F65
:1010C000661F771F3A95D1F71A012B01280E391E9A
:1010D0004A1E5B1E52014101882480EF9822C09075
:1010E000A905D12CE12CF12C4CE0CC0CDD1CEE1C24
:1010F000FF1C4A95D1F7D701C60114968E839F83B2
:10110000A887B9870E948B026E817F818885998527
:101110000E94970200E010E0D501C4018C199D09DE
:10112000AE09BF098A879B87AC87BD8756EB652EC2
:1011300056E0752E40E06A857B858C859D856C0D1B
:101140007D1D8E1D9F1D0E94D6020E948B0241981C
:1011500095E09A95F1F78DEA0E945902D701C601F0
:10116000149689839A83AB83BC838B810E94590236
:101170008A810E9459028C2D0E9459028091380662
:101180000E945902809139060E945902419A95E0C5
:101190009A95F1F70E947C0280FDFCCFA8E3B6E0AF
:1011A000BA83A9834198B5E0BA95F1F78DEA0E9418
:1011B0005902E981FA8182810E945902A981BA818A
:1011C00013968C910E945902419AB5E0BA95F1F7B5
:1011D0000E947C0280FDFCCFE981FA813296FA837D
:1011E000E9836E167F06F1F64198F5E0FA95F1F77E
:1011F00084E00E945902419A25E02A95F1F70F5F99
:101200001F4F30E8C30ED11CE11CF11C0032110548
:1012100009F090CF0E948B02C501B4010E94970291
:10122000CE80DF80E884F984612C712C41988AE0BB
:101230008A95F1F783E00E9459028E2D0E9459028F
:101240008D2D0E9459028C2D0E945902A8E3B6E010
:10125000BA83A98328EB36E089819A812817390758
:1012600049F080E00E945902E981FA818193FA8372
:10127000E983F0CF419A9AE09A95F1F70E948B02A8
:101280004198A5E0AA95F1F78DEA0E9459028A2DAE
:101290000E945902892D0E945902882D0E945902EC
:1012A000281439044A045B0439F48091B8050E947B
:1012B00059028091B90506C0809138060E945902F2
:1012C000809139060E945902419AB5E0BA95F1F72A
:1012D0000E947C0280FDFCCFE8EBF5E0FA83E98315
:1012E00008E316E04198F5E0FA95F1F78DEA0E94DF
:1012F0005902281439044A045B0449F4A981BA81CB
:1013000012968C910E945902E981FA8106C0D80197
:1013100012968C910E945902F80183810E94590211
:10132000419A0E947C0280FDFCCF29813A812E5F88
:101330003F4F3A8329830E5F1F4F86E396E0821763
:10134000930781F6419895E09A95F1F784E00E9421
:101350005902419AA5E0AA95F1F7BFEF6B1A7B0AF3
:10136000E0E8CE0ED11CE11CF11CF0E88F0E911CC0
:10137000A11CB11C20E26216710409F057CF8091C4
:10138000A9058F5F8093A905803411F41092A905F7
:101390003D81E32FF0E0EE0FFF1FEF55FA4F808104
:1013A000918101969183808388B1837F88B980E0A1
:1013B0002D960FB6F894DEBF0FBECDBFDF91CF9153
:1013C0001F910F91FF90EF90DF90CF90BF90AF9063
:1013D0009F908F907F906F905F904F903F902F9055
:1013E00008955E985D9A8FEF809301011092AB058E
:1013F0001092AE0508951F920F920FB60F9211240E
:101400008F939F938091A7058F5F8093A70580910D
:10141000A5059091A60501969093A6058093A50534
:1014200080919C058F5F8A3019F080939C050BC0DA
:1014300010929C0580919A0590919B05019690933E
:101440009B0580939A059F918F910F900FBE0F90EF
:101450001F9018955B9A53985A9A5298289A2098F8
:10146000299A219A2A9A229A5E9A569A5D9A559AB0
:101470005F9A579A5C9A549A519A589A509882E077
:101480008093C00098ED9093C10096E09093C200C5
:101490001092C5009FE09093C400419A399A2C9A0B
:1014A0002498239A259A90E59CBD91E09DBD1092C9
:1014B00080009CE090938100109282002FE736E13B
:1014C000309389002093880080936F00789442982D
:1014D00043983A9A3B9A60E072EC81E090E00E9477
:1014E000F20083E191E00E94E6008DE095E00E9429
:1014F000E60084E495E00E94E6008BE695E00E9419
:10150000E60085E895E00E94E6002FEF8FE794E083
:10151000215080409040E1F700C000000E94F0019F
:101520002FEF8FEF9CE2215080409040E1F700C008
:1015300000005E9880E00E945F02D2E0C1E014E00B
:1015400003E04A99A8C0809101018F3F69F45E9A37
:101550005F9A0E94100284FB992790F99093AF053F
:101560008695877080930101E09101018E2F90E0B4
:101570008830910508F08DC0FC01E35CFF4F0C94AE
:10158000830B8091AB05811106C00093AB052A98AF
:101590001092AE0580C0E090AE05F12C0E943202A0
:1015A000F701E854FA4F80838091AE058F5F8093F6
:1015B000AE05803871F56DC08091AE0587FD21C004
:1015C0008091AB0581110EC01093AB055D9821E3AE
:1015D0002A95F1F700008091B8050E944302C0935C
:1015E000AE0517C02A9AE091AE05F0E0E854FA4F34
:1015F00080810E9443028091AE058F5F8093AE058B
:1016000008C02A9A46C08091AB05811104C0C093DE
:10161000AB052A9840C0813051F40E9410028150DD
:101620008093AD058B3160F4D093AB05F2CF82305F
:1016300091F50E941002682F8093AC058D3410F054
:101640005F9827C080910101833059F0863011F0F6
:101650008230F9F44091AD058091AF050E942508D4
:1016600018C04091AD058091AF050E94C20311C022
:101670005D9881E38A95F1F700008091000107C031
:101680005D9891E39A95F1F700008091AA050E9478
:1016900043020E94F1094B9919C040E061E080E0EB
:1016A0000E94C2035E9A2FEF8FE794E021508040A2
:1016B0009040E1F700C000005D9821E32A95F1F722
:1016C000000084E80E9443020E94F1098091020117
:1016D00084FD37CF0E946B000E94540432CFAA1BB6
:1016E000BB1B51E107C0AA1FBB1FA617B70710F00D
:1016F000A61BB70B881F991F5A95A9F7809590953F
:10170000BC01CD010895EE0FFF1F0590F491E02D6F
:061710000994F894FFCFDC
:1017160084FF50000D0A55415254204649464F2039
:101726004F4B000D0A2D2D2D2D2D0D0A00434C4932
:1017360020737461727465640D0A3E00554E4B4EFB
:101746004F574E20434F4D4D414E440D0A0D0A0052
:10175600494E434F52524543542044524956452020
:101766004E554D4245520D0A0D0A00504342207611
:10177600312E300D0A00424C442076302E310D0AAF
:10178600005357202076302E310D0A00534E20206C
:101796003330310D0A0053656E64696E6720525806
:1017A6000020696D616765206F76657220586D6FE0
:1017B60064656D2E2E2E00446F6E650D0A0052650F
:1017C60063656976696E67205258004552524F52DA
:1017D600202D2054494D454F55540D0A004552526F
:1017E6004F52202D20494E434F52524543542050CC
:1017F60041434B4554204E554D4245520D0A004536
:1018060052524F52202D20435243204552524F529E
:101816000D0A004552524F52202D2046494C452074
:10182600544F4F2053484F52540D0A004552524FC1
:1018360052202D20494E434F525245435420504189
:10184600434B4554204845414445520D0A004552F4
:10185600524F52202D2046494C4520544F4F204C84
:101866004F4E470D0A005452414E534645522043AF
:10187600414E43454C4C4544204259205553455210
:101886000D0A00534F4D455448494E47204655438F
:101896004B45442055500D0A004261636B696E67E3
:1018A6002075702052580020696D6167652E2E2EB6
:1018B6000D0A00436F7079696E672E2E2E0D0A0091
:1018C600446F6E650D0A0D0A00526573746F726976
:1018D6006E672052580020696D6167652066726FD9
:1018E6006D206261636B75702E2E2E0D0A004465A5
:1018F600627567206F66660D0A004465627567202B
:101906006F6E0D0A00566572626F736520646562BC
:101916007567206F6E0D0A00494E434F525245437C
:10192600542044454255472053455454494E470D8B
:101936000A0053657373696F6E20737461746973FB
:10194600746963733A0D0A00557074696D653A20BF
:1019560000730D0A00536563746F727320777269A2
:101966007474656E2020726561640D0A00445830F7
:101976003A202020202020004458313A20202020E0
:10198600202000436F6D6D616E64733A0D0A003F4F
:10199600202D2068656C700D0A00787330202D208C
:1019A60073656E642052583020696D616765206FDB
:1019B60076657220586D6F64656D0D0A0078733117
:1019C600202D2073656E642052583120696D616741
:1019D60065206F76657220586D6F64656D0D0A001F
:1019E600787230202D2072656365697665205258BD
:1019F6003020696D616765206F76657220586D6F5E
:101A060064656D0D0A00787231202D20726563655C
:101A16006976652052583120696D616765206F7659
:101A2600657220586D6F64656D0D0A006230202D59
:101A3600206261636B75702052583020696D616752
:101A4600650D0A006231202D206261636B7570207E
:101A560052583120696D6167650D0A007230202D7C
:101A660020726573746F72652052583020696D61FB
:101A760067652066726F6D206261636B75700D0A13
:101A8600007231202D20726573746F726520525872
:101A96003120696D6167652066726F6D20626163D2
:101AA6006B75700D0A006430202D206469736162C5
:101AB6006C652064656275670D0A006431202D200F
:101AC600656E61626C652064656275670D0A006407
:101AD60032202D20656E61626C6520766572626FBC
:101AE60073652064656275670D0A0076202D207384
:101AF600686F772076657273696F6E0D0A007320C2
:101B06002D20737461746973746963730D0A0D0A09
:101B1600005E430D0A001B5B441B5B4B00525830B2
:101B26003120647269766520656D756C61746F72BB
:101B360020666F72205044502D313120636F6D70D6
:101B4600617469626C6520636F6D7075746572731C
:101B56002E0D0A00546573746564207769746820D5
:101B66004D43313230312E303220616E642049349B
:101B760020626F617264732E0D0A00437265617490
:101B8600656420627920546563686E6F6D616E636B
:101B960065720D0A007068616E746F6D2E73616EEA
:081BA6006E6174612E7275007E
:00000001FF
