:100000000C943C000C9459000C9459000C94590029
:100010000C9459000C9459000C9459000C945900FC
:100020000C9459000C9459000C9459000C945900EC
:100030000C9459000C9459000C9459000C945900DC
:100040000C9459000C9459000C9438010C945900EC
:100050000C9491010C9459000C9459000C94590083
:100060000C9459000C9459008A08A508CC08CC08B7
:1000700014090109CC08090911241FBECFEFD8E0EB
:10008000DEBFCDBF14E0A0E0B1E0E0E8F2E102C0E5
:1000900005900D92AE3AB107D9F726E0AEEAB4E08A
:1000A00001C01D92A83EB207E1F70E94FC070C9424
:1000B0003E090C9400009091C00095FFFCCF809306
:1000C000C6000895809102014091B8045091B9048E
:1000D00084FD05C0FA01E054FA4F808101C080E040
:1000E00020910201309103012F7D30930301209371
:1000F00002014B38510529F41092B9041092B8044A
:1001000006C04F5F5F4F5093B9044093B8046091AD
:10011000B8047091B9044091BA045091BB046417BB
:10012000750729F42061309303012093020108959B
:10013000F8949091020196FD37C09091020197FFCB
:1001400002C07894FACFF8942091BE043091BF0495
:10015000F901E45AF94F80838091020190910301E3
:100160008F7B90930301809302012B38310529F492
:100170001092BF041092BE0406C02F5F3F4F309311
:10018000BF042093BE044091BE045091BF0420914F
:10019000BC043091BD044217530761F4806890930A
:1001A00003018093020106C09091C00095FFC5CF66
:1001B0008093C600789480E00895CF93DF93EC019C
:1001C0008991882319F00E949800FACFDF91CF918E
:1001D00008958DE00E945B008AE00E945B008DE044
:1001E0000E945B008AE00E945B008DE20E945B003F
:1001F0008DE20E945B008DE20E945B008DE20E9416
:100200005B008DE20E945B008DE00E945B008AE053
:100210000E945B0085E50E945B0081E40E945B0018
:1002200082E50E945B0084E50E945B0080E20E9400
:100230005B008FE40E945B008BE40E945B0080E225
:100240000E945B0081E30E945B0081E30E945B00EF
:1002500085E30E945B0082E30E945B0080E30E94D2
:100260005B0080E30E945B0084E091E00C94DD0081
:100270001F920F920FB60F9211242F933F934F931B
:100280005F938F939F93EF93FF934091C60080916C
:10029000020185FF0AC080910201909103018860EC
:1002A000909303018093020118952091BA04309134
:1002B000BB04F901E054FA4F408380910201909110
:1002C00003018F7E90930301809302012B38310547
:1002D00029F41092BB041092BA0406C02F5F3F4F5E
:1002E0003093BB042093BA044091BA045091BB04EC
:1002F0002091B8043091B9044217530729F4806261
:100300009093030180930201FF91EF919F918F9150
:100310005F914F913F912F910F900FBE0F901F90C3
:1003200018951F920F920FB60F9211242F933F939F
:100330004F935F938F939F93EF93FF93809102016D
:1003400086FD34C0E091BC04F091BD04E45AF94F3D
:1003500080818093C60080910201909103018F7784
:1003600090930301809302012091BC043091BD045D
:100370002B38310529F41092BD041092BC0406C03C
:100380002F5F3F4F3093BD042093BC044091BC04C9
:100390005091BD042091BE043091BF044217530711
:1003A00029F480649093030180930201FF91EF91FF
:1003B0009F918F915F914F913F912F910F900FBE21
:1003C0000F901F90189583E191E00E94DD008DE170
:1003D00091E00C94DD008DE391E00E94DD008CE261
:1003E00091E00E94DD008AE291E00C94DD008DE353
:1003F00091E00E94DD0080E491E00E94DD008AE24D
:1004000091E00C94DD002A9A28E090E080E0880FCB
:10041000189902C08F5F9F5F5C9835E03A95F1F7BD
:100420005C9A3AE03A95F1F7215089F7189B9F5F63
:1004300090FD0AC085E40E945B0082E50E945B009B
:1004400082E50E945B008FEF08952A9A98E080E091
:10045000880F189B8F5F5C9825E02A95F1F75C9ACE
:100460002AE02A95F1F7915099F7089598E087FDD1
:1004700002C0299A01C02998880F25E02A95F1F732
:100480005C9825E02A95F1F75C9A2AE02A95F1F725
:10049000915069F7299A08958EBD0DB407FEFDCFDE
:1004A0008EB50895CF93C82F41988AE08A95F1F7C9
:1004B00080E50E944C02419A8AE08A95F1F74198C2
:1004C0008AE08A95F1F781E00E944C028C2F0E940D
:1004D0004C02419A8AE08A95F1F7CF9108954198AC
:1004E0008AE08A95F1F785E00E944C0280E00E9444
:1004F0004C02419A9AE09A95F1F7089541988AE062
:100500008A95F1F786E00E944C02419A8AE08A952A
:10051000F1F708951F93CF93DF93EB01182F0E94FB
:100520006F0280FDFCCF41988AE08A95F1F780E266
:100530000E944C02812F0E944C028D2F0E944C027F
:100540008C2F0E944C02419A8AE08A95F1F70E9412
:100550006F0280FDFCCFDF91CF911F910895FF9234
:100560000F931F93CF93DF93EB01182FF42E419835
:100570008AE08A95F1F783E00E944C02812F0E9465
:100580004C028D2F0E944C028C2F0E944C02C0E422
:10059000D5E000EC14E0F5E0C03CDF0779F080E046
:1005A000F11004C00E944C02888304C00E944C02D7
:1005B000F801808321960F5F1F4FEDCF419A8AE0AB
:1005C0008A95F1F7DF91CF911F910F91FF900895D8
:1005D000FF920F931F93CF93DF93EB01182FF42E0D
:1005E0000E947E02419885E08A95F1F78DEA0E948B
:1005F0004C02812F0E944C028D2F0E944C028C2FA6
:100600000E944C02F11007C0809140050E944C02EC
:100610008091410506C08091C0040E944C028091E7
:10062000C1040E944C02419AE5E0EA95F1F70E946C
:100630006F0280FDFCCFC0E4D5E000EC14E04198EF
:10064000F5E0FA95F1F78DEA0E944C02F11005C031
:100650008A810E944C028B8106C0F80182810E942F
:100660004C02F80183810E944C02419AF5E0FA9510
:10067000F1F70E946F0280FDFCCF22960E5F1F4FA4
:1006800085E0CE3BD807D9F64198E5E0EA95F1F749
:1006900084E00E944C02419AF5E0FA95F1F7DF916F
:1006A000CF911F910F91FF9008950F931F93282FC3
:1006B000429A0AE1609FB0011124CB01770FAA0B87
:1006C000BB0B840F911DA11DB11DAC01BD0187E0C5
:1006D000440F551F661F771F8A95D1F7822F90E030
:1006E000A0E0B0E023E1880F991FAA1FBB1F2A9545
:1006F000D1F78C019D01040F151F261F371FC9015B
:10070000B80141E00E94AF02429880E01F910F9132
:100710000895CF93C82F82958F708A3010F0895C2E
:1007200001C0805D0E9498008C2F8F708A3010F07D
:10073000895C01C0805DCF910C9498008F929F924C
:10074000AF92BF92CF92DF92EF92FF920F931F93DF
:10075000CF93DF93C82F883009F455C28D3031F024
:10076000833009F05CC282E194E03BC29091AE0418
:10077000911103C08DE391E034C280914C06823622
:1007800009F457C080F4823509F4E7C038F48234A4
:1007900009F44FC0843409F466C1E0C1863599F08C
:1007A000883531F1DBC1833709F48CC138F48436E4
:1007B00009F459C1823709F4D0C0D0C1863719F085
:1007C0008837B1F0CBC19130B1F58DE391E00E9453
:1007D000DD008BE591E00E94DD0086E691E00E945D
:1007E000DD0081E791E00E94DD008CE791E0F0C13F
:1007F000933009F580914D06833541F018F4823528
:10080000A9F019C0823791F08337A9F48DE391E004
:100810000E94DD0086E891E00E94DD0080914E0696
:100820000E94980081E991E00E94DD008DE391E053
:10083000CFC1923019F00E94EB01D0C180914D06DA
:100840008053823008F086C08DE391E00E94DD0085
:1008500087EA91E00E94DD0080914D060E94980099
:1008600085EB91E00E94DD0080914D068170C82EDD
:10087000D12CE12CF12C73E1CC0CDD1CEE1CFF1C07
:100880007A95D1F74601570180E1A80EB11C81ECA1
:1008900091E00E94DD00C0E48EEC91E00E94DD005A
:1008A000D501C40154E1B695A795979587955A95BA
:1008B000D1F78F70805D0E9498008A2D8F70805DC7
:1008C0000E949800D501C4016CE0B695A795979554
:1008D00087956A95D1F78F70805D0E94980080E3BC
:1008E0000E94980080E30E94980080E30E94980094
:1008F0008DE391E00E94DD000E947E02C501B401FB
:100900000E948A02E0E19E0EA11CB11CC15021F69A
:1009100089ED91E00E94DD0082EF91E00E94DD0010
:10092000C0E0D0E040E0C701B6010E94AF02C701BD
:10093000B601409640E00E94E802F0E8CF0ED11CDC
:10094000E11CF11C2196C11588E0D80759F78FEFFB
:1009500091E03EC10E94F70141C1923009F06BCF96
:1009600080914D0680538230A8F78DE391E00E947C
:10097000DD0088E092E00E94DD0080914D060E943B
:10098000980085E192E00E94DD0080914D06817023
:10099000C82ED12CE12CF12C43E1CC0CDD1CEE1C3B
:1009A000FF1C4A95D1F78DE292E00E94DD004601DE
:1009B0005701C0E48EEC91E00E94DD00D501C40136
:1009C00024E1B695A795979587952A95D1F78F70CD
:1009D000805D0E9498008A2D8F70805D0E94980033
:1009E000D501C4013CE0B695A795979587953A95B2
:1009F000D1F78F70805D0E94980080E30E9498007C
:100A000080E30E94980080E30E9498008DE391E0CB
:100A10000E94DD000E947E02C501B4010E948A028C
:100A2000E0E19E0EA11CB11CC15021F68BE392E0C7
:100A30000E94DD0082EF91E00E94DD00C0E0D8E07E
:100A4000C701B601409640E00E94AF0240E0C701F6
:100A5000B6010E94E802F0E8CF0ED11CE11CF11CA7
:100A6000219771F774CF923009F0E5CE8DE391E0D4
:100A70000E94DD0080914D06813361F0823399F050
:100A80008033C9F48091B0048C7F8093B00481E5F9
:100A900092E013C08091B0048D7F81608093B00498
:100AA0008DE592E00AC08091B00483608093B00429
:100AB00088E692E002C08BE792E00E94DD0088E2C7
:100AC00091E08AC08DE391E00E94DD0040E060E0AB
:100AD00070E188E090E00E94AF02C0E4D5E08E01B2
:100AE000E12CF12CF80181918F010E94890380E2B1
:100AF0000E949800C70187709927079721F48DE31A
:100B000091E00E94DD00FFEFEF1AFF0A80E8E8168F
:100B1000F10441F78DE391E00E94DD0040E060E0E8
:100B200070E188E190E00E94AF02E12CF12C899104
:100B30000E94890380E20E949800C701877099276C
:100B4000079721F48DE391E00E94DD00EFEFEE1AAC
:100B5000FE0AF0E8EF16F10451F7B1CF8DE391E012
:100B60000E94DD0085E992E00E94DD0081EA92E0CA
:100B70000E94DD008CEA92E00E94DD008FEC92E0A2
:100B80000E94DD0082EF92E00E94DD0088E193E0A8
:100B90000E94DD008EE393E00E94DD0086E593E095
:100BA0000E94DD008EE693E00E94DD0083E993E081
:100BB0000E94DD0088EB93E00E94DD008DEC93E065
:100BC0000E94DD0081EE93E00E94DD008DEF93E056
:100BD0000E94DD008AE291E00E94DD001092AE04E6
:100BE00040C00E94DD008AE291E0DF91CF911F9129
:100BF0000F91FF90EF90DF90CF90BF90AF909F90BC
:100C00008F900C94DD008091AE04882361F087E121
:100C100094E00E94DD008091AE04815020C080915C
:100C2000AE04803178F087E0DF91CF911F910F9172
:100C3000FF90EF90DF90CF90BF90AF909F908F90FC
:100C40000C949800C03268F08C2F0E94980080911C
:100C5000AE04E82FF0E0E45BF94FC0838F5F809330
:100C6000AE04DF91CF911F910F91FF90EF90DF9035
:100C7000CF90BF90AF909F908F9008952F923F920A
:100C80004F925F926F927F928F929F92AF92BF929C
:100C9000CF92DF92EF92FF920F931F93CF93DF9348
:100CA000CDB7DEB72C970FB6F894DEBF0FBECDBF21
:100CB000942F429A2AE1629FA0011124052E000C74
:100CC000660B770B490F511D611D711D97E0440F95
:100CD000551F661F771F9A95D1F790E0A0E0B0E00E
:100CE00023E1880F991FAA1FBB1F2A95D1F71C016A
:100CF0002D01240E351E461E571E52014101882427
:100D000030EF9322C090B104D12CE12CF12C3CE0C7
:100D1000CC0CDD1CEE1CFF1C3A95D1F7D701C601A7
:100D200014968D839E83AF83B8870E947E026D8167
:100D30007E818F8198850E948A0200E010E0D501B3
:100D4000C4018C199D09AE09BF0989879A87AB87B1
:100D5000BC8740E069857A858B859C856C0D7D1DFF
:100D60008E1D9F1D0E94AF020E947E02419895E059
:100D70009A95F1F78DEA0E944C02D701C6011496AC
:100D800089839A83AB83BC838B810E944C028A81C6
:100D90000E944C028C2D0E944C02809140050E94C2
:100DA0004C02809141050E944C02419A95E09A952F
:100DB000F1F70E946F0280FDFCCFA0E4B5E0BA839A
:100DC000A9834198B5E0BA95F1F78DEA0E944C02EB
:100DD000E981FA8182810E944C02A981BA8113962D
:100DE0008C910E944C02419AB5E0BA95F1F70E94AD
:100DF0006F0280FDFCCFE981FA813296FA83E983A4
:100E0000EE5BF540F1F6419835E03A95F1F784E074
:100E10000E944C02419A85E08A95F1F70F5F1F4FBF
:100E200090E8C90ED11CE11CF11C0032110509F03B
:100E300090CF0E947E02C501B4010E948A02CD803B
:100E4000DE80EF80F88480E2682E712C4198AAE061
:100E5000AA95F1F783E00E944C028E2D0E944C026D
:100E60008D2D0E944C028C2D0E944C02E0E4F5E096
:100E7000FA83E983E0ECF5E029813A81E217F30790
:100E800049F080E00E944C02A981BA818D93BA8317
:100E9000A983F0CF419A3AE03A95F1F70E947E0299
:100EA000419885E08A95F1F78DEA0E944C028A2DDF
:100EB0000E944C02892D0E944C02882D0E944C02F7
:100EC000281439044A045B0439F48091C0040E9458
:100ED0004C028091C10406C0809140050E944C02E2
:100EE000809141050E944C02419A95E09A95F1F754
:100EF0000E946F0280FDFCCFA0ECB4E0BA83A9830E
:100F000000E415E04198B5E0BA95F1F78DEA0E944A
:100F10004C02281439044A045B0441F4E981FA8143
:100F200082810E944C02A981BA8105C0F8018281A8
:100F30000E944C02D80113968C910E944C02419A57
:100F40000E946F0280FDFCCFE981FA813296FA831C
:100F5000E9830E5F1F4F2EE335E02E173F0791F612
:100F6000419835E03A95F1F784E00E944C02419AAD
:100F700085E08A95F1F791E0691A7108A0E8CA0E38
:100F8000D11CE11CF11CB0E88B0E911CA11CB11C02
:100F90006114710409F05ACF8091B1048F5F80937E
:100FA000B104803411F41092B104429880E02C9680
:100FB0000FB6F894DEBF0FBECDBFDF91CF911F916A
:100FC0000F91FF90EF90DF90CF90BF90AF909F90E8
:100FD0008F907F906F905F904F903F902F900895EB
:100FE0005E985D9A8FEF809301011092B304109286
:100FF000B604089580E008955B9A53985A9A5298DF
:10100000289A2098299A219A2A9A229A5E9A569A80
:101010005D9A559A5F9A579A5C9A549A519A589A3F
:10102000509882E08093C00088ED8093C10086E0F4
:101030008093C2001092C5008FE08093C400419A53
:10104000399A2C9A2498239A259A80E58CBD81E0C0
:101050008DBD789442983A9A60E072EC81E090E01D
:101060000E94E90083E191E00E94DD008EE194E0BE
:101070000E94DD0085E594E00E94DD008CE794E0AD
:101080000E94DD0086E994E00E94DD002FEF8FE7EB
:1010900094E0215080409040E1F700C000000E94A1
:1010A000E3012FEF8FEF9CE2215080409040E1F769
:1010B00000C000005E9880E00E945202D2E0C1E0D1
:1010C00014E003E04A99B0C0809101018F3FA9F478
:1010D0008091B00480FF04C089EA94E00E94DD00A2
:1010E0005E9A5F9A0E94030284FB992790F990937D
:1010F000B7048695877080930101E09101018E2FDE
:1011000090E08830910508F08DC0FC01EC5CFF4F49
:101110000C9438098091B304811106C00093B30484
:101120002A981092B60480C0E090B604F12C0E9478
:101130002502F701E054FB4F80838091B6048F5F56
:101140008093B604803871F56DC08091B60487FD38
:1011500021C08091B30481110EC01093B3045D9837
:1011600021E32A95F1F700008091C0040E94360225
:10117000C093B60417C02A9AE091B604F0E0E05498
:10118000FB4F80810E9436028091B6048F5F80936E
:10119000B60408C02A9A46C08091B304811104C0E5
:1011A000C093B3042A9840C0813051F40E940302D6
:1011B00081508093B5048B3160F4D093B304F2CFA7
:1011C000823091F50E940302682F8093B4048D341D
:1011D00010F05F9827C080910101833059F086306C
:1011E00011F08230F9F44091B5048091B7040E9467
:1011F0003E0618C04091B5048091B7040E94550383
:1012000011C05D9881E38A95F1F70000809100019B
:1012100007C05D9891E39A95F1F700008091B204C0
:101220000E9436020E94F0074B9919C040E061E02D
:1012300080E00E9455035E9A2FEF8FE794E02150E3
:1012400080409040E1F700C000005D9821E32A95BE
:10125000F1F7000084E80E9436020E94F0078091B6
:10126000020184FD2FCF0E9462000E949E032ACFBC
:10127000EE0FFF1F0590F491E02D0994F894FFCF35
:1012800084FF50000D0A55415254204649464F20D4
:101290004F4B000D0A2D2D2D2D2D0D0A00434C49CD
:1012A00020737461727465640D0A3E00554E4B4E96
:1012B0004F574E20434F4D4D414E440D0A0D0A00ED
:1012C000494E434F525245435420445249564520BB
:1012D0004E554D4245520D0A0D0A005043422076AC
:1012E000312E300D0A00424C442076302E310D0A4A
:1012F000005357202076302E310D0A00534E202007
:101300003330310D0A0053656E64696E67205258A0
:101310000020696D616765206F76657220586D6F7A
:1013200064656D2E2E2E004261636B696E672075B9
:10133000702052580020696D6167652E2E2E0D0AAF
:101340000045726173696E672E2E2E0D0A0045727C
:101350006173696E672030780050726576696F75C9
:1013600073206261636B7570206572617365640DD3
:101370000A00436F7079696E672E2E2E0D0A0044A5
:101380006F6E650D0A0D0A00526573746F72696E97
:10139000672052580020696D6167652066726F6D25
:1013A000206261636B75702E2E2E0D0A00457261EE
:1013B00073696E67202E2E2E0D0A00466C6F7070BA
:1013C0007920696D616765206572617365640D0AD6
:1013D000004465627567206F66660D0A00446562A9
:1013E0007567206F6E0D0A00566572626F73652017
:1013F0006465627567206F6E0D0A00494E434F5257
:10140000524543542044454255472053455454497E
:101410004E470D0A00436F6D6D616E64733A0D0A9D
:10142000003F202D2068656C700D0A007873302015
:101430002D2073656E642052583020696D61676598
:10144000206F76657220586D6F64656D0D0A0078A7
:101450007331202D2073656E642052583120696DE0
:10146000616765206F76657220586D6F64656D0DDC
:101470000A00787230202D207265636569766520D8
:1014800052583020696D616765206F76657220580B
:101490006D6F64656D0D0A00787231202D207265C4
:1014A00063656976652052583120696D61676520F2
:1014B0006F76657220586D6F64656D0D0A0062303D
:1014C000202D206261636B75702052583020696D49
:1014D0006167650D0A006231202D206261636B75C2
:1014E000702052583120696D6167650D0A007230B5
:1014F000202D20726573746F7265205258302069F8
:101500006D6167652066726F6D206261636B7570D7
:101510000D0A007231202D20726573746F72652080
:1015200052583120696D6167652066726F6D206267
:1015300061636B75700D0A006430202D206469733F
:1015400061626C652064656275670D0A0064312014
:101550002D20656E61626C652064656275670D0A99
:10156000006432202D20656E61626C6520766572A4
:10157000626F73652064656275670D0A0076202DC1
:101580002073686F772076657273696F6E0D0A0D30
:101590000A005E430D0A001B5B441B5B4B00525864
:1015A000303120647269766520656D756C61746F89
:1015B0007220666F72205044502D313120636F6D60
:1015C00070617469626C6520636F6D7075746572AB
:1015D000732E0D0A0054657374656420776974680E
:1015E000204D43313230312E303220616E6420493B
:1015F0003420626F617264732E0D0A00437265615C
:1016000074656420627920546563686E6F6D616EE5
:101610006365720D0A007068616E746F6D2E736180
:0E1620006E6E6174612E7275000DAC200000BC
:00000001FF
