:100000000C944E000C946B000C946B000C946B00E1
:100010000C946B000C946B000C946B000C946B00B4
:100020000C946B000C946B000C946B000C94A50A60
:100030000C946B000C946B000C946B000C946B0094
:100040000C946B000C946B000C944E010C946B00A0
:100050000C94A7010C946B000C946B000C946B0037
:100060000C946B000C946B00BD05C005C305C60560
:10007000CC05CF05C905D605D20584052908380861
:10008000470865087408560892088308830BCF0B4D
:10009000150C150C800C6D0C150C750C11241FBE65
:1000A000CFEFD8E0DEBFCDBF15E0A0E0B1E0E0E9E2
:1000B000F9E102C005900D92A23AB107D9F727E005
:1000C000A2EAB5E001C01D92AC3EB207E1F70E9482
:1000D000D40A0C94C60C0C9400009091C00095FFBB
:1000E000FCCF8093C60008958091020184FD30C04A
:1000F0004091BC055091BD05FA01EC53F94F808148
:1001000020910201309103012F7D30930301209350
:1001100002014B38510529F41092BD051092BC051F
:1001200006C04F5F5F4F5093BD054093BC05609183
:10013000BC057091BD054091BE055091BF05641787
:10014000750739F42061309303012093020108956B
:1001500080E00895F8949091020196FD37C0909147
:10016000020197FF02C07894FACFF8942091C2055B
:100170003091C305F901E05AF84F80838091020164
:10018000909103018F7B90930301809302012B38A0
:10019000310529F41092C3051092C20506C02F5FE5
:1001A0003F4F3093C3052093C2054091C205509143
:1001B000C3052091C0053091C1054217530761F472
:1001C0008068909303018093020106C09091C00063
:1001D00095FFC5CF8093C600789480E00895CF93B3
:1001E000DF93EC018991882319F00E94AA00FACFCD
:1001F000DF91CF9108958DE00E946D008AE00E940A
:100200006D008DE00E946D008AE00E946D008DE21D
:100210000E946D008DE20E946D008DE20E946D00D3
:100220008DE20E946D008DE20E946D008DE00E94C3
:100230006D008AE00E946D0085E50E946D0081E4FA
:100240000E946D0082E50E946D0084E50E946D00B1
:1002500080E20E946D008FE40E946D008BE40E949A
:100260006D0080E20E946D0081E30E946D0081E3D9
:100270000E946D0085E30E946D0082E30E946D0084
:1002800080E30E946D0080E30E946D0084E091E0B5
:100290000C94EF0080910201807108951F920F92DB
:1002A0000FB60F9211242F933F934F935F938F9329
:1002B0009F93EF93FF934091C6008091020185FFC9
:1002C0000AC080910201909103018860909303011C
:1002D0008093020118952091BE053091BF05F90168
:1002E000EC53F94F408380910201909103018F7E7E
:1002F00090930301809302012B38310529F4109269
:10030000BF051092BE0506C02F5F3F4F3093BF055B
:100310002093BE054091BE055091BF052091BC05BC
:100320003091BD054217530729F480629093030171
:1003300080930201FF91EF919F918F915F914F9177
:100340003F912F910F900FBE0F901F9018951F9205
:100350000F920FB60F9211242F933F934F935F93F9
:100360008F939F93EF93FF938091020186FD34C09A
:10037000E091C005F091C105E05AF84F808180936B
:10038000C60080910201909103018F779093030141
:10039000809302012091C0053091C1052B383105B1
:1003A00029F41092C1051092C00506C02F5F3F4F7F
:1003B0003093C1052093C0054091C0055091C105FF
:1003C0002091C2053091C3054217530729F4806478
:1003D0009093030180930201FF91EF919F918F9180
:1003E0005F914F913F912F910F900FBE0F901F90F3
:1003F000189583E191E00E94EF008DE191E00C946B
:10040000EF008DE391E00E94EF008CE291E00E940A
:10041000EF008AE291E00C94EF008DE391E00E94FE
:10042000EF0080E491E00E94EF008AE291E00C94FA
:10043000EF002A9A28E090E080E0880F189902C027
:100440008F5F9F5F5C9835E03A95F1F75C9A3AE0F0
:100450003A95F1F7215089F7189B9F5F90FD0AC0EC
:1004600085E40E946D0082E50E946D0082E50E9495
:100470006D008FEF08952A9A98E080E0880F189B0E
:100480008F5F5C9825E02A95F1F75C9A2AE02A951F
:10049000F1F7915099F7089598E087FD02C0299AE5
:1004A00001C02998880F25E02A95F1F75C9825E08E
:1004B0002A95F1F75C9A2AE02A95F1F7915069F7AD
:1004C000299A08958EBD0DB407FEFDCF8EB508950F
:1004D000CF93C82F41988AE08A95F1F780E50E9472
:1004E0006202419A8AE08A95F1F741988AE08A95FA
:1004F000F1F781E00E9462028C2F0E946202419A11
:100500008AE08A95F1F7CF91089541988AE08A951B
:10051000F1F785E00E94620280E00E946202419A47
:100520009AE09A95F1F7089541988AE08A95F1F753
:1005300086E00E946202419A8AE08A95F1F7089566
:100540001F93CF93DF93EB01182F0E9494020E9418
:10055000850280FDFCCF41988AE08A95F1F780E220
:100560000E946202812F0E9462028D2F0E9462020D
:100570008C2F0E946202419A8AE08A95F1F70E94CC
:10058000850280FDFCCFDF91CF911F910895CF921E
:10059000DF92EF92FF92CF936B017C01C0E4C70121
:1005A000B6010E94A00280E1D80EE11CF11CC150EE
:1005B000B1F7CF91FF90EF90DF90CF900895FF9229
:1005C0000F931F93CF93DF93EB01182FF42E4198D5
:1005D0008AE08A95F1F783E00E946202812F0E94EF
:1005E00062028D2F0E9462028C2F0E946202C4E47C
:1005F000D6E004EC15E0F6E0C43CDF0779F080E0DB
:10060000F11004C00E946202888304C00E9462024A
:10061000F801808321960F5F1F4FEDCF419A8AE04A
:100620008A95F1F7DF91CF911F910F91FF90089577
:10063000FF920F931F93CF93DF93EB01182FF42EAC
:100640000E949402419885E08A95F1F78DEA0E9414
:100650006202812F0E9462028D2F0E9462028C2F03
:100660000E946202F11007C0809144060E9462025B
:100670008091450606C08091C4050E946202809167
:10068000C5050E946202419AE5E0EA95F1F70E94F1
:10069000850280FDFCCFC4E4D6E004EC15E041986F
:1006A000F5E0FA95F1F78DEA0E946202F11005C0BB
:1006B0008A810E9462028B8106C0F80182810E94B9
:1006C0006202F80183810E946202419AF5E0FA9584
:1006D000F1F70E94850280FDFCCF22960E5F1F4F2E
:1006E00086E0C23CD807D9F64198E5E0EA95F1F7F3
:1006F00084E00E946202419AF5E0FA95F1F7DF91F9
:10070000CF911F910F91FF9008954F925F926F923A
:100710007F928F929F92AF92BF92CF92DF92EF9291
:10072000FF92CF93DF933B01D82FC92F49015A0184
:10073000CA01B9010E94C7026301ED2EFC2EC0E080
:10074000D8E08C189D08AE08BF08240135014C0C78
:100750005D1C6E1C7F1C40E0C701B6010E94DF02D9
:1007600040E0C301B2010E94180380E8C80ED11C0A
:10077000E11CF11C219749F7DF91CF91FF90EF9099
:10078000DF90CF90BF90AF909F908F907F906F90B1
:100790005F904F9008950F931F93CF93DF93C82FCF
:1007A000811102C0429A01C0439A0AE1609FB001E0
:1007B0001124CB01770FAA0BBB0B840F911DA11D38
:1007C000B11D27E0880F991FAA1FBB1F2A95D1F7DB
:1007D0004C2F50E060E070E033E1440F551F661F7E
:1007E000771F3A95D1F78A019B01080F191F2A1F1D
:1007F0003B1FC901B80141E00E94DF0288B1837F3D
:1008000088B9D0E0CC0FDD1FC755DA4F88819981B8
:1008100001969983888380E0DF91CF911F910F919A
:100820000895CF93C82F82958F708A3010F0895C1D
:1008300001C0805D0E94AA008C2F8F708A3010F05A
:10084000895C01C0805DCF910C94AA00AF92BF92E9
:10085000DF92EF92FF920F931F93CF93DF93EC0100
:10086000D62E84E0F82E00E117E2E12C9AE0A92EC2
:10087000B12C20E0C017D10730F02F5FC01BD10B87
:10088000EE24E394F7CFC801B5010E94AC0C8B01B4
:10089000EE2019F080E3820F03C0DD2019F080E222
:1008A0000E94AA00FA94F110E4CF8C2F805DDF91B2
:1008B000CF911F910F91FF90EF90DF90BF90AF907D
:1008C0000C94AA006F927F928F929F92AF92BF92E8
:1008D000CF92DF92EF92FF920F931F93CF93DF930C
:1008E000C82F883009F4F4C28D3041F0833009F00C
:1008F000FBC21092A20587E095E0D6C29091A205B6
:10090000911103C08DE391E0CFC2809150078236F0
:1009100009F45CC180F4823509F48FC138F4823463
:1009200009F454C1843409F4C8C177C2863599F0FA
:10093000883531F172C2833709F4EEC138F4843658
:1009400009F4BBC1823709F478C167C2863719F050
:100950008837B1F062C29130A9F48DE391E00E9432
:10096000EF008BE591E00E94EF0086E691E00E94A7
:10097000EF0081E791E00E94EF008CE791E08BC2ED
:10098000933019F00E9401028CC280915107833587
:1009900059F020F4823509F472C0B3C0823709F4EB
:1009A0006EC0833709F0ADC080915207805382300A
:1009B00018F00E940D02F9C08DE391E00E94EF0053
:1009C00086E891E00E94EF00809152070E94AA0001
:1009D00081E991E00E94EF0080915207982F917079
:1009E00080FD02C0429A01C0439A892E912CA12C0D
:1009F000B12CE3E1880C991CAA1CBB1CEA95D1F729
:100A00001092B2051092B105C1E0D0E0712CF4EC67
:100A1000EF2EF6E0FF2E80910201807125E02A95ED
:100A2000F1F7811120C00E947400853131F4739474
:100A300039E0371508F496C37FC2833009F494C3B4
:100A4000863089F480E8880E911CA11CB11C10929C
:100A5000B2051092B1052196C33D97E0D90709F47C
:100A600073C3712C69C28091B1059091B2058C322B
:100A7000914088F2C3E088B1837F88B973C08DE369
:100A800091E00E94EF0087EA91E00E94EF008091E0
:100A900052070E94AA0081E991E00E94EF00809134
:100AA0005207F82FF170FF2E80FD02C0429A01C05C
:100AB000439A60E070E08CE090E00E94C7021092E0
:100AC000B2051092B10585E10E94AA008091020151
:100AD0008071E6E6FEE03197F1F7000081110AC06F
:100AE000D0E0E12C01E010E0812C912C7CE0A72EDD
:100AF000B12C6CC28091B1059091B2054E9730F344
:100B0000DECF0E94010251C08F2D90E0A0E0B0E046
:100B10009C01AD0163E1220F331F441F551F6A95ED
:100B2000D1F760E070E08CE090E00E94850386E001
:100B30000E94AA009FEFEFEFFCE29150E040F040EE
:100B4000E1F700C0000084EB91E00E94EF0088B163
:100B5000837F88B98DE391E00E94EF008AE291E003
:100B60000E94EF008C2F90E0FC013297E930F105F4
:100B7000E8F4EC5CFF4F0C94C00C84EB91E021C0D6
:100B80008BEB91E01EC08DEC91E01BC08FEE91E0ED
:100B900018C083E092E015C08CE192E012C08EE3B1
:100BA00092E00FC086E592E00CC0C0E080E20E94B7
:100BB000AA008C2F0E94110480E20E94AA0083E701
:100BC00092E00E94EF008DE391E065C1923009F060
:100BD000D9CE8091510780538230B8F58DE391E0F2
:100BE0000E94EF0089E892E00E94EF008091510797
:100BF0000E94AA0087E992E00E94EF0080915107CD
:100C0000982F917080FD02C0429A01C0439AC92E6C
:100C1000D12CE12CF12C93E1CC0CDD1CEE1CFF1C43
:100C20009A95D1F783EA92E00E94EF00A70196011E
:100C3000405F5F4FC701B60138C0923009F0A2CEC5
:100C4000809151078053823018F00E940D0229C113
:100C50008DE391E00E94EF0089EB92E00E94EF00AB
:100C6000809151070E94AA0086EC92E00E94EF005A
:100C700080915107282F217080FD02C0429A01C047
:100C8000439AC22ED12CE12CF12C83EA92E00E94EF
:100C9000EF00A701960183E1220F331F441F551F68
:100CA0008A95D1F7CA01B90140960E94850388B19F
:100CB000837F88B980EB92E0EEC0923009F062CE7B
:100CC0008DE391E00E94EF0080915107813361F044
:100CD000823399F08033C9F48091B4058C7F80937E
:100CE000B4058EED92E013C08091B4058D7F8160D4
:100CF0008093B4058AEE92E00AC08091B4058360C7
:100D00008093B40585EF92E002C088E093E00E94F2
:100D1000EF0088E291E0C3C0913009F033CE8DE35B
:100D200091E00E94EF0082E293E00E94EF0088E3EE
:100D300093E00E94EF00C091A605D091A70500E1C5
:100D40001EE0CE01B8010E94AC0C7B0160E0C7013F
:100D50000E94260481E493E00E94EF00E09EC0011F
:100D6000E19E900DF09E900D1124C81BD90BCE0171
:100D70006CE370E00E94AC0C8B0160E0C8010E9443
:100D8000260484E493E00E94EF002CE3209FC0013E
:100D9000219F900D112460E0FE01E81BF90BCF01AB
:100DA0000E94260487E493E00E94EF008BE493E026
:100DB0000E94EF0083E693E00E94EF0061E08091E3
:100DC000AD059091AE050E9426048CE693E00E944A
:100DD000EF0061E08091A9059091AA050E94260488
:100DE0008DE391E00E94EF008EE693E00E94EF0019
:100DF00061E08091AF059091B0050E9426048CE6D9
:100E000093E00E94EF0061E08091AB059091AC050A
:100E10000E9426048DE391E07ACF8DE391E00E9459
:100E2000EF0089E793E00E94EF0085E893E00E94DD
:100E3000EF0080E993E00E94EF0083EB93E00E94D3
:100E4000EF0086ED93E00E94EF008CEF93E00E94AC
:100E5000EF0082E294E00E94EF008AE394E00E94B7
:100E6000EF0082E594E00E94EF0087E794E00E94A3
:100E7000EF008CE994E00E94EF0081EB94E00E9487
:100E8000EF0085EC94E00E94EF0081EE94E00E9478
:100E9000EF0084EF94E00E94EF008AE291E00E946C
:100EA000EF001092A20562C10E94EF008AE291E079
:100EB000DF91CF911F910F91FF90EF90DF90CF9036
:100EC000BF90AF909F908F907F906F900C94EF00A9
:100ED0008091A205882361F08CE095E00E94EF00EC
:100EE0008091A205815025C08091A205803188F0B3
:100EF00087E0DF91CF911F910F91FF90EF90DF90EE
:100F0000CF90BF90AF909F908F907F906F900C94F8
:100F1000AA0080EE8C0F8F3508F028C18C2F0E941C
:100F2000AA008091A205E82FF0E0E05BF84FC083B3
:100F30008F5F8093A2051AC140E0C501B4010E94F1
:100F4000DF0281E00E94AA008C2F0E94AA008C2F51
:100F500080950E94AA0004E416E0612CE016F106D8
:100F600051F06801F80181918F010E94AA00F601F9
:100F70008081680EF3CF862D0E94AA004CCD40E000
:100F8000C501B4010E9418030F5F1F4F80E8880E4F
:100F9000911CA11CB11C86E00E94AA00D0E0E12CAB
:100FA000C1E0809102018071F5E0FA95F1F78111BD
:100FB00041C00E947400D130E9F050F4833009F44C
:100FC000BDC0843089F08130A9F5D1E0C0E0E9CF1F
:100FD000D230B9F0D338F9F0ED2FF0E0EF5BF94FF4
:100FE0008083E80EDF5F26C0023D174008F0A8C0EE
:100FF000C8E023C090E0980133278217930749F493
:1010000016C090E0980120953095332782179307FA
:1010100081F0C4E012C0E81295C0033D37E0130729
:1010200008F4ADCF85E10E94AA00C7E006C0D2E077
:1010300001C0D3E0C23008F4B4CF8C2F90E0FC01A3
:101040003297E930F10508F06DC0E35CFF4F0C9476
:10105000C00C86E00E94AA002FEF3FEF8CE22150E7
:1010600030408040E1F700C000008BEB91E06DCD97
:1010700086E00E94AA009FEFEFEFFCE29150E04073
:10108000F040E1F700C000008DEC91E05ECD86E01D
:101090000E94AA002FEF3FEF8CE2215030408040A9
:1010A000E1F700C000008FEE91E04FCD86E00E9496
:1010B000AA009FEFEFEFFCE29150E040F040E1F733
:1010C00000C0000083E092E040CD86E00E94AA00CC
:1010D0002FEF3FEF8CE2215030408040E1F700C01D
:1010E00000008CE192E031CD85E10E94AA009FEFE3
:1010F000EFEFFCE29150E040F040E1F700C000006B
:101100008EE392E022CD86E00E94AA002FEF3FEF0F
:101110008CE2215030408040E1F700C0000086E5BD
:1011200092E013CD80E20E94AA008C2F0E9411044D
:1011300080E20E94AA0083E792E007CDCAE07DCF5B
:10114000C2E07BCFC5E079CF84E00E94AA00FFEF28
:101150002FEF39E5F15020403040E1F700C00000AA
:10116000C2E089CCCBE087CCCAE085CCDF91CF91BF
:101170001F910F91FF90EF90DF90CF90BF90AF90B5
:101180009F908F907F906F9008952F923F924F92F3
:101190005F926F927F928F929F92AF92BF92CF9207
:1011A000DF92EF92FF920F931F93CF93DF93CDB710
:1011B000DEB72D970FB6F894DEBF0FBECDBF8D837F
:1011C000811102C0429A01C0439A2AE1629FC00184
:1011D0001124092E000CAA0BBB0B840F911DA11D1D
:1011E000B11D27E0880F991FAA1FBB1F2A95D1F7B1
:1011F0003D81432F50E060E070E033E1440F551F24
:10120000661F771F3A95D1F71A012B01280E391E58
:101210004A1E5B1E52014101882480EF9822C09033
:10122000B505D12CE12CF12C4CE0CC0CDD1CEE1CD6
:10123000FF1C4A95D1F7D701C60114968E839F8370
:10124000A887B9870E9494026E817F8188859985DD
:101250000E94A00200E010E0D501C4018C199D0994
:10126000AE09BF098A879B87AC87BD8752EC652E84
:1012700056E0752E40E06A857B858C859D856C0DDA
:101280007D1D8E1D9F1D0E94DF020E9494024198C9
:1012900095E09A95F1F78DEA0E946202D701C601A6
:1012A000149689839A83AB83BC838B810E946202EC
:1012B0008A810E9462028C2D0E9462028091440603
:1012C0000E946202809145060E946202419A95E066
:1012D0009A95F1F70E94850280FDFCCFA4E4B6E068
:1012E000BA83A9834198B5E0BA95F1F78DEA0E94D7
:1012F0006202E981FA8182810E946202A981BA8137
:1013000013968C910E946202419AB5E0BA95F1F76A
:101310000E94850280FDFCCFE981FA813296FA8332
:10132000E9836E167F06F1F64198F5E0FA95F1F73C
:1013300084E00E946202419A25E02A95F1F70F5F4E
:101340001F4F30E8C30ED11CE11CF11C0032110507
:1013500009F090CF0E949402C501B4010E94A0023E
:10136000CE80DF80E884F984612C712C41988AE07A
:101370008A95F1F783E00E9462028E2D0E9462023C
:101380008D2D0E9462028C2D0E946202A4E4B6E0C0
:10139000BA83A98324EC36E089819A81281739071A
:1013A00049F080E00E946202E981FA818193FA8328
:1013B000E983F0CF419A9AE09A95F1F70E9494025E
:1013C0004198A5E0AA95F1F78DEA0E9462028A2D64
:1013D0000E946202892D0E946202882D0E94620290
:1013E000281439044A045B0439F48091C4050E942E
:1013F00062028091C50506C0809144060E94620287
:10140000809145060E946202419AB5E0BA95F1F7D3
:101410000E94850280FDFCCFE4ECF5E0FA83E983CD
:1014200004E416E04198F5E0FA95F1F78DEA0E94A0
:101430006202281439044A045B0449F4A981BA8180
:1014400012968C910E946202E981FA8106C0D8014D
:1014500012968C910E946202F80183810E946202BE
:10146000419A0E94850280FDFCCF29813A812E5F3E
:101470003F4F3A8329830E5F1F4F82E496E0821725
:10148000930781F6419895E09A95F1F784E00E94E0
:101490006202419AA5E0AA95F1F7BFEF6B1A7B0AA9
:1014A000E0E8CE0ED11CE11CF11CF0E88F0E911C7F
:1014B000A11CB11C20E26216710409F057CF809183
:1014C000B5058F5F8093B505803411F41092B50592
:1014D0003D81E32FF0E0EE0FFF1FE355FA4F8081CF
:1014E000918101969183808388B1837F88B980E060
:1014F0002D960FB6F894DEBF0FBECDBFDF91CF9112
:101500001F910F91FF90EF90DF90CF90BF90AF9021
:101510009F908F907F906F905F904F903F902F9013
:1015200008955E985D9A8FEF809301011092B70540
:101530001092BA058091B40580FF06C08DE00E942C
:10154000AA008AE00C94AA0008951F920F920FB689
:101550000F9211248F939F938091B3058F5F809397
:10156000B3058091B1059091B20501969093B205B3
:101570008093B1058091A8058F5F8A3019F0809320
:10158000A8050BC01092A8058091A6059091A7050B
:1015900001969093A7058093A6059F918F910F9038
:1015A0000FBE0F901F9018955B9A53985A9A5298B5
:1015B000289A2098459A3D98299A219A2A9A229AFF
:1015C0005E9A569A5D9A559A5F9A579A5C9A549A7F
:1015D000519A589A509882E08093C00098ED909369
:1015E000C10096E09093C2001092C5009FE09093D6
:1015F000C400419A399A2C9A2498239A259A90E506
:101600009CBD91E09DBD109280009CE09093810074
:10161000109282002FE736E13093890020938800F2
:1016200080936F007894429843983A9A3B9A60E08E
:1016300072EC81E090E00E94FB0083E191E00E9467
:10164000EF0083E195E00E94EF008AE495E00E94BC
:10165000EF0081E795E00E94EF008BE895E00E94A3
:10166000EF002FEF8FE794E0215080409040E1F7AA
:1016700000C000000E94F9012FEF8FEF9CE2215083
:1016800080409040E1F700C000005E9880E00E943A
:101690006802D2E0C1E014E003E04A9931C18091D0
:1016A00001018F3F19F55E9A5F9A0E94190284FB2F
:1016B000992790F99093BB058695877080930101D7
:1016C0008091B40580FF12C01092A5051092A40568
:1016D00083E40E94AA0080E20E94AA008091010196
:1016E000805D0E94AA0080E20E94AA00E0910101B0
:1016F0008E2F90E08830910508F000C1FC01EA5B74
:10170000FF4F0C94C00C8091B705811112C000935B
:10171000B7052A981092BA058091B40581FFF0C0F0
:101720008DE391E00E94EF001092A5051092A405B0
:10173000E7C0E090BA05F12C0E943B02F701EC53A0
:10174000FA4F80838091B40581FF20C0E091BA05F3
:10175000F0E0EC53FA4F80810E94110480E20E9475
:10176000AA008091A4059091A50501968830910565
:1017700028F49093A5058093A40508C01092A505B0
:101780001092A4058DE391E00E94EF008091BA05CC
:101790008F5F8093BA05803809F04DC0AFC080914B
:1017A000B40581FF1BC08091A4059091A505892BEC
:1017B00021F48DE391E00E94EF008091A4059091C7
:1017C000A50501968830910528F49093A50580938E
:1017D000A40504C01092A5051092A4058091BA0535
:1017E00087FD21C08091B70581110EC01093B70508
:1017F0005D9821E32A95F1F700008091C4050E94CD
:101800004C02C093BA0517C02A9AE091BA05F0E0DD
:10181000EC53FA4F80810E944C028091BA058F5F91
:101820008093BA0508C02A9A69C08091B7058111D2
:1018300004C0C093B7052A9863C0813051F40E9458
:10184000190281508093B9058B3160F4D093B705AC
:10185000F2CF823009F054C00E9419028093B8057B
:101860008D3410F05F984AC08091B40580FF1BC092
:1018700084E50E94AA0080E20E94AA008091B80537
:1018800060E090E00E94260480E20E94AA0083E5C6
:101890000E94AA0080E20E94AA008091B90560E03F
:1018A00090E00E94260480910101833069F0863027
:1018B00011F0823019F54091B9056091B805809119
:1018C000BB050E94C5081AC04091B9056091B805D2
:1018D0008091BB050E94CB0311C05D9881E38A957E
:1018E000F1F700008091000107C05D9891E39A959F
:1018F000F1F700008091B6050E944C020E94910A07
:101900004B9921C040E061E080E00E94CB035E9AE9
:101910002FEF8FE794E0215080409040E1F700C026
:1019200000005D9821E32A95F1F7000084E80E9409
:101930004C028091B40580FF04C08EE995E00E94BE
:10194000EF000E94910A8091020184FDA6CE0E94C0
:1019500074000E946204A1CEAA1BBB1B51E107C008
:10196000AA1FBB1FA617B70710F0A61BB70B881F2F
:10197000991F5A95A9F780959095BC01CD010895BE
:10198000EE0FFF1F0590F491E02D0994F894FFCF1E
:1019900084FF50000D0A55415254204649464F20BD
:1019A0004F4B000D0A2D2D2D2D2D0D0A00434C49B6
:1019B00020737461727465640D0A3E00554E4B4E7F
:1019C0004F574E20434F4D4D414E440D0A0D0A00D6
:1019D000494E434F525245435420445249564520A4
:1019E0004E554D4245520D0A0D0A00504342207695
:1019F000312E300D0A00424C442076302E310D0A33
:101A0000005357202076302E310D0A00534E2020EF
:101A10003330310D0A0053656E64696E6720525889
:101A20000020696D616765206F76657220586D6F63
:101A300064656D2E2E2E00526563656976696E674A
:101A400020525800446F6E650D0A004552524F52A5
:101A5000202D2054494D454F55540D0A00455252F2
:101A60004F52202D20494E434F525245435420504F
:101A700041434B4554204E554D4245520D0A0045B9
:101A800052524F52202D20435243204552524F5222
:101A90000D0A004552524F52202D2046494C4520F8
:101AA000544F4F2053484F52540D0A004552524F45
:101AB00052202D20494E434F52524543542050410D
:101AC000434B4554204845414445520D0A00455278
:101AD000524F52202D2046494C4520544F4F204C08
:101AE0004F4E470D0A005452414E53464552204333
:101AF000414E43454C4C4544204259205553455294
:101B00000D0A00534F4D455448494E472046554312
:101B10004B45442055500D0A004261636B696E6766
:101B20002075702052580020696D6167652E2E2E39
:101B30000D0A00436F7079696E672E2E2E0D0A0014
:101B4000446F6E650D0A0D0A00526573746F7269F9
:101B50006E672052580020696D6167652066726F5C
:101B60006D206261636B75702E2E2E0D0A00446528
:101B7000627567206F66660D0A00446562756720AE
:101B80006F6E0D0A00566572626F73652064656240
:101B90007567206F6E0D0A00494E434F5252454300
:101BA000542044454255472053455454494E470D0F
:101BB0000A0053657373696F6E207374617469737F
:101BC000746963733A0D0A00557074696D653A2043
:101BD000006820006D2000730D0A00536563746F68
:101BE0007273207772697474656E20207265616407
:101BF0000D0A004458303A2020202020200044586C
:101C0000313A20202020202000436F6D6D616E64EA
:101C1000733A0D0A003F202D2068656C700D0A0094
:101C2000787330202D2073656E64205258302069FF
:101C30006D616765206F76657220586D6F64656DA4
:101C40000D0A00787331202D2073656E6420525880
:101C50003120696D616765206F76657220586D6F00
:101C600064656D0D0A00787230202D207265636501
:101C70006976652052583020696D616765206F76FE
:101C8000657220586D6F64656D0D0A0078723120A1
:101C90002D20726563656976652052583120696D23
:101CA000616765206F76657220586D6F64656D0D94
:101CB0000A006230202D206261636B7570205258DB
:101CC0003020696D6167650D0A006231202D206248
:101CD00061636B75702052583120696D6167650DC5
:101CE0000A007230202D20726573746F7265205265
:101CF000583020696D6167652066726F6D20626182
:101D0000636B75700D0A007231202D20726573743B
:101D10006F72652052583120696D61676520667267
:101D20006F6D206261636B75700D0A006430202D49
:101D30002064697361626C652064656275670D0A71
:101D4000006431202D20656E61626C6520646562DF
:101D500075670D0A006432202D20656E61626C6526
:101D600020766572626F73652064656275670D0A1F
:101D70000076202D2073686F772076657273696F07
:101D80006E0D0A0073202D20737461746973746979
:101D900063730D0A0D0A005E430D0A001B5B441BB2
:101DA0005B4B005258303120647269766520656D56
:101DB000756C61746F7220666F72205044502D31C3
:101DC0003120636F6D70617469626C6520636F6D43
:101DD0007075746572732E0D0A00546573746564B2
:101DE0002077697468204D43313230312E303220F3
:101DF000616E6420493420626F617264732E0D0A33
:101E0000004372656174656420627920546563687B
:101E10006E6F6D616E6365720D0A007068616E743D
:101E20006F6D2E73616E6E6174612E727500525308
:021E300054005C
:00000001FF
